{"abi":[{"type":"constructor","inputs":[{"name":"name","type":"string","internalType":"string"},{"name":"symbol","type":"string","internalType":"string"},{"name":"_initialAdmin","type":"address","internalType":"address"},{"name":"_protocolTreasury","type":"address","internalType":"address"}],"stateMutability":"nonpayable"},{"type":"function","name":"DEFAULT_ADMIN_ROLE","inputs":[],"outputs":[{"name":"","type":"bytes32","internalType":"bytes32"}],"stateMutability":"view"},{"type":"function","name":"MINTER_ROLE","inputs":[],"outputs":[{"name":"","type":"bytes32","internalType":"bytes32"}],"stateMutability":"view"},{"type":"function","name":"PAUSER_ROLE","inputs":[],"outputs":[{"name":"","type":"bytes32","internalType":"bytes32"}],"stateMutability":"view"},{"type":"function","name":"TREASURY_MANAGER_ROLE","inputs":[],"outputs":[{"name":"","type":"bytes32","internalType":"bytes32"}],"stateMutability":"view"},{"type":"function","name":"UPGRADER_ROLE","inputs":[],"outputs":[{"name":"","type":"bytes32","internalType":"bytes32"}],"stateMutability":"view"},{"type":"function","name":"UPGRADE_INTERFACE_VERSION","inputs":[],"outputs":[{"name":"","type":"string","internalType":"string"}],"stateMutability":"view"},{"type":"function","name":"allowance","inputs":[{"name":"owner","type":"address","internalType":"address"},{"name":"spender","type":"address","internalType":"address"}],"outputs":[{"name":"","type":"uint256","internalType":"uint256"}],"stateMutability":"view"},{"type":"function","name":"approve","inputs":[{"name":"spender","type":"address","internalType":"address"},{"name":"value","type":"uint256","internalType":"uint256"}],"outputs":[{"name":"","type":"bool","internalType":"bool"}],"stateMutability":"nonpayable"},{"type":"function","name":"balanceOf","inputs":[{"name":"account","type":"address","internalType":"address"}],"outputs":[{"name":"","type":"uint256","internalType":"uint256"}],"stateMutability":"view"},{"type":"function","name":"burn","inputs":[{"name":"value","type":"uint256","internalType":"uint256"}],"outputs":[],"stateMutability":"nonpayable"},{"type":"function","name":"burnFrom","inputs":[{"name":"account","type":"address","internalType":"address"},{"name":"value","type":"uint256","internalType":"uint256"}],"outputs":[],"stateMutability":"nonpayable"},{"type":"function","name":"decimals","inputs":[],"outputs":[{"name":"","type":"uint8","internalType":"uint8"}],"stateMutability":"pure"},{"type":"function","name":"getRoleAdmin","inputs":[{"name":"role","type":"bytes32","internalType":"bytes32"}],"outputs":[{"name":"","type":"bytes32","internalType":"bytes32"}],"stateMutability":"view"},{"type":"function","name":"grantRole","inputs":[{"name":"role","type":"bytes32","internalType":"bytes32"},{"name":"account","type":"address","internalType":"address"}],"outputs":[],"stateMutability":"nonpayable"},{"type":"function","name":"hasRole","inputs":[{"name":"role","type":"bytes32","internalType":"bytes32"},{"name":"account","type":"address","internalType":"address"}],"outputs":[{"name":"","type":"bool","internalType":"bool"}],"stateMutability":"view"},{"type":"function","name":"mintToTreasury","inputs":[{"name":"amount","type":"uint256","internalType":"uint256"}],"outputs":[],"stateMutability":"nonpayable"},{"type":"function","name":"name","inputs":[],"outputs":[{"name":"","type":"string","internalType":"string"}],"stateMutability":"view"},{"type":"function","name":"pause","inputs":[],"outputs":[],"stateMutability":"nonpayable"},{"type":"function","name":"paused","inputs":[],"outputs":[{"name":"","type":"bool","internalType":"bool"}],"stateMutability":"view"},{"type":"function","name":"protocolTreasury","inputs":[],"outputs":[{"name":"","type":"address","internalType":"address"}],"stateMutability":"view"},{"type":"function","name":"proxiableUUID","inputs":[],"outputs":[{"name":"","type":"bytes32","internalType":"bytes32"}],"stateMutability":"view"},{"type":"function","name":"renounceRole","inputs":[{"name":"role","type":"bytes32","internalType":"bytes32"},{"name":"callerConfirmation","type":"address","internalType":"address"}],"outputs":[],"stateMutability":"nonpayable"},{"type":"function","name":"retireFromTreasury","inputs":[{"name":"amount","type":"uint256","internalType":"uint256"},{"name":"reason","type":"string","internalType":"string"}],"outputs":[],"stateMutability":"nonpayable"},{"type":"function","name":"revokeRole","inputs":[{"name":"role","type":"bytes32","internalType":"bytes32"},{"name":"account","type":"address","internalType":"address"}],"outputs":[],"stateMutability":"nonpayable"},{"type":"function","name":"setProtocolTreasury","inputs":[{"name":"_newTreasury","type":"address","internalType":"address"}],"outputs":[],"stateMutability":"nonpayable"},{"type":"function","name":"supportsInterface","inputs":[{"name":"interfaceId","type":"bytes4","internalType":"bytes4"}],"outputs":[{"name":"","type":"bool","internalType":"bool"}],"stateMutability":"view"},{"type":"function","name":"symbol","inputs":[],"outputs":[{"name":"","type":"string","internalType":"string"}],"stateMutability":"view"},{"type":"function","name":"totalSupply","inputs":[],"outputs":[{"name":"","type":"uint256","internalType":"uint256"}],"stateMutability":"view"},{"type":"function","name":"transfer","inputs":[{"name":"to","type":"address","internalType":"address"},{"name":"value","type":"uint256","internalType":"uint256"}],"outputs":[{"name":"","type":"bool","internalType":"bool"}],"stateMutability":"nonpayable"},{"type":"function","name":"transferFrom","inputs":[{"name":"from","type":"address","internalType":"address"},{"name":"to","type":"address","internalType":"address"},{"name":"value","type":"uint256","internalType":"uint256"}],"outputs":[{"name":"","type":"bool","internalType":"bool"}],"stateMutability":"nonpayable"},{"type":"function","name":"transferFromTreasury","inputs":[{"name":"to","type":"address","internalType":"address"},{"name":"amount","type":"uint256","internalType":"uint256"}],"outputs":[],"stateMutability":"nonpayable"},{"type":"function","name":"unpause","inputs":[],"outputs":[],"stateMutability":"nonpayable"},{"type":"function","name":"upgradeToAndCall","inputs":[{"name":"newImplementation","type":"address","internalType":"address"},{"name":"data","type":"bytes","internalType":"bytes"}],"outputs":[],"stateMutability":"payable"},{"type":"event","name":"Approval","inputs":[{"name":"owner","type":"address","indexed":true,"internalType":"address"},{"name":"spender","type":"address","indexed":true,"internalType":"address"},{"name":"value","type":"uint256","indexed":false,"internalType":"uint256"}],"anonymous":false},{"type":"event","name":"Paused","inputs":[{"name":"account","type":"address","indexed":false,"internalType":"address"}],"anonymous":false},{"type":"event","name":"ProtocolTreasuryChanged","inputs":[{"name":"newTreasury","type":"address","indexed":true,"internalType":"address"}],"anonymous":false},{"type":"event","name":"RoleAdminChanged","inputs":[{"name":"role","type":"bytes32","indexed":true,"internalType":"bytes32"},{"name":"previousAdminRole","type":"bytes32","indexed":true,"internalType":"bytes32"},{"name":"newAdminRole","type":"bytes32","indexed":true,"internalType":"bytes32"}],"anonymous":false},{"type":"event","name":"RoleGranted","inputs":[{"name":"role","type":"bytes32","indexed":true,"internalType":"bytes32"},{"name":"account","type":"address","indexed":true,"internalType":"address"},{"name":"sender","type":"address","indexed":true,"internalType":"address"}],"anonymous":false},{"type":"event","name":"RoleRevoked","inputs":[{"name":"role","type":"bytes32","indexed":true,"internalType":"bytes32"},{"name":"account","type":"address","indexed":true,"internalType":"address"},{"name":"sender","type":"address","indexed":true,"internalType":"address"}],"anonymous":false},{"type":"event","name":"Transfer","inputs":[{"name":"from","type":"address","indexed":true,"internalType":"address"},{"name":"to","type":"address","indexed":true,"internalType":"address"},{"name":"value","type":"uint256","indexed":false,"internalType":"uint256"}],"anonymous":false},{"type":"event","name":"TreasuryRetirement","inputs":[{"name":"amount","type":"uint256","indexed":false,"internalType":"uint256"},{"name":"reason","type":"string","indexed":false,"internalType":"string"}],"anonymous":false},{"type":"event","name":"TreasuryTransfer","inputs":[{"name":"to","type":"address","indexed":true,"internalType":"address"},{"name":"amount","type":"uint256","indexed":false,"internalType":"uint256"}],"anonymous":false},{"type":"event","name":"Unpaused","inputs":[{"name":"account","type":"address","indexed":false,"internalType":"address"}],"anonymous":false},{"type":"event","name":"Upgraded","inputs":[{"name":"implementation","type":"address","indexed":true,"internalType":"address"}],"anonymous":false},{"type":"error","name":"AccessControlBadConfirmation","inputs":[]},{"type":"error","name":"AccessControlUnauthorizedAccount","inputs":[{"name":"account","type":"address","internalType":"address"},{"name":"neededRole","type":"bytes32","internalType":"bytes32"}]},{"type":"error","name":"AddressEmptyCode","inputs":[{"name":"target","type":"address","internalType":"address"}]},{"type":"error","name":"CallerNotMinter","inputs":[]},{"type":"error","name":"CallerNotTreasuryManager","inputs":[]},{"type":"error","name":"ERC1967InvalidImplementation","inputs":[{"name":"implementation","type":"address","internalType":"address"}]},{"type":"error","name":"ERC1967NonPayable","inputs":[]},{"type":"error","name":"ERC20InsufficientAllowance","inputs":[{"name":"spender","type":"address","internalType":"address"},{"name":"allowance","type":"uint256","internalType":"uint256"},{"name":"needed","type":"uint256","internalType":"uint256"}]},{"type":"error","name":"ERC20InsufficientBalance","inputs":[{"name":"sender","type":"address","internalType":"address"},{"name":"balance","type":"uint256","internalType":"uint256"},{"name":"needed","type":"uint256","internalType":"uint256"}]},{"type":"error","name":"ERC20InvalidApprover","inputs":[{"name":"approver","type":"address","internalType":"address"}]},{"type":"error","name":"ERC20InvalidReceiver","inputs":[{"name":"receiver","type":"address","internalType":"address"}]},{"type":"error","name":"ERC20InvalidSender","inputs":[{"name":"sender","type":"address","internalType":"address"}]},{"type":"error","name":"ERC20InvalidSpender","inputs":[{"name":"spender","type":"address","internalType":"address"}]},{"type":"error","name":"EnforcedPause","inputs":[]},{"type":"error","name":"ExpectedPause","inputs":[]},{"type":"error","name":"FailedCall","inputs":[]},{"type":"error","name":"InvalidAmount","inputs":[{"name":"amount","type":"uint256","internalType":"uint256"}]},{"type":"error","name":"UUPSUnauthorizedCallContext","inputs":[]},{"type":"error","name":"UUPSUnsupportedProxiableUUID","inputs":[{"name":"slot","type":"bytes32","internalType":"bytes32"}]},{"type":"error","name":"ZeroAddress","inputs":[]}],"bytecode":{"object":"0x60a06040523073ffffffffffffffffffffffffffffffffffffffff1660809073ffffffffffffffffffffffffffffffffffffffff16815250348015610042575f80fd5b506040516134653803806134658339818101604052810190610064919061058d565b838381600390816100759190610836565b5080600490816100859190610836565b5050505f73ffffffffffffffffffffffffffffffffffffffff168273ffffffffffffffffffffffffffffffffffffffff16036100ed576040517fd92e233d00000000000000000000000000000000000000000000000000000000815260040160405180910390fd5b5f73ffffffffffffffffffffffffffffffffffffffff168173ffffffffffffffffffffffffffffffffffffffff1603610152576040517fd92e233d00000000000000000000000000000000000000000000000000000000815260040160405180910390fd5b6101645f801b8361028560201b60201c565b506101957f65d7a28e3265b37a6474929f336521b332c1681b933f6cb9f3376673440d862a8361028560201b60201c565b506101c67f189ab7a9244df0848122154315af71fe140f3db0fe014031783b0946b8c9d2e38361028560201b60201c565b506101f77fede9dcdb0ce99dc7cec9c7be9246ad08b37853683ad91569c187b647ddf5e21c8361028560201b60201c565b5080600660016101000a81548173ffffffffffffffffffffffffffffffffffffffff021916908373ffffffffffffffffffffffffffffffffffffffff1602179055508073ffffffffffffffffffffffffffffffffffffffff167f48919a8bb9d5ad92fa352adb62046eaabb006b67ba2fcf7566ed0879ab5a27c360405160405180910390a250505050610905565b5f610296838361037b60201b60201c565b61037157600160055f8581526020019081526020015f205f015f8473ffffffffffffffffffffffffffffffffffffffff1673ffffffffffffffffffffffffffffffffffffffff1681526020019081526020015f205f6101000a81548160ff02191690831515021790555061030e6103df60201b60201c565b73ffffffffffffffffffffffffffffffffffffffff168273ffffffffffffffffffffffffffffffffffffffff16847f2f8788117e7eff1d82e926ec794901d17c78024a50270940304540a733656f0d60405160405180910390a460019050610375565b5f90505b92915050565b5f60055f8481526020019081526020015f205f015f8373ffffffffffffffffffffffffffffffffffffffff1673ffffffffffffffffffffffffffffffffffffffff1681526020019081526020015f205f9054906101000a900460ff16905092915050565b5f33905090565b5f604051905090565b5f80fd5b5f80fd5b5f80fd5b5f80fd5b5f601f19601f8301169050919050565b7f4e487b71000000000000000000000000000000000000000000000000000000005f52604160045260245ffd5b610445826103ff565b810181811067ffffffffffffffff821117156104645761046361040f565b5b80604052505050565b5f6104766103e6565b9050610482828261043c565b919050565b5f67ffffffffffffffff8211156104a1576104a061040f565b5b6104aa826103ff565b9050602081019050919050565b8281835e5f83830152505050565b5f6104d76104d284610487565b61046d565b9050828152602081018484840111156104f3576104f26103fb565b5b6104fe8482856104b7565b509392505050565b5f82601f83011261051a576105196103f7565b5b815161052a8482602086016104c5565b91505092915050565b5f73ffffffffffffffffffffffffffffffffffffffff82169050919050565b5f61055c82610533565b9050919050565b61056c81610552565b8114610576575f80fd5b50565b5f8151905061058781610563565b92915050565b5f805f80608085870312156105a5576105a46103ef565b5b5f85015167ffffffffffffffff8111156105c2576105c16103f3565b5b6105ce87828801610506565b945050602085015167ffffffffffffffff8111156105ef576105ee6103f3565b5b6105fb87828801610506565b935050604061060c87828801610579565b925050606061061d87828801610579565b91505092959194509250565b5f81519050919050565b7f4e487b71000000000000000000000000000000000000000000000000000000005f52602260045260245ffd5b5f600282049050600182168061067757607f821691505b60208210810361068a57610689610633565b5b50919050565b5f819050815f5260205f209050919050565b5f6020601f8301049050919050565b5f82821b905092915050565b5f600883026106ec7fffffffffffffffffffffffffffffffffffffffffffffffffffffffffffffffff826106b1565b6106f686836106b1565b95508019841693508086168417925050509392505050565b5f819050919050565b5f819050919050565b5f61073a6107356107308461070e565b610717565b61070e565b9050919050565b5f819050919050565b61075383610720565b61076761075f82610741565b8484546106bd565b825550505050565b5f90565b61077b61076f565b61078681848461074a565b505050565b5b818110156107a95761079e5f82610773565b60018101905061078c565b5050565b601f8211156107ee576107bf81610690565b6107c8846106a2565b810160208510156107d7578190505b6107eb6107e3856106a2565b83018261078b565b50505b505050565b5f82821c905092915050565b5f61080e5f19846008026107f3565b1980831691505092915050565b5f61082683836107ff565b9150826002028217905092915050565b61083f82610629565b67ffffffffffffffff8111156108585761085761040f565b5b6108628254610660565b61086d8282856107ad565b5f60209050601f83116001811461089e575f841561088c578287015190505b610896858261081b565b8655506108fd565b601f1984166108ac86610690565b5f5b828110156108d3578489015182556001820191506020850194506020810190506108ae565b868310156108f057848901516108ec601f8916826107ff565b8355505b6001600288020188555050505b505050505050565b608051612b3a61092b5f395f81816117260152818161177b01526119580152612b3a5ff3fe6080604052600436106101ed575f3560e01c806370a082311161010c578063a9059cbb1161009f578063dd62ed3e1161006e578063dd62ed3e146106c1578063e63ab1e9146106fd578063ebdf690f14610727578063f72c0d8b14610751578063fd99b9221461077b576101ed565b8063a9059cbb14610609578063ad3cb1cc14610645578063d53913931461066f578063d547741f14610699576101ed565b806391d14854116100db57806391d148541461055157806395d89b411461058d578063a217fddf146105b7578063a65948a3146105e1576101ed565b806370a08231146104ad57806379cc6790146104e9578063803db96d146105115780638456cb591461053b576101ed565b8063313ce5671161018457806348a490fb1161015357806348a490fb146104155780634f1ef2861461043d57806352d1902d146104595780635c975abb14610483576101ed565b8063313ce5671461038557806336568abe146103af5780633f4ba83a146103d757806342966c68146103ed576101ed565b806318160ddd116101c057806318160ddd146102bb57806323b872dd146102e5578063248a9ca3146103215780632f2ff15d1461035d576101ed565b806301ffc9a7146101f157806306fdde031461022d578063095ea7b3146102575780630c5a61f814610293575b5f80fd5b3480156101fc575f80fd5b50610217600480360381019061021291906122d1565b6107a3565b6040516102249190612316565b60405180910390f35b348015610238575f80fd5b5061024161081c565b60405161024e919061239f565b60405180910390f35b348015610262575f80fd5b5061027d6004803603810190610278919061244c565b6108ac565b60405161028a9190612316565b60405180910390f35b34801561029e575f80fd5b506102b960048036038101906102b4919061248a565b6108ce565b005b3480156102c6575f80fd5b506102cf6109c7565b6040516102dc91906124c4565b60405180910390f35b3480156102f0575f80fd5b5061030b600480360381019061030691906124dd565b6109d0565b6040516103189190612316565b60405180910390f35b34801561032c575f80fd5b5061034760048036038101906103429190612560565b6109fe565b604051610354919061259a565b60405180910390f35b348015610368575f80fd5b50610383600480360381019061037e91906125b3565b610a1b565b005b348015610390575f80fd5b50610399610a3d565b6040516103a6919061260c565b60405180910390f35b3480156103ba575f80fd5b506103d560048036038101906103d091906125b3565b610a45565b005b3480156103e2575f80fd5b506103eb610ac0565b005b3480156103f8575f80fd5b50610413600480360381019061040e9190612625565b610af5565b005b348015610420575f80fd5b5061043b6004803603810190610436919061244c565b610b09565b005b6104576004803603810190610452919061277c565b610ca0565b005b348015610464575f80fd5b5061046d610cbf565b60405161047a919061259a565b60405180910390f35b34801561048e575f80fd5b50610497610cf0565b6040516104a49190612316565b60405180910390f35b3480156104b8575f80fd5b506104d360048036038101906104ce919061248a565b610d05565b6040516104e091906124c4565b60405180910390f35b3480156104f4575f80fd5b5061050f600480360381019061050a919061244c565b610d4a565b005b34801561051c575f80fd5b50610525610d6a565b60405161053291906127e5565b60405180910390f35b348015610546575f80fd5b5061054f610d90565b005b34801561055c575f80fd5b50610577600480360381019061057291906125b3565b610dc5565b6040516105849190612316565b60405180910390f35b348015610598575f80fd5b506105a1610e29565b6040516105ae919061239f565b60405180910390f35b3480156105c2575f80fd5b506105cb610eb9565b6040516105d8919061259a565b60405180910390f35b3480156105ec575f80fd5b5061060760048036038101906106029190612625565b610ebf565b005b348015610614575f80fd5b5061062f600480360381019061062a919061244c565b610f5d565b60405161063c9190612316565b60405180910390f35b348015610650575f80fd5b50610659610f7f565b604051610666919061239f565b60405180910390f35b34801561067a575f80fd5b50610683610fb8565b604051610690919061259a565b60405180910390f35b3480156106a4575f80fd5b506106bf60048036038101906106ba91906125b3565b610fdc565b005b3480156106cc575f80fd5b506106e760048036038101906106e291906127fe565b610ffe565b6040516106f491906124c4565b60405180910390f35b348015610708575f80fd5b50610711611080565b60405161071e919061259a565b60405180910390f35b348015610732575f80fd5b5061073b6110a4565b604051610748919061259a565b60405180910390f35b34801561075c575f80fd5b506107656110c8565b604051610772919061259a565b60405180910390f35b348015610786575f80fd5b506107a1600480360381019061079c9190612899565b6110ec565b005b5f7f7965db0b000000000000000000000000000000000000000000000000000000007bffffffffffffffffffffffffffffffffffffffffffffffffffffffff1916827bffffffffffffffffffffffffffffffffffffffffffffffffffffffff19161480610815575061081482611216565b5b9050919050565b60606003805461082b90612923565b80601f016020809104026020016040519081016040528092919081815260200182805461085790612923565b80156108a25780601f10610879576101008083540402835291602001916108a2565b820191905f5260205f20905b81548152906001019060200180831161088557829003601f168201915b5050505050905090565b5f806108b661127f565b90506108c3818585611286565b600191505092915050565b5f801b6108da81611298565b5f73ffffffffffffffffffffffffffffffffffffffff168273ffffffffffffffffffffffffffffffffffffffff160361093f576040517fd92e233d00000000000000000000000000000000000000000000000000000000815260040160405180910390fd5b81600660016101000a81548173ffffffffffffffffffffffffffffffffffffffff021916908373ffffffffffffffffffffffffffffffffffffffff1602179055508173ffffffffffffffffffffffffffffffffffffffff167f48919a8bb9d5ad92fa352adb62046eaabb006b67ba2fcf7566ed0879ab5a27c360405160405180910390a25050565b5f600254905090565b5f806109da61127f565b90506109e78582856112ac565b6109f285858561133f565b60019150509392505050565b5f60055f8381526020019081526020015f20600101549050919050565b610a24826109fe565b610a2d81611298565b610a37838361142f565b50505050565b5f6003905090565b610a4d61127f565b73ffffffffffffffffffffffffffffffffffffffff168173ffffffffffffffffffffffffffffffffffffffff1614610ab1576040517f6697b23200000000000000000000000000000000000000000000000000000000815260040160405180910390fd5b610abb8282611519565b505050565b7f65d7a28e3265b37a6474929f336521b332c1681b933f6cb9f3376673440d862a610aea81611298565b610af2611603565b50565b610b06610b0061127f565b82611664565b50565b610b116116e3565b610b427fede9dcdb0ce99dc7cec9c7be9246ad08b37853683ad91569c187b647ddf5e21c610b3d61127f565b610dc5565b610b78576040517f9a03048300000000000000000000000000000000000000000000000000000000815260040160405180910390fd5b5f73ffffffffffffffffffffffffffffffffffffffff168273ffffffffffffffffffffffffffffffffffffffff1603610bdd576040517fd92e233d00000000000000000000000000000000000000000000000000000000815260040160405180910390fd5b5f8103610c2157806040517f3728b83d000000000000000000000000000000000000000000000000000000008152600401610c1891906124c4565b60405180910390fd5b610c4e600660019054906101000a900473ffffffffffffffffffffffffffffffffffffffff16838361133f565b8173ffffffffffffffffffffffffffffffffffffffff167f0e0155fc4999bbb125969d44fd6a09db6b8682e20c096fe64f43c010ec14e1be82604051610c9491906124c4565b60405180910390a25050565b610ca8611724565b610cb18261180a565b610cbb8282611838565b5050565b5f610cc8611956565b7f360894a13ba1a3210667c828492db98dca3e2076cc3735a920a3ca505d382bbc5f1b905090565b5f60065f9054906101000a900460ff16905090565b5f805f8373ffffffffffffffffffffffffffffffffffffffff1673ffffffffffffffffffffffffffffffffffffffff1681526020019081526020015f20549050919050565b610d5c82610d5661127f565b836112ac565b610d668282611664565b5050565b600660019054906101000a900473ffffffffffffffffffffffffffffffffffffffff1681565b7f65d7a28e3265b37a6474929f336521b332c1681b933f6cb9f3376673440d862a610dba81611298565b610dc26119dd565b50565b5f60055f8481526020019081526020015f205f015f8373ffffffffffffffffffffffffffffffffffffffff1673ffffffffffffffffffffffffffffffffffffffff1681526020019081526020015f205f9054906101000a900460ff16905092915050565b606060048054610e3890612923565b80601f0160208091040260200160405190810160405280929190818152602001828054610e6490612923565b8015610eaf5780601f10610e8657610100808354040283529160200191610eaf565b820191905f5260205f20905b815481529060010190602001808311610e9257829003601f168201915b5050505050905090565b5f801b81565b610ec76116e3565b610ef87f9f2df0fed2c77648de5860a4cc508cd0818c85b8b8a1ab4ceeef8d981c8956a6610ef361127f565b610dc5565b610f2e576040517f5eee367a00000000000000000000000000000000000000000000000000000000815260040160405180910390fd5b610f5a600660019054906101000a900473ffffffffffffffffffffffffffffffffffffffff1682611a3f565b50565b5f80610f6761127f565b9050610f7481858561133f565b600191505092915050565b6040518060400160405280600581526020017f352e302e3000000000000000000000000000000000000000000000000000000081525081565b7f9f2df0fed2c77648de5860a4cc508cd0818c85b8b8a1ab4ceeef8d981c8956a681565b610fe5826109fe565b610fee81611298565b610ff88383611519565b50505050565b5f60015f8473ffffffffffffffffffffffffffffffffffffffff1673ffffffffffffffffffffffffffffffffffffffff1681526020019081526020015f205f8373ffffffffffffffffffffffffffffffffffffffff1673ffffffffffffffffffffffffffffffffffffffff1681526020019081526020015f2054905092915050565b7f65d7a28e3265b37a6474929f336521b332c1681b933f6cb9f3376673440d862a81565b7fede9dcdb0ce99dc7cec9c7be9246ad08b37853683ad91569c187b647ddf5e21c81565b7f189ab7a9244df0848122154315af71fe140f3db0fe014031783b0946b8c9d2e381565b6110f46116e3565b6111257fede9dcdb0ce99dc7cec9c7be9246ad08b37853683ad91569c187b647ddf5e21c61112061127f565b610dc5565b61115b576040517f9a03048300000000000000000000000000000000000000000000000000000000815260040160405180910390fd5b5f830361119f57826040517f3728b83d00000000000000000000000000000000000000000000000000000000815260040161119691906124c4565b60405180910390fd5b6111cc600660019054906101000a900473ffffffffffffffffffffffffffffffffffffffff16308561133f565b6111d63084611664565b7f74866c3dadb39b6f358b192f40eca4a6ffef6e13b51dceb59b483ed56a01731d8383836040516112099392919061297f565b60405180910390a1505050565b5f7f01ffc9a7000000000000000000000000000000000000000000000000000000007bffffffffffffffffffffffffffffffffffffffffffffffffffffffff1916827bffffffffffffffffffffffffffffffffffffffffffffffffffffffff1916149050919050565b5f33905090565b6112938383836001611abe565b505050565b6112a9816112a461127f565b611c8d565b50565b5f6112b78484610ffe565b90507fffffffffffffffffffffffffffffffffffffffffffffffffffffffffffffffff811015611339578181101561132a578281836040517ffb8f41b2000000000000000000000000000000000000000000000000000000008152600401611321939291906129af565b60405180910390fd5b61133884848484035f611abe565b5b50505050565b5f73ffffffffffffffffffffffffffffffffffffffff168373ffffffffffffffffffffffffffffffffffffffff16036113af575f6040517f96c6fd1e0000000000000000000000000000000000000000000000000000000081526004016113a691906127e5565b60405180910390fd5b5f73ffffffffffffffffffffffffffffffffffffffff168273ffffffffffffffffffffffffffffffffffffffff160361141f575f6040517fec442f0500000000000000000000000000000000000000000000000000000000815260040161141691906127e5565b60405180910390fd5b61142a838383611cde565b505050565b5f61143a8383610dc5565b61150f57600160055f8581526020019081526020015f205f015f8473ffffffffffffffffffffffffffffffffffffffff1673ffffffffffffffffffffffffffffffffffffffff1681526020019081526020015f205f6101000a81548160ff0219169083151502179055506114ac61127f565b73ffffffffffffffffffffffffffffffffffffffff168273ffffffffffffffffffffffffffffffffffffffff16847f2f8788117e7eff1d82e926ec794901d17c78024a50270940304540a733656f0d60405160405180910390a460019050611513565b5f90505b92915050565b5f6115248383610dc5565b156115f9575f60055f8581526020019081526020015f205f015f8473ffffffffffffffffffffffffffffffffffffffff1673ffffffffffffffffffffffffffffffffffffffff1681526020019081526020015f205f6101000a81548160ff02191690831515021790555061159661127f565b73ffffffffffffffffffffffffffffffffffffffff168273ffffffffffffffffffffffffffffffffffffffff16847ff6391f5c32d9c69d2a47ea670b442974b53935d1edc7fd64eb21e047a839171b60405160405180910390a4600190506115fd565b5f90505b92915050565b61160b611cee565b5f60065f6101000a81548160ff0219169083151502179055507f5db9ee0a495bf2e6ff9c91a7834c1ba4fdd244a5e8aa4e537bd38aeae4b073aa61164d61127f565b60405161165a91906127e5565b60405180910390a1565b5f73ffffffffffffffffffffffffffffffffffffffff168273ffffffffffffffffffffffffffffffffffffffff16036116d4575f6040517f96c6fd1e0000000000000000000000000000000000000000000000000000000081526004016116cb91906127e5565b60405180910390fd5b6116df825f83611cde565b5050565b6116eb610cf0565b15611722576040517fd93c066500000000000000000000000000000000000000000000000000000000815260040160405180910390fd5b565b7f000000000000000000000000000000000000000000000000000000000000000073ffffffffffffffffffffffffffffffffffffffff163073ffffffffffffffffffffffffffffffffffffffff1614806117d157507f000000000000000000000000000000000000000000000000000000000000000073ffffffffffffffffffffffffffffffffffffffff166117b8611d2e565b73ffffffffffffffffffffffffffffffffffffffff1614155b15611808576040517fe07c8dba00000000000000000000000000000000000000000000000000000000815260040160405180910390fd5b565b7f189ab7a9244df0848122154315af71fe140f3db0fe014031783b0946b8c9d2e361183481611298565b5050565b8173ffffffffffffffffffffffffffffffffffffffff166352d1902d6040518163ffffffff1660e01b8152600401602060405180830381865afa9250505080156118a057506040513d601f19601f8201168201806040525081019061189d91906129f8565b60015b6118e157816040517f4c9c8ce30000000000000000000000000000000000000000000000000000000081526004016118d891906127e5565b60405180910390fd5b7f360894a13ba1a3210667c828492db98dca3e2076cc3735a920a3ca505d382bbc5f1b811461194757806040517faa1d49a400000000000000000000000000000000000000000000000000000000815260040161193e919061259a565b60405180910390fd5b6119518383611d81565b505050565b7f000000000000000000000000000000000000000000000000000000000000000073ffffffffffffffffffffffffffffffffffffffff163073ffffffffffffffffffffffffffffffffffffffff16146119db576040517fe07c8dba00000000000000000000000000000000000000000000000000000000815260040160405180910390fd5b565b6119e56116e3565b600160065f6101000a81548160ff0219169083151502179055507f62e78cea01bee320cd4e420270b5ea74000d11b0c9f74754ebdbfc544b05a258611a2861127f565b604051611a3591906127e5565b60405180910390a1565b5f73ffffffffffffffffffffffffffffffffffffffff168273ffffffffffffffffffffffffffffffffffffffff1603611aaf575f6040517fec442f05000000000000000000000000000000000000000000000000000000008152600401611aa691906127e5565b60405180910390fd5b611aba5f8383611cde565b5050565b5f73ffffffffffffffffffffffffffffffffffffffff168473ffffffffffffffffffffffffffffffffffffffff1603611b2e575f6040517fe602df05000000000000000000000000000000000000000000000000000000008152600401611b2591906127e5565b60405180910390fd5b5f73ffffffffffffffffffffffffffffffffffffffff168373ffffffffffffffffffffffffffffffffffffffff1603611b9e575f6040517f94280d62000000000000000000000000000000000000000000000000000000008152600401611b9591906127e5565b60405180910390fd5b8160015f8673ffffffffffffffffffffffffffffffffffffffff1673ffffffffffffffffffffffffffffffffffffffff1681526020019081526020015f205f8573ffffffffffffffffffffffffffffffffffffffff1673ffffffffffffffffffffffffffffffffffffffff1681526020019081526020015f20819055508015611c87578273ffffffffffffffffffffffffffffffffffffffff168473ffffffffffffffffffffffffffffffffffffffff167f8c5be1e5ebec7d5bd14f71427d1e84f3dd0314c0f7b2291e5b200ac8c7c3b92584604051611c7e91906124c4565b60405180910390a35b50505050565b611c978282610dc5565b611cda5780826040517fe2517d3f000000000000000000000000000000000000000000000000000000008152600401611cd1929190612a23565b60405180910390fd5b5050565b611ce9838383611df3565b505050565b611cf6610cf0565b611d2c576040517f8dfc202b00000000000000000000000000000000000000000000000000000000815260040160405180910390fd5b565b5f611d5a7f360894a13ba1a3210667c828492db98dca3e2076cc3735a920a3ca505d382bbc5f1b61200c565b5f015f9054906101000a900473ffffffffffffffffffffffffffffffffffffffff16905090565b611d8a82612015565b8173ffffffffffffffffffffffffffffffffffffffff167fbc7cd75a20ee27fd9adebab32041f755214dbc6bffa90cc0225b39da2e5c2d3b60405160405180910390a25f81511115611de657611de082826120de565b50611def565b611dee61215e565b5b5050565b5f73ffffffffffffffffffffffffffffffffffffffff168373ffffffffffffffffffffffffffffffffffffffff1603611e43578060025f828254611e379190612a77565b92505081905550611f11565b5f805f8573ffffffffffffffffffffffffffffffffffffffff1673ffffffffffffffffffffffffffffffffffffffff1681526020019081526020015f2054905081811015611ecc578381836040517fe450d38c000000000000000000000000000000000000000000000000000000008152600401611ec3939291906129af565b60405180910390fd5b8181035f808673ffffffffffffffffffffffffffffffffffffffff1673ffffffffffffffffffffffffffffffffffffffff1681526020019081526020015f2081905550505b5f73ffffffffffffffffffffffffffffffffffffffff168273ffffffffffffffffffffffffffffffffffffffff1603611f58578060025f8282540392505081905550611fa2565b805f808473ffffffffffffffffffffffffffffffffffffffff1673ffffffffffffffffffffffffffffffffffffffff1681526020019081526020015f205f82825401925050819055505b8173ffffffffffffffffffffffffffffffffffffffff168373ffffffffffffffffffffffffffffffffffffffff167fddf252ad1be2c89b69c2b068fc378daa952ba7f163c4a11628f55a4df523b3ef83604051611fff91906124c4565b60405180910390a3505050565b5f819050919050565b5f8173ffffffffffffffffffffffffffffffffffffffff163b0361207057806040517f4c9c8ce300000000000000000000000000000000000000000000000000000000815260040161206791906127e5565b60405180910390fd5b8061209c7f360894a13ba1a3210667c828492db98dca3e2076cc3735a920a3ca505d382bbc5f1b61200c565b5f015f6101000a81548173ffffffffffffffffffffffffffffffffffffffff021916908373ffffffffffffffffffffffffffffffffffffffff16021790555050565b60605f808473ffffffffffffffffffffffffffffffffffffffff16846040516121079190612aee565b5f60405180830381855af49150503d805f811461213f576040519150601f19603f3d011682016040523d82523d5f602084013e612144565b606091505b509150915061215485838361219a565b9250505092915050565b5f341115612198576040517fb398979f00000000000000000000000000000000000000000000000000000000815260040160405180910390fd5b565b6060826121af576121aa82612227565b61221f565b5f82511480156121d557505f8473ffffffffffffffffffffffffffffffffffffffff163b145b1561221757836040517f9996b31500000000000000000000000000000000000000000000000000000000815260040161220e91906127e5565b60405180910390fd5b819050612220565b5b9392505050565b5f815111156122395780518082602001fd5b6040517fd6bda27500000000000000000000000000000000000000000000000000000000815260040160405180910390fd5b5f604051905090565b5f80fd5b5f80fd5b5f7fffffffff0000000000000000000000000000000000000000000000000000000082169050919050565b6122b08161227c565b81146122ba575f80fd5b50565b5f813590506122cb816122a7565b92915050565b5f602082840312156122e6576122e5612274565b5b5f6122f3848285016122bd565b91505092915050565b5f8115159050919050565b612310816122fc565b82525050565b5f6020820190506123295f830184612307565b92915050565b5f81519050919050565b5f82825260208201905092915050565b8281835e5f83830152505050565b5f601f19601f8301169050919050565b5f6123718261232f565b61237b8185612339565b935061238b818560208601612349565b61239481612357565b840191505092915050565b5f6020820190508181035f8301526123b78184612367565b905092915050565b5f73ffffffffffffffffffffffffffffffffffffffff82169050919050565b5f6123e8826123bf565b9050919050565b6123f8816123de565b8114612402575f80fd5b50565b5f81359050612413816123ef565b92915050565b5f819050919050565b61242b81612419565b8114612435575f80fd5b50565b5f8135905061244681612422565b92915050565b5f806040838503121561246257612461612274565b5b5f61246f85828601612405565b925050602061248085828601612438565b9150509250929050565b5f6020828403121561249f5761249e612274565b5b5f6124ac84828501612405565b91505092915050565b6124be81612419565b82525050565b5f6020820190506124d75f8301846124b5565b92915050565b5f805f606084860312156124f4576124f3612274565b5b5f61250186828701612405565b935050602061251286828701612405565b925050604061252386828701612438565b9150509250925092565b5f819050919050565b61253f8161252d565b8114612549575f80fd5b50565b5f8135905061255a81612536565b92915050565b5f6020828403121561257557612574612274565b5b5f6125828482850161254c565b91505092915050565b6125948161252d565b82525050565b5f6020820190506125ad5f83018461258b565b92915050565b5f80604083850312156125c9576125c8612274565b5b5f6125d68582860161254c565b92505060206125e785828601612405565b9150509250929050565b5f60ff82169050919050565b612606816125f1565b82525050565b5f60208201905061261f5f8301846125fd565b92915050565b5f6020828403121561263a57612639612274565b5b5f61264784828501612438565b91505092915050565b5f80fd5b5f80fd5b7f4e487b71000000000000000000000000000000000000000000000000000000005f52604160045260245ffd5b61268e82612357565b810181811067ffffffffffffffff821117156126ad576126ac612658565b5b80604052505050565b5f6126bf61226b565b90506126cb8282612685565b919050565b5f67ffffffffffffffff8211156126ea576126e9612658565b5b6126f382612357565b9050602081019050919050565b828183375f83830152505050565b5f61272061271b846126d0565b6126b6565b90508281526020810184848401111561273c5761273b612654565b5b612747848285612700565b509392505050565b5f82601f83011261276357612762612650565b5b813561277384826020860161270e565b91505092915050565b5f806040838503121561279257612791612274565b5b5f61279f85828601612405565b925050602083013567ffffffffffffffff8111156127c0576127bf612278565b5b6127cc8582860161274f565b9150509250929050565b6127df816123de565b82525050565b5f6020820190506127f85f8301846127d6565b92915050565b5f806040838503121561281457612813612274565b5b5f61282185828601612405565b925050602061283285828601612405565b9150509250929050565b5f80fd5b5f80fd5b5f8083601f84011261285957612858612650565b5b8235905067ffffffffffffffff8111156128765761287561283c565b5b60208301915083600182028301111561289257612891612840565b5b9250929050565b5f805f604084860312156128b0576128af612274565b5b5f6128bd86828701612438565b935050602084013567ffffffffffffffff8111156128de576128dd612278565b5b6128ea86828701612844565b92509250509250925092565b7f4e487b71000000000000000000000000000000000000000000000000000000005f52602260045260245ffd5b5f600282049050600182168061293a57607f821691505b60208210810361294d5761294c6128f6565b5b50919050565b5f61295e8385612339565b935061296b838584612700565b61297483612357565b840190509392505050565b5f6040820190506129925f8301866124b5565b81810360208301526129a5818486612953565b9050949350505050565b5f6060820190506129c25f8301866127d6565b6129cf60208301856124b5565b6129dc60408301846124b5565b949350505050565b5f815190506129f281612536565b92915050565b5f60208284031215612a0d57612a0c612274565b5b5f612a1a848285016129e4565b91505092915050565b5f604082019050612a365f8301856127d6565b612a43602083018461258b565b9392505050565b7f4e487b71000000000000000000000000000000000000000000000000000000005f52601160045260245ffd5b5f612a8182612419565b9150612a8c83612419565b9250828201905080821115612aa457612aa3612a4a565b5b92915050565b5f81519050919050565b5f81905092915050565b5f612ac882612aaa565b612ad28185612ab4565b9350612ae2818560208601612349565b80840191505092915050565b5f612af98284612abe565b91508190509291505056fea264697066735822122076aa18ca946085e479d389f12bd101e5692ed7adecde29d78ccd9d09c7ac115a64736f6c634300081a0033","linkReferences":{}},"methodIdentifiers":{"DEFAULT_ADMIN_ROLE()":"a217fddf","MINTER_ROLE()":"d5391393","PAUSER_ROLE()":"e63ab1e9","TREASURY_MANAGER_ROLE()":"ebdf690f","UPGRADER_ROLE()":"f72c0d8b","UPGRADE_INTERFACE_VERSION()":"ad3cb1cc","allowance(address,address)":"dd62ed3e","approve(address,uint256)":"095ea7b3","balanceOf(address)":"70a08231","burn(uint256)":"42966c68","burnFrom(address,uint256)":"79cc6790","decimals()":"313ce567","getRoleAdmin(bytes32)":"248a9ca3","grantRole(bytes32,address)":"2f2ff15d","hasRole(bytes32,address)":"91d14854","mintToTreasury(uint256)":"a65948a3","name()":"06fdde03","pause()":"8456cb59","paused()":"5c975abb","protocolTreasury()":"803db96d","proxiableUUID()":"52d1902d","renounceRole(bytes32,address)":"36568abe","retireFromTreasury(uint256,string)":"fd99b922","revokeRole(bytes32,address)":"d547741f","setProtocolTreasury(address)":"0c5a61f8","supportsInterface(bytes4)":"01ffc9a7","symbol()":"95d89b41","totalSupply()":"18160ddd","transfer(address,uint256)":"a9059cbb","transferFrom(address,address,uint256)":"23b872dd","transferFromTreasury(address,uint256)":"48a490fb","unpause()":"3f4ba83a","upgradeToAndCall(address,bytes)":"4f1ef286"},"id":31}