{
  "abi": [
    {
      "type": "constructor",
      "inputs": [
        {
          "name": "name",
          "type": "string",
          "internalType": "string"
        },
        {
          "name": "symbol",
          "type": "string",
          "internalType": "string"
        },
        {
          "name": "_initialAdmin",
          "type": "address",
          "internalType": "address"
        },
        {
          "name": "_protocolTreasury",
          "type": "address",
          "internalType": "address"
        }
      ],
      "stateMutability": "nonpayable"
    },
    {
      "type": "function",
      "name": "DEFAULT_ADMIN_ROLE",
      "inputs": [],
      "outputs": [
        {
          "name": "",
          "type": "bytes32",
          "internalType": "bytes32"
        }
      ],
      "stateMutability": "view"
    },
    {
      "type": "function",
      "name": "MINTER_ROLE",
      "inputs": [],
      "outputs": [
        {
          "name": "",
          "type": "bytes32",
          "internalType": "bytes32"
        }
      ],
      "stateMutability": "view"
    },
    {
      "type": "function",
      "name": "PAUSER_ROLE",
      "inputs": [],
      "outputs": [
        {
          "name": "",
          "type": "bytes32",
          "internalType": "bytes32"
        }
      ],
      "stateMutability": "view"
    },
    {
      "type": "function",
      "name": "TREASURY_MANAGER_ROLE",
      "inputs": [],
      "outputs": [
        {
          "name": "",
          "type": "bytes32",
          "internalType": "bytes32"
        }
      ],
      "stateMutability": "view"
    },
    {
      "type": "function",
      "name": "UPGRADER_ROLE",
      "inputs": [],
      "outputs": [
        {
          "name": "",
          "type": "bytes32",
          "internalType": "bytes32"
        }
      ],
      "stateMutability": "view"
    },
    {
      "type": "function",
      "name": "UPGRADE_INTERFACE_VERSION",
      "inputs": [],
      "outputs": [
        {
          "name": "",
          "type": "string",
          "internalType": "string"
        }
      ],
      "stateMutability": "view"
    },
    {
      "type": "function",
      "name": "allowance",
      "inputs": [
        {
          "name": "owner",
          "type": "address",
          "internalType": "address"
        },
        {
          "name": "spender",
          "type": "address",
          "internalType": "address"
        }
      ],
      "outputs": [
        {
          "name": "",
          "type": "uint256",
          "internalType": "uint256"
        }
      ],
      "stateMutability": "view"
    },
    {
      "type": "function",
      "name": "approve",
      "inputs": [
        {
          "name": "spender",
          "type": "address",
          "internalType": "address"
        },
        {
          "name": "value",
          "type": "uint256",
          "internalType": "uint256"
        }
      ],
      "outputs": [
        {
          "name": "",
          "type": "bool",
          "internalType": "bool"
        }
      ],
      "stateMutability": "nonpayable"
    },
    {
      "type": "function",
      "name": "balanceOf",
      "inputs": [
        {
          "name": "account",
          "type": "address",
          "internalType": "address"
        }
      ],
      "outputs": [
        {
          "name": "",
          "type": "uint256",
          "internalType": "uint256"
        }
      ],
      "stateMutability": "view"
    },
    {
      "type": "function",
      "name": "burn",
      "inputs": [
        {
          "name": "value",
          "type": "uint256",
          "internalType": "uint256"
        }
      ],
      "outputs": [],
      "stateMutability": "nonpayable"
    },
    {
      "type": "function",
      "name": "burnFrom",
      "inputs": [
        {
          "name": "account",
          "type": "address",
          "internalType": "address"
        },
        {
          "name": "value",
          "type": "uint256",
          "internalType": "uint256"
        }
      ],
      "outputs": [],
      "stateMutability": "nonpayable"
    },
    {
      "type": "function",
      "name": "decimals",
      "inputs": [],
      "outputs": [
        {
          "name": "",
          "type": "uint8",
          "internalType": "uint8"
        }
      ],
      "stateMutability": "pure"
    },
    {
      "type": "function",
      "name": "getRoleAdmin",
      "inputs": [
        {
          "name": "role",
          "type": "bytes32",
          "internalType": "bytes32"
        }
      ],
      "outputs": [
        {
          "name": "",
          "type": "bytes32",
          "internalType": "bytes32"
        }
      ],
      "stateMutability": "view"
    },
    {
      "type": "function",
      "name": "grantRole",
      "inputs": [
        {
          "name": "role",
          "type": "bytes32",
          "internalType": "bytes32"
        },
        {
          "name": "account",
          "type": "address",
          "internalType": "address"
        }
      ],
      "outputs": [],
      "stateMutability": "nonpayable"
    },
    {
      "type": "function",
      "name": "hasRole",
      "inputs": [
        {
          "name": "role",
          "type": "bytes32",
          "internalType": "bytes32"
        },
        {
          "name": "account",
          "type": "address",
          "internalType": "address"
        }
      ],
      "outputs": [
        {
          "name": "",
          "type": "bool",
          "internalType": "bool"
        }
      ],
      "stateMutability": "view"
    },
    {
      "type": "function",
      "name": "mint",
      "inputs": [
        {
          "name": "to",
          "type": "address",
          "internalType": "address"
        },
        {
          "name": "amount",
          "type": "uint256",
          "internalType": "uint256"
        }
      ],
      "outputs": [],
      "stateMutability": "nonpayable"
    },
    {
      "type": "function",
      "name": "mintToTreasury",
      "inputs": [
        {
          "name": "amount",
          "type": "uint256",
          "internalType": "uint256"
        }
      ],
      "outputs": [],
      "stateMutability": "nonpayable"
    },
    {
      "type": "function",
      "name": "name",
      "inputs": [],
      "outputs": [
        {
          "name": "",
          "type": "string",
          "internalType": "string"
        }
      ],
      "stateMutability": "view"
    },
    {
      "type": "function",
      "name": "pause",
      "inputs": [],
      "outputs": [],
      "stateMutability": "nonpayable"
    },
    {
      "type": "function",
      "name": "paused",
      "inputs": [],
      "outputs": [
        {
          "name": "",
          "type": "bool",
          "internalType": "bool"
        }
      ],
      "stateMutability": "view"
    },
    {
      "type": "function",
      "name": "protocolTreasury",
      "inputs": [],
      "outputs": [
        {
          "name": "",
          "type": "address",
          "internalType": "address"
        }
      ],
      "stateMutability": "view"
    },
    {
      "type": "function",
      "name": "proxiableUUID",
      "inputs": [],
      "outputs": [
        {
          "name": "",
          "type": "bytes32",
          "internalType": "bytes32"
        }
      ],
      "stateMutability": "view"
    },
    {
      "type": "function",
      "name": "renounceRole",
      "inputs": [
        {
          "name": "role",
          "type": "bytes32",
          "internalType": "bytes32"
        },
        {
          "name": "callerConfirmation",
          "type": "address",
          "internalType": "address"
        }
      ],
      "outputs": [],
      "stateMutability": "nonpayable"
    },
    {
      "type": "function",
      "name": "retireFromTreasury",
      "inputs": [
        {
          "name": "amount",
          "type": "uint256",
          "internalType": "uint256"
        },
        {
          "name": "reason",
          "type": "string",
          "internalType": "string"
        }
      ],
      "outputs": [],
      "stateMutability": "nonpayable"
    },
    {
      "type": "function",
      "name": "revokeRole",
      "inputs": [
        {
          "name": "role",
          "type": "bytes32",
          "internalType": "bytes32"
        },
        {
          "name": "account",
          "type": "address",
          "internalType": "address"
        }
      ],
      "outputs": [],
      "stateMutability": "nonpayable"
    },
    {
      "type": "function",
      "name": "setProtocolTreasury",
      "inputs": [
        {
          "name": "_newTreasury",
          "type": "address",
          "internalType": "address"
        }
      ],
      "outputs": [],
      "stateMutability": "nonpayable"
    },
    {
      "type": "function",
      "name": "supportsInterface",
      "inputs": [
        {
          "name": "interfaceId",
          "type": "bytes4",
          "internalType": "bytes4"
        }
      ],
      "outputs": [
        {
          "name": "",
          "type": "bool",
          "internalType": "bool"
        }
      ],
      "stateMutability": "view"
    },
    {
      "type": "function",
      "name": "symbol",
      "inputs": [],
      "outputs": [
        {
          "name": "",
          "type": "string",
          "internalType": "string"
        }
      ],
      "stateMutability": "view"
    },
    {
      "type": "function",
      "name": "totalSupply",
      "inputs": [],
      "outputs": [
        {
          "name": "",
          "type": "uint256",
          "internalType": "uint256"
        }
      ],
      "stateMutability": "view"
    },
    {
      "type": "function",
      "name": "transfer",
      "inputs": [
        {
          "name": "to",
          "type": "address",
          "internalType": "address"
        },
        {
          "name": "value",
          "type": "uint256",
          "internalType": "uint256"
        }
      ],
      "outputs": [
        {
          "name": "",
          "type": "bool",
          "internalType": "bool"
        }
      ],
      "stateMutability": "nonpayable"
    },
    {
      "type": "function",
      "name": "transferFrom",
      "inputs": [
        {
          "name": "from",
          "type": "address",
          "internalType": "address"
        },
        {
          "name": "to",
          "type": "address",
          "internalType": "address"
        },
        {
          "name": "value",
          "type": "uint256",
          "internalType": "uint256"
        }
      ],
      "outputs": [
        {
          "name": "",
          "type": "bool",
          "internalType": "bool"
        }
      ],
      "stateMutability": "nonpayable"
    },
    {
      "type": "function",
      "name": "transferFromTreasury",
      "inputs": [
        {
          "name": "to",
          "type": "address",
          "internalType": "address"
        },
        {
          "name": "amount",
          "type": "uint256",
          "internalType": "uint256"
        }
      ],
      "outputs": [],
      "stateMutability": "nonpayable"
    },
    {
      "type": "function",
      "name": "unpause",
      "inputs": [],
      "outputs": [],
      "stateMutability": "nonpayable"
    },
    {
      "type": "function",
      "name": "upgradeToAndCall",
      "inputs": [
        {
          "name": "newImplementation",
          "type": "address",
          "internalType": "address"
        },
        {
          "name": "data",
          "type": "bytes",
          "internalType": "bytes"
        }
      ],
      "outputs": [],
      "stateMutability": "payable"
    },
    {
      "type": "event",
      "name": "Approval",
      "inputs": [
        {
          "name": "owner",
          "type": "address",
          "indexed": true,
          "internalType": "address"
        },
        {
          "name": "spender",
          "type": "address",
          "indexed": true,
          "internalType": "address"
        },
        {
          "name": "value",
          "type": "uint256",
          "indexed": false,
          "internalType": "uint256"
        }
      ],
      "anonymous": false
    },
    {
      "type": "event",
      "name": "Paused",
      "inputs": [
        {
          "name": "account",
          "type": "address",
          "indexed": false,
          "internalType": "address"
        }
      ],
      "anonymous": false
    },
    {
      "type": "event",
      "name": "ProtocolTreasuryChanged",
      "inputs": [
        {
          "name": "newTreasury",
          "type": "address",
          "indexed": true,
          "internalType": "address"
        }
      ],
      "anonymous": false
    },
    {
      "type": "event",
      "name": "RoleAdminChanged",
      "inputs": [
        {
          "name": "role",
          "type": "bytes32",
          "indexed": true,
          "internalType": "bytes32"
        },
        {
          "name": "previousAdminRole",
          "type": "bytes32",
          "indexed": true,
          "internalType": "bytes32"
        },
        {
          "name": "newAdminRole",
          "type": "bytes32",
          "indexed": true,
          "internalType": "bytes32"
        }
      ],
      "anonymous": false
    },
    {
      "type": "event",
      "name": "RoleGranted",
      "inputs": [
        {
          "name": "role",
          "type": "bytes32",
          "indexed": true,
          "internalType": "bytes32"
        },
        {
          "name": "account",
          "type": "address",
          "indexed": true,
          "internalType": "address"
        },
        {
          "name": "sender",
          "type": "address",
          "indexed": true,
          "internalType": "address"
        }
      ],
      "anonymous": false
    },
    {
      "type": "event",
      "name": "RoleRevoked",
      "inputs": [
        {
          "name": "role",
          "type": "bytes32",
          "indexed": true,
          "internalType": "bytes32"
        },
        {
          "name": "account",
          "type": "address",
          "indexed": true,
          "internalType": "address"
        },
        {
          "name": "sender",
          "type": "address",
          "indexed": true,
          "internalType": "address"
        }
      ],
      "anonymous": false
    },
    {
      "type": "event",
      "name": "Transfer",
      "inputs": [
        {
          "name": "from",
          "type": "address",
          "indexed": true,
          "internalType": "address"
        },
        {
          "name": "to",
          "type": "address",
          "indexed": true,
          "internalType": "address"
        },
        {
          "name": "value",
          "type": "uint256",
          "indexed": false,
          "internalType": "uint256"
        }
      ],
      "anonymous": false
    },
    {
      "type": "event",
      "name": "TreasuryRetirement",
      "inputs": [
        {
          "name": "amount",
          "type": "uint256",
          "indexed": false,
          "internalType": "uint256"
        },
        {
          "name": "reason",
          "type": "string",
          "indexed": false,
          "internalType": "string"
        }
      ],
      "anonymous": false
    },
    {
      "type": "event",
      "name": "TreasuryTransfer",
      "inputs": [
        {
          "name": "to",
          "type": "address",
          "indexed": true,
          "internalType": "address"
        },
        {
          "name": "amount",
          "type": "uint256",
          "indexed": false,
          "internalType": "uint256"
        }
      ],
      "anonymous": false
    },
    {
      "type": "event",
      "name": "Unpaused",
      "inputs": [
        {
          "name": "account",
          "type": "address",
          "indexed": false,
          "internalType": "address"
        }
      ],
      "anonymous": false
    },
    {
      "type": "event",
      "name": "Upgraded",
      "inputs": [
        {
          "name": "implementation",
          "type": "address",
          "indexed": true,
          "internalType": "address"
        }
      ],
      "anonymous": false
    },
    {
      "type": "error",
      "name": "AccessControlBadConfirmation",
      "inputs": []
    },
    {
      "type": "error",
      "name": "AccessControlUnauthorizedAccount",
      "inputs": [
        {
          "name": "account",
          "type": "address",
          "internalType": "address"
        },
        {
          "name": "neededRole",
          "type": "bytes32",
          "internalType": "bytes32"
        }
      ]
    },
    {
      "type": "error",
      "name": "AddressEmptyCode",
      "inputs": [
        {
          "name": "target",
          "type": "address",
          "internalType": "address"
        }
      ]
    },
    {
      "type": "error",
      "name": "CallerNotMinter",
      "inputs": []
    },
    {
      "type": "error",
      "name": "CallerNotTreasuryManager",
      "inputs": []
    },
    {
      "type": "error",
      "name": "ERC1967InvalidImplementation",
      "inputs": [
        {
          "name": "implementation",
          "type": "address",
          "internalType": "address"
        }
      ]
    },
    {
      "type": "error",
      "name": "ERC1967NonPayable",
      "inputs": []
    },
    {
      "type": "error",
      "name": "ERC20InsufficientAllowance",
      "inputs": [
        {
          "name": "spender",
          "type": "address",
          "internalType": "address"
        },
        {
          "name": "allowance",
          "type": "uint256",
          "internalType": "uint256"
        },
        {
          "name": "needed",
          "type": "uint256",
          "internalType": "uint256"
        }
      ]
    },
    {
      "type": "error",
      "name": "ERC20InsufficientBalance",
      "inputs": [
        {
          "name": "sender",
          "type": "address",
          "internalType": "address"
        },
        {
          "name": "balance",
          "type": "uint256",
          "internalType": "uint256"
        },
        {
          "name": "needed",
          "type": "uint256",
          "internalType": "uint256"
        }
      ]
    },
    {
      "type": "error",
      "name": "ERC20InvalidApprover",
      "inputs": [
        {
          "name": "approver",
          "type": "address",
          "internalType": "address"
        }
      ]
    },
    {
      "type": "error",
      "name": "ERC20InvalidReceiver",
      "inputs": [
        {
          "name": "receiver",
          "type": "address",
          "internalType": "address"
        }
      ]
    },
    {
      "type": "error",
      "name": "ERC20InvalidSender",
      "inputs": [
        {
          "name": "sender",
          "type": "address",
          "internalType": "address"
        }
      ]
    },
    {
      "type": "error",
      "name": "ERC20InvalidSpender",
      "inputs": [
        {
          "name": "spender",
          "type": "address",
          "internalType": "address"
        }
      ]
    },
    {
      "type": "error",
      "name": "EnforcedPause",
      "inputs": []
    },
    {
      "type": "error",
      "name": "ExpectedPause",
      "inputs": []
    },
    {
      "type": "error",
      "name": "FailedCall",
      "inputs": []
    },
    {
      "type": "error",
      "name": "InvalidAmount",
      "inputs": [
        {
          "name": "amount",
          "type": "uint256",
          "internalType": "uint256"
        }
      ]
    },
    {
      "type": "error",
      "name": "UUPSUnauthorizedCallContext",
      "inputs": []
    },
    {
      "type": "error",
      "name": "UUPSUnsupportedProxiableUUID",
      "inputs": [
        {
          "name": "slot",
          "type": "bytes32",
          "internalType": "bytes32"
        }
      ]
    },
    {
      "type": "error",
      "name": "ZeroAddress",
      "inputs": []
    }
  ],
  "bytecode": {
    "object": "0x60a060405230608052348015610013575f80fd5b506040516123a43803806123a4833981016040819052610032916102e6565b8383600361004083826103ef565b50600461004d82826103ef565b5050506001600160a01b0382166100775760405163d92e233d60e01b815260040160405180910390fd5b6001600160a01b03811661009e5760405163d92e233d60e01b815260040160405180910390fd5b6100a85f83610181565b506100d37f65d7a28e3265b37a6474929f336521b332c1681b933f6cb9f3376673440d862a83610181565b506100fe7f189ab7a9244df0848122154315af71fe140f3db0fe014031783b0946b8c9d2e383610181565b506101297fede9dcdb0ce99dc7cec9c7be9246ad08b37853683ad91569c187b647ddf5e21c83610181565b5060068054610100600160a81b0319166101006001600160a01b038416908102919091179091556040517f48919a8bb9d5ad92fa352adb62046eaabb006b67ba2fcf7566ed0879ab5a27c3905f90a2505050506104a9565b5f8281526005602090815260408083206001600160a01b038516845290915281205460ff16610225575f8381526005602090815260408083206001600160a01b03861684529091529020805460ff191660011790556101dd3390565b6001600160a01b0316826001600160a01b0316847f2f8788117e7eff1d82e926ec794901d17c78024a50270940304540a733656f0d60405160405180910390a4506001610228565b505f5b92915050565b634e487b7160e01b5f52604160045260245ffd5b5f82601f830112610251575f80fd5b81516001600160401b0381111561026a5761026a61022e565b604051601f8201601f19908116603f011681016001600160401b03811182821017156102985761029861022e565b6040528181528382016020018510156102af575f80fd5b8160208501602083015e5f918101602001919091529392505050565b80516001600160a01b03811681146102e1575f80fd5b919050565b5f805f80608085870312156102f9575f80fd5b84516001600160401b0381111561030e575f80fd5b61031a87828801610242565b602087015190955090506001600160401b03811115610337575f80fd5b61034387828801610242565b935050610352604086016102cb565b9150610360606086016102cb565b905092959194509250565b600181811c9082168061037f57607f821691505b60208210810361039d57634e487b7160e01b5f52602260045260245ffd5b50919050565b601f8211156103ea57805f5260205f20601f840160051c810160208510156103c85750805b601f840160051c820191505b818110156103e7575f81556001016103d4565b50505b505050565b81516001600160401b038111156104085761040861022e565b61041c81610416845461036b565b846103a3565b6020601f82116001811461044e575f83156104375750848201515b5f19600385901b1c1916600184901b1784556103e7565b5f84815260208120601f198516915b8281101561047d578785015182556020948501946001909201910161045d565b508482101561049a57868401515f19600387901b60f8161c191681555b50505050600190811b01905550565b608051611ed56104cf5f395f81816112410152818161126a015261145a0152611ed55ff3fe60806040526004361061020f575f3560e01c806370a0823111610117578063a9059cbb116100ac578063dd62ed3e1161007c578063ebdf690f11610062578063ebdf690f14610678578063f72c0d8b146106ab578063fd99b922146106de575f80fd5b8063dd62ed3e14610601578063e63ab1e914610645575f80fd5b8063a9059cbb14610548578063ad3cb1cc14610567578063d5391393146105af578063d547741f146105e2575f80fd5b806391d14854116100e757806391d14854146104be57806395d89b4114610502578063a217fddf14610516578063a65948a314610529575f80fd5b806370a082311461041b57806379cc67901461044f578063803db96d1461046e5780638456cb59146104aa575f80fd5b8063313ce567116101a757806342966c68116101775780634f1ef2861161015d5780634f1ef286146103dd57806352d1902d146103f05780635c975abb14610404575f80fd5b806342966c681461039f57806348a490fb146103be575f80fd5b8063313ce5671461033257806336568abe1461034d5780633f4ba83a1461036c57806340c10f1914610380575f80fd5b806318160ddd116101e257806318160ddd146102a857806323b872dd146102c6578063248a9ca3146102e55780632f2ff15d14610313575f80fd5b806301ffc9a71461021357806306fdde0314610247578063095ea7b3146102685780630c5a61f814610287575b5f80fd5b34801561021e575f80fd5b5061023261022d366004611a60565b6106fd565b60405190151581526020015b60405180910390f35b348015610252575f80fd5b5061025b610795565b60405161023e9190611a9f565b348015610273575f80fd5b50610232610282366004611b0d565b610825565b348015610292575f80fd5b506102a66102a1366004611b35565b61083c565b005b3480156102b3575f80fd5b506002545b60405190815260200161023e565b3480156102d1575f80fd5b506102326102e0366004611b4e565b6108ef565b3480156102f0575f80fd5b506102b86102ff366004611b88565b5f9081526005602052604090206001015490565b34801561031e575f80fd5b506102a661032d366004611b9f565b610914565b34801561033d575f80fd5b506040516003815260200161023e565b348015610358575f80fd5b506102a6610367366004611b9f565b61093e565b348015610377575f80fd5b506102a661098f565b34801561038b575f80fd5b506102a661039a366004611b0d565b6109c4565b3480156103aa575f80fd5b506102a66103b9366004611b88565b610a7a565b3480156103c9575f80fd5b506102a66103d8366004611b0d565b610a84565b6102a66103eb366004611bf6565b610bd0565b3480156103fb575f80fd5b506102b8610beb565b34801561040f575f80fd5b5060065460ff16610232565b348015610426575f80fd5b506102b8610435366004611b35565b6001600160a01b03165f9081526020819052604090205490565b34801561045a575f80fd5b506102a6610469366004611b0d565b610c19565b348015610479575f80fd5b506006546104929061010090046001600160a01b031681565b6040516001600160a01b03909116815260200161023e565b3480156104b5575f80fd5b506102a6610c2e565b3480156104c9575f80fd5b506102326104d8366004611b9f565b5f9182526005602090815260408084206001600160a01b0393909316845291905290205460ff1690565b34801561050d575f80fd5b5061025b610c60565b348015610521575f80fd5b506102b85f81565b348015610534575f80fd5b506102a6610543366004611b88565b610c6f565b348015610553575f80fd5b50610232610562366004611b0d565b610cf2565b348015610572575f80fd5b5061025b6040518060400160405280600581526020017f352e302e3000000000000000000000000000000000000000000000000000000081525081565b3480156105ba575f80fd5b506102b87f9f2df0fed2c77648de5860a4cc508cd0818c85b8b8a1ab4ceeef8d981c8956a681565b3480156105ed575f80fd5b506102a66105fc366004611b9f565b610cff565b34801561060c575f80fd5b506102b861061b366004611cf7565b6001600160a01b039182165f90815260016020908152604080832093909416825291909152205490565b348015610650575f80fd5b506102b87f65d7a28e3265b37a6474929f336521b332c1681b933f6cb9f3376673440d862a81565b348015610683575f80fd5b506102b87fede9dcdb0ce99dc7cec9c7be9246ad08b37853683ad91569c187b647ddf5e21c81565b3480156106b6575f80fd5b506102b87f189ab7a9244df0848122154315af71fe140f3db0fe014031783b0946b8c9d2e381565b3480156106e9575f80fd5b506102a66106f8366004611d1f565b610d23565b5f7fffffffff0000000000000000000000000000000000000000000000000000000082167f7965db0b00000000000000000000000000000000000000000000000000000000148061078f57507f01ffc9a7000000000000000000000000000000000000000000000000000000007fffffffff000000000000000000000000000000000000000000000000000000008316145b92915050565b6060600380546107a490611d96565b80601f01602080910402602001604051908101604052809291908181526020018280546107d090611d96565b801561081b5780601f106107f25761010080835404028352916020019161081b565b820191905f5260205f20905b8154815290600101906020018083116107fe57829003601f168201915b5050505050905090565b5f33610832818585610e2d565b5060019392505050565b5f61084681610e3a565b6001600160a01b038216610886576040517fd92e233d00000000000000000000000000000000000000000000000000000000815260040160405180910390fd5b600680547fffffffffffffffffffffff0000000000000000000000000000000000000000ff166101006001600160a01b038516908102919091179091556040517f48919a8bb9d5ad92fa352adb62046eaabb006b67ba2fcf7566ed0879ab5a27c3905f90a25050565b5f336108fc858285610e44565b610907858585610ef2565b60019150505b9392505050565b5f8281526005602052604090206001015461092e81610e3a565b6109388383610f81565b50505050565b6001600160a01b0381163314610980576040517f6697b23200000000000000000000000000000000000000000000000000000000815260040160405180910390fd5b61098a828261104a565b505050565b7f65d7a28e3265b37a6474929f336521b332c1681b933f6cb9f3376673440d862a6109b981610e3a565b6109c16110ed565b50565b6109cc61115d565b6109f67f9f2df0fed2c77648de5860a4cc508cd0818c85b8b8a1ab4ceeef8d981c8956a6336104d8565b610a2c576040517f5eee367a00000000000000000000000000000000000000000000000000000000815260040160405180910390fd5b6001600160a01b038216610a6c576040517fd92e233d00000000000000000000000000000000000000000000000000000000815260040160405180910390fd5b610a76828261119c565b5050565b6109c133826111e9565b610a8c61115d565b610ab67fede9dcdb0ce99dc7cec9c7be9246ad08b37853683ad91569c187b647ddf5e21c336104d8565b610aec576040517f9a03048300000000000000000000000000000000000000000000000000000000815260040160405180910390fd5b6001600160a01b038216610b2c576040517fd92e233d00000000000000000000000000000000000000000000000000000000815260040160405180910390fd5b805f03610b6d576040517f3728b83d000000000000000000000000000000000000000000000000000000008152600481018290526024015b60405180910390fd5b600654610b899061010090046001600160a01b03168383610ef2565b816001600160a01b03167f0e0155fc4999bbb125969d44fd6a09db6b8682e20c096fe64f43c010ec14e1be82604051610bc491815260200190565b60405180910390a25050565b610bd8611236565b610be182611306565b610a768282611330565b5f610bf461144f565b507f360894a13ba1a3210667c828492db98dca3e2076cc3735a920a3ca505d382bbc90565b610c24823383610e44565b610a7682826111e9565b7f65d7a28e3265b37a6474929f336521b332c1681b933f6cb9f3376673440d862a610c5881610e3a565b6109c16114b1565b6060600480546107a490611d96565b610c7761115d565b610ca17f9f2df0fed2c77648de5860a4cc508cd0818c85b8b8a1ab4ceeef8d981c8956a6336104d8565b610cd7576040517f5eee367a00000000000000000000000000000000000000000000000000000000815260040160405180910390fd5b6006546109c19061010090046001600160a01b03168261119c565b5f33610832818585610ef2565b5f82815260056020526040902060010154610d1981610e3a565b610938838361104a565b610d2b61115d565b610d557fede9dcdb0ce99dc7cec9c7be9246ad08b37853683ad91569c187b647ddf5e21c336104d8565b610d8b576040517f9a03048300000000000000000000000000000000000000000000000000000000815260040160405180910390fd5b825f03610dc7576040517f3728b83d00000000000000000000000000000000000000000000000000000000815260048101849052602401610b64565b600654610de39061010090046001600160a01b03163085610ef2565b610ded30846111e9565b7f74866c3dadb39b6f358b192f40eca4a6ffef6e13b51dceb59b483ed56a01731d838383604051610e2093929190611de7565b60405180910390a1505050565b61098a838383600161150c565b6109c18133611610565b6001600160a01b038381165f908152600160209081526040808320938616835292905220547fffffffffffffffffffffffffffffffffffffffffffffffffffffffffffffffff8110156109385781811015610ee4576040517ffb8f41b20000000000000000000000000000000000000000000000000000000081526001600160a01b03841660048201526024810182905260448101839052606401610b64565b61093884848484035f61150c565b6001600160a01b038316610f34576040517f96c6fd1e0000000000000000000000000000000000000000000000000000000081525f6004820152602401610b64565b6001600160a01b038216610f76576040517fec442f050000000000000000000000000000000000000000000000000000000081525f6004820152602401610b64565b61098a83838361167d565b5f8281526005602090815260408083206001600160a01b038516845290915281205460ff16611043575f8381526005602090815260408083206001600160a01b0386168452909152902080547fffffffffffffffffffffffffffffffffffffffffffffffffffffffffffffff00166001179055610ffb3390565b6001600160a01b0316826001600160a01b0316847f2f8788117e7eff1d82e926ec794901d17c78024a50270940304540a733656f0d60405160405180910390a450600161078f565b505f61078f565b5f8281526005602090815260408083206001600160a01b038516845290915281205460ff1615611043575f8381526005602090815260408083206001600160a01b038616808552925280832080547fffffffffffffffffffffffffffffffffffffffffffffffffffffffffffffff0016905551339286917ff6391f5c32d9c69d2a47ea670b442974b53935d1edc7fd64eb21e047a839171b9190a450600161078f565b6110f5611688565b600680547fffffffffffffffffffffffffffffffffffffffffffffffffffffffffffffff001690557f5db9ee0a495bf2e6ff9c91a7834c1ba4fdd244a5e8aa4e537bd38aeae4b073aa335b6040516001600160a01b03909116815260200160405180910390a1565b60065460ff161561119a576040517fd93c066500000000000000000000000000000000000000000000000000000000815260040160405180910390fd5b565b6001600160a01b0382166111de576040517fec442f050000000000000000000000000000000000000000000000000000000081525f6004820152602401610b64565b610a765f838361167d565b6001600160a01b03821661122b576040517f96c6fd1e0000000000000000000000000000000000000000000000000000000081525f6004820152602401610b64565b610a76825f8361167d565b306001600160a01b037f00000000000000000000000000000000000000000000000000000000000000001614806112cf57507f00000000000000000000000000000000000000000000000000000000000000006001600160a01b03166112c37f360894a13ba1a3210667c828492db98dca3e2076cc3735a920a3ca505d382bbc546001600160a01b031690565b6001600160a01b031614155b1561119a576040517fe07c8dba00000000000000000000000000000000000000000000000000000000815260040160405180910390fd5b7f189ab7a9244df0848122154315af71fe140f3db0fe014031783b0946b8c9d2e3610a7681610e3a565b816001600160a01b03166352d1902d6040518163ffffffff1660e01b8152600401602060405180830381865afa9250505080156113a8575060408051601f3d9081017fffffffffffffffffffffffffffffffffffffffffffffffffffffffffffffffe01682019092526113a591810190611e3a565b60015b6113e9576040517f4c9c8ce30000000000000000000000000000000000000000000000000000000081526001600160a01b0383166004820152602401610b64565b7f360894a13ba1a3210667c828492db98dca3e2076cc3735a920a3ca505d382bbc8114611445576040517faa1d49a400000000000000000000000000000000000000000000000000000000815260048101829052602401610b64565b61098a83836116c4565b306001600160a01b037f0000000000000000000000000000000000000000000000000000000000000000161461119a576040517fe07c8dba00000000000000000000000000000000000000000000000000000000815260040160405180910390fd5b6114b961115d565b600680547fffffffffffffffffffffffffffffffffffffffffffffffffffffffffffffff001660011790557f62e78cea01bee320cd4e420270b5ea74000d11b0c9f74754ebdbfc544b05a2586111403390565b6001600160a01b03841661154e576040517fe602df050000000000000000000000000000000000000000000000000000000081525f6004820152602401610b64565b6001600160a01b038316611590576040517f94280d620000000000000000000000000000000000000000000000000000000081525f6004820152602401610b64565b6001600160a01b038085165f908152600160209081526040808320938716835292905220829055801561093857826001600160a01b0316846001600160a01b03167f8c5be1e5ebec7d5bd14f71427d1e84f3dd0314c0f7b2291e5b200ac8c7c3b9258460405161160291815260200190565b60405180910390a350505050565b5f8281526005602090815260408083206001600160a01b038516845290915290205460ff16610a76576040517fe2517d3f0000000000000000000000000000000000000000000000000000000081526001600160a01b038216600482015260248101839052604401610b64565b61098a838383611719565b60065460ff1661119a576040517f8dfc202b00000000000000000000000000000000000000000000000000000000815260040160405180910390fd5b6116cd82611858565b6040516001600160a01b038316907fbc7cd75a20ee27fd9adebab32041f755214dbc6bffa90cc0225b39da2e5c2d3b905f90a28051156117115761098a82826118ff565b610a76611971565b6001600160a01b038316611743578060025f8282546117389190611e51565b909155506117cc9050565b6001600160a01b0383165f90815260208190526040902054818110156117ae576040517fe450d38c0000000000000000000000000000000000000000000000000000000081526001600160a01b03851660048201526024810182905260448101839052606401610b64565b6001600160a01b0384165f9081526020819052604090209082900390555b6001600160a01b0382166117e857600280548290039055611806565b6001600160a01b0382165f9081526020819052604090208054820190555b816001600160a01b0316836001600160a01b03167fddf252ad1be2c89b69c2b068fc378daa952ba7f163c4a11628f55a4df523b3ef8360405161184b91815260200190565b60405180910390a3505050565b806001600160a01b03163b5f036118a6576040517f4c9c8ce30000000000000000000000000000000000000000000000000000000081526001600160a01b0382166004820152602401610b64565b7f360894a13ba1a3210667c828492db98dca3e2076cc3735a920a3ca505d382bbc80547fffffffffffffffffffffffff0000000000000000000000000000000000000000166001600160a01b0392909216919091179055565b60605f80846001600160a01b03168460405161191b9190611e89565b5f60405180830381855af49150503d805f8114611953576040519150601f19603f3d011682016040523d82523d5f602084013e611958565b606091505b50915091506119688583836119a9565b95945050505050565b341561119a576040517fb398979f00000000000000000000000000000000000000000000000000000000815260040160405180910390fd5b6060826119be576119b982611a1e565b61090d565b81511580156119d557506001600160a01b0384163b155b15611a17576040517f9996b3150000000000000000000000000000000000000000000000000000000081526001600160a01b0385166004820152602401610b64565b508061090d565b805115611a2e5780518082602001fd5b6040517fd6bda27500000000000000000000000000000000000000000000000000000000815260040160405180910390fd5b5f60208284031215611a70575f80fd5b81357fffffffff000000000000000000000000000000000000000000000000000000008116811461090d575f80fd5b602081525f82518060208401528060208501604085015e5f6040828501015260407fffffffffffffffffffffffffffffffffffffffffffffffffffffffffffffffe0601f83011684010191505092915050565b80356001600160a01b0381168114611b08575f80fd5b919050565b5f8060408385031215611b1e575f80fd5b611b2783611af2565b946020939093013593505050565b5f60208284031215611b45575f80fd5b61090d82611af2565b5f805f60608486031215611b60575f80fd5b611b6984611af2565b9250611b7760208501611af2565b929592945050506040919091013590565b5f60208284031215611b98575f80fd5b5035919050565b5f8060408385031215611bb0575f80fd5b82359150611bc060208401611af2565b90509250929050565b7f4e487b71000000000000000000000000000000000000000000000000000000005f52604160045260245ffd5b5f8060408385031215611c07575f80fd5b611c1083611af2565b9150602083013567ffffffffffffffff811115611c2b575f80fd5b8301601f81018513611c3b575f80fd5b803567ffffffffffffffff811115611c5557611c55611bc9565b6040517fffffffffffffffffffffffffffffffffffffffffffffffffffffffffffffffe0603f7fffffffffffffffffffffffffffffffffffffffffffffffffffffffffffffffe0601f8501160116810181811067ffffffffffffffff82111715611cc157611cc1611bc9565b604052818152828201602001871015611cd8575f80fd5b816020840160208301375f602083830101528093505050509250929050565b5f8060408385031215611d08575f80fd5b611d1183611af2565b9150611bc060208401611af2565b5f805f60408486031215611d31575f80fd5b83359250602084013567ffffffffffffffff811115611d4e575f80fd5b8401601f81018613611d5e575f80fd5b803567ffffffffffffffff811115611d74575f80fd5b866020828401011115611d85575f80fd5b939660209190910195509293505050565b600181811c90821680611daa57607f821691505b602082108103611de1577f4e487b71000000000000000000000000000000000000000000000000000000005f52602260045260245ffd5b50919050565b83815260406020820152816040820152818360608301375f818301606090810191909152601f9092017fffffffffffffffffffffffffffffffffffffffffffffffffffffffffffffffe016010192915050565b5f60208284031215611e4a575f80fd5b5051919050565b8082018082111561078f577f4e487b71000000000000000000000000000000000000000000000000000000005f52601160045260245ffd5b5f82518060208501845e5f92019182525091905056fea2646970667358221220d9728b17bc0349e78d41fc3e2002c9cfa1a2726e78070a412a7bfa3e980416d564736f6c634300081a0033",
    "linkReferences": {}
  },
  "methodIdentifiers": {
    "DEFAULT_ADMIN_ROLE()": "a217fddf",
    "MINTER_ROLE()": "d5391393",
    "PAUSER_ROLE()": "e63ab1e9",
    "TREASURY_MANAGER_ROLE()": "ebdf690f",
    "UPGRADER_ROLE()": "f72c0d8b",
    "UPGRADE_INTERFACE_VERSION()": "ad3cb1cc",
    "allowance(address,address)": "dd62ed3e",
    "approve(address,uint256)": "095ea7b3",
    "balanceOf(address)": "70a08231",
    "burn(uint256)": "42966c68",
    "burnFrom(address,uint256)": "79cc6790",
    "decimals()": "313ce567",
    "getRoleAdmin(bytes32)": "248a9ca3",
    "grantRole(bytes32,address)": "2f2ff15d",
    "hasRole(bytes32,address)": "91d14854",
    "mint(address,uint256)": "40c10f19",
    "mintToTreasury(uint256)": "a65948a3",
    "name()": "06fdde03",
    "pause()": "8456cb59",
    "paused()": "5c975abb",
    "protocolTreasury()": "803db96d",
    "proxiableUUID()": "52d1902d",
    "renounceRole(bytes32,address)": "36568abe",
    "retireFromTreasury(uint256,string)": "fd99b922",
    "revokeRole(bytes32,address)": "d547741f",
    "setProtocolTreasury(address)": "0c5a61f8",
    "supportsInterface(bytes4)": "01ffc9a7",
    "symbol()": "95d89b41",
    "totalSupply()": "18160ddd",
    "transfer(address,uint256)": "a9059cbb",
    "transferFrom(address,address,uint256)": "23b872dd",
    "transferFromTreasury(address,uint256)": "48a490fb",
    "unpause()": "3f4ba83a",
    "upgradeToAndCall(address,bytes)": "4f1ef286"
  },
  "id": 39
}