{"abi":[{"type":"constructor","inputs":[{"name":"_rewardToken","type":"address","internalType":"address"},{"name":"_initialAdmin","type":"address","internalType":"address"}],"stateMutability":"nonpayable"},{"type":"function","name":"DEFAULT_ADMIN_ROLE","inputs":[],"outputs":[{"name":"","type":"bytes32","internalType":"bytes32"}],"stateMutability":"view"},{"type":"function","name":"METRIC_UPDATER_ROLE","inputs":[],"outputs":[{"name":"","type":"bytes32","internalType":"bytes32"}],"stateMutability":"view"},{"type":"function","name":"PAUSER_ROLE","inputs":[],"outputs":[{"name":"","type":"bytes32","internalType":"bytes32"}],"stateMutability":"view"},{"type":"function","name":"REWARD_DEPOSITOR_ROLE","inputs":[],"outputs":[{"name":"","type":"bytes32","internalType":"bytes32"}],"stateMutability":"view"},{"type":"function","name":"UPGRADER_ROLE","inputs":[],"outputs":[{"name":"","type":"bytes32","internalType":"bytes32"}],"stateMutability":"view"},{"type":"function","name":"UPGRADE_INTERFACE_VERSION","inputs":[],"outputs":[{"name":"","type":"string","internalType":"string"}],"stateMutability":"view"},{"type":"function","name":"accumulatedRewardsPerScoreUnit","inputs":[],"outputs":[{"name":"","type":"uint256","internalType":"uint256"}],"stateMutability":"view"},{"type":"function","name":"claimRewards","inputs":[],"outputs":[],"stateMutability":"nonpayable"},{"type":"function","name":"claimableRewards","inputs":[{"name":"operator","type":"address","internalType":"address"}],"outputs":[{"name":"","type":"uint256","internalType":"uint256"}],"stateMutability":"view"},{"type":"function","name":"currentRewardRate","inputs":[],"outputs":[{"name":"","type":"uint256","internalType":"uint256"}],"stateMutability":"view"},{"type":"function","name":"depositRewards","inputs":[{"name":"amount","type":"uint256","internalType":"uint256"}],"outputs":[],"stateMutability":"nonpayable"},{"type":"function","name":"getRoleAdmin","inputs":[{"name":"role","type":"bytes32","internalType":"bytes32"}],"outputs":[{"name":"","type":"bytes32","internalType":"bytes32"}],"stateMutability":"view"},{"type":"function","name":"grantRole","inputs":[{"name":"role","type":"bytes32","internalType":"bytes32"},{"name":"account","type":"address","internalType":"address"}],"outputs":[],"stateMutability":"nonpayable"},{"type":"function","name":"hasRole","inputs":[{"name":"role","type":"bytes32","internalType":"bytes32"},{"name":"account","type":"address","internalType":"address"}],"outputs":[{"name":"","type":"bool","internalType":"bool"}],"stateMutability":"view"},{"type":"function","name":"lastGlobalUpdateTime","inputs":[],"outputs":[{"name":"","type":"uint48","internalType":"uint48"}],"stateMutability":"view"},{"type":"function","name":"nodeInfo","inputs":[{"name":"","type":"address","internalType":"address"}],"outputs":[{"name":"contributionScore","type":"uint256","internalType":"uint256"},{"name":"rewardDebt","type":"uint256","internalType":"uint256"}],"stateMutability":"view"},{"type":"function","name":"pause","inputs":[],"outputs":[],"stateMutability":"nonpayable"},{"type":"function","name":"paused","inputs":[],"outputs":[{"name":"","type":"bool","internalType":"bool"}],"stateMutability":"view"},{"type":"function","name":"proxiableUUID","inputs":[],"outputs":[{"name":"","type":"bytes32","internalType":"bytes32"}],"stateMutability":"view"},{"type":"function","name":"renounceRole","inputs":[{"name":"role","type":"bytes32","internalType":"bytes32"},{"name":"callerConfirmation","type":"address","internalType":"address"}],"outputs":[],"stateMutability":"nonpayable"},{"type":"function","name":"revokeRole","inputs":[{"name":"role","type":"bytes32","internalType":"bytes32"},{"name":"account","type":"address","internalType":"address"}],"outputs":[],"stateMutability":"nonpayable"},{"type":"function","name":"rewardToken","inputs":[],"outputs":[{"name":"","type":"address","internalType":"contract IERC20"}],"stateMutability":"view"},{"type":"function","name":"setRewardRate","inputs":[{"name":"_rate","type":"uint256","internalType":"uint256"}],"outputs":[],"stateMutability":"nonpayable"},{"type":"function","name":"supportsInterface","inputs":[{"name":"interfaceId","type":"bytes4","internalType":"bytes4"}],"outputs":[{"name":"","type":"bool","internalType":"bool"}],"stateMutability":"view"},{"type":"function","name":"totalContributionScore","inputs":[],"outputs":[{"name":"","type":"uint256","internalType":"uint256"}],"stateMutability":"view"},{"type":"function","name":"unpause","inputs":[],"outputs":[],"stateMutability":"nonpayable"},{"type":"function","name":"updateNodeContribution","inputs":[{"name":"operator","type":"address","internalType":"address"},{"name":"contributionDelta","type":"uint256","internalType":"uint256"},{"name":"timestamp","type":"uint64","internalType":"uint64"}],"outputs":[],"stateMutability":"nonpayable"},{"type":"function","name":"upgradeToAndCall","inputs":[{"name":"newImplementation","type":"address","internalType":"address"},{"name":"data","type":"bytes","internalType":"bytes"}],"outputs":[],"stateMutability":"payable"},{"type":"event","name":"NodeContributionUpdated","inputs":[{"name":"operator","type":"address","indexed":true,"internalType":"address"},{"name":"newScore","type":"uint256","indexed":false,"internalType":"uint256"},{"name":"timestamp","type":"uint64","indexed":false,"internalType":"uint64"}],"anonymous":false},{"type":"event","name":"Paused","inputs":[{"name":"account","type":"address","indexed":false,"internalType":"address"}],"anonymous":false},{"type":"event","name":"RewardRateSet","inputs":[{"name":"newRate","type":"uint256","indexed":false,"internalType":"uint256"}],"anonymous":false},{"type":"event","name":"RewardsClaimed","inputs":[{"name":"operator","type":"address","indexed":true,"internalType":"address"},{"name":"amount","type":"uint256","indexed":false,"internalType":"uint256"}],"anonymous":false},{"type":"event","name":"RewardsDeposited","inputs":[{"name":"depositor","type":"address","indexed":true,"internalType":"address"},{"name":"amount","type":"uint256","indexed":false,"internalType":"uint256"}],"anonymous":false},{"type":"event","name":"RoleAdminChanged","inputs":[{"name":"role","type":"bytes32","indexed":true,"internalType":"bytes32"},{"name":"previousAdminRole","type":"bytes32","indexed":true,"internalType":"bytes32"},{"name":"newAdminRole","type":"bytes32","indexed":true,"internalType":"bytes32"}],"anonymous":false},{"type":"event","name":"RoleGranted","inputs":[{"name":"role","type":"bytes32","indexed":true,"internalType":"bytes32"},{"name":"account","type":"address","indexed":true,"internalType":"address"},{"name":"sender","type":"address","indexed":true,"internalType":"address"}],"anonymous":false},{"type":"event","name":"RoleRevoked","inputs":[{"name":"role","type":"bytes32","indexed":true,"internalType":"bytes32"},{"name":"account","type":"address","indexed":true,"internalType":"address"},{"name":"sender","type":"address","indexed":true,"internalType":"address"}],"anonymous":false},{"type":"event","name":"Unpaused","inputs":[{"name":"account","type":"address","indexed":false,"internalType":"address"}],"anonymous":false},{"type":"event","name":"Upgraded","inputs":[{"name":"implementation","type":"address","indexed":true,"internalType":"address"}],"anonymous":false},{"type":"error","name":"AccessControlBadConfirmation","inputs":[]},{"type":"error","name":"AccessControlUnauthorizedAccount","inputs":[{"name":"account","type":"address","internalType":"address"},{"name":"neededRole","type":"bytes32","internalType":"bytes32"}]},{"type":"error","name":"AddressEmptyCode","inputs":[{"name":"target","type":"address","internalType":"address"}]},{"type":"error","name":"CallerNotMetricUpdater","inputs":[]},{"type":"error","name":"ERC1967InvalidImplementation","inputs":[{"name":"implementation","type":"address","internalType":"address"}]},{"type":"error","name":"ERC1967NonPayable","inputs":[]},{"type":"error","name":"EnforcedPause","inputs":[]},{"type":"error","name":"ExpectedPause","inputs":[]},{"type":"error","name":"FailedCall","inputs":[]},{"type":"error","name":"InsufficientFundsForRewards","inputs":[]},{"type":"error","name":"InvalidAmount","inputs":[{"name":"amount","type":"uint256","internalType":"uint256"}]},{"type":"error","name":"NoRewardsClaimable","inputs":[]},{"type":"error","name":"ReentrancyGuardReentrantCall","inputs":[]},{"type":"error","name":"SafeERC20FailedOperation","inputs":[{"name":"token","type":"address","internalType":"address"}]},{"type":"error","name":"UUPSUnauthorizedCallContext","inputs":[]},{"type":"error","name":"UUPSUnsupportedProxiableUUID","inputs":[{"name":"slot","type":"bytes32","internalType":"bytes32"}]},{"type":"error","name":"ZeroAddress","inputs":[]}],"bytecode":{"object":"0x60c06040523073ffffffffffffffffffffffffffffffffffffffff1660809073ffffffffffffffffffffffffffffffffffffffff16815250348015610042575f80fd5b50604051612af2380380612af2833981810160405281019061006491906103c8565b60015f819055505f73ffffffffffffffffffffffffffffffffffffffff168273ffffffffffffffffffffffffffffffffffffffff16036100d0576040517fd92e233d00000000000000000000000000000000000000000000000000000000815260040160405180910390fd5b5f73ffffffffffffffffffffffffffffffffffffffff168173ffffffffffffffffffffffffffffffffffffffff1603610135576040517fd92e233d00000000000000000000000000000000000000000000000000000000815260040160405180910390fd5b8173ffffffffffffffffffffffffffffffffffffffff1660a08173ffffffffffffffffffffffffffffffffffffffff168152505061017b5f801b8261020960201b60201c565b506101ac7f65d7a28e3265b37a6474929f336521b332c1681b933f6cb9f3376673440d862a8261020960201b60201c565b506101dd7f189ab7a9244df0848122154315af71fe140f3db0fe014031783b0946b8c9d2e38261020960201b60201c565b504260065f6101000a81548165ffffffffffff021916908365ffffffffffff1602179055505050610406565b5f61021a83836102ff60201b60201c565b6102f557600160025f8581526020019081526020015f205f015f8473ffffffffffffffffffffffffffffffffffffffff1673ffffffffffffffffffffffffffffffffffffffff1681526020019081526020015f205f6101000a81548160ff02191690831515021790555061029261036360201b60201c565b73ffffffffffffffffffffffffffffffffffffffff168273ffffffffffffffffffffffffffffffffffffffff16847f2f8788117e7eff1d82e926ec794901d17c78024a50270940304540a733656f0d60405160405180910390a4600190506102f9565b5f90505b92915050565b5f60025f8481526020019081526020015f205f015f8373ffffffffffffffffffffffffffffffffffffffff1673ffffffffffffffffffffffffffffffffffffffff1681526020019081526020015f205f9054906101000a900460ff16905092915050565b5f33905090565b5f80fd5b5f73ffffffffffffffffffffffffffffffffffffffff82169050919050565b5f6103978261036e565b9050919050565b6103a78161038d565b81146103b1575f80fd5b50565b5f815190506103c28161039e565b92915050565b5f80604083850312156103de576103dd61036a565b5b5f6103eb858286016103b4565b92505060206103fc858286016103b4565b9150509250929050565b60805160a0516126a861044a5f395f81816108c00152818161099901528181610d2801526110ae01525f81816114a3015281816114f801526116d501526126a85ff3fe6080604052600436106101b6575f3560e01c80638bdf67f2116100eb578063d547741f11610089578063f51ace7011610063578063f51ace70146105af578063f58a8607146105d9578063f72c0d8b14610603578063f7c618c11461062d576101b6565b8063d547741f14610521578063dc01f60d14610549578063e63ab1e914610585576101b6565b80639e447fc6116100c55780639e447fc61461047b578063a217fddf146104a3578063ab305d20146104cd578063ad3cb1cc146104f7576101b6565b80638bdf67f2146103ed5780638d77ca571461041557806391d148541461043f576101b6565b80633f4ba83a1161015857806352d1902d1161013257806352d1902d146103595780635c975abb14610383578063803b31a9146103ad5780638456cb59146103d7576101b6565b80633f4ba83a146102ff5780634e06f353146103155780634f1ef2861461033d576101b6565b8063248a9ca311610194578063248a9ca31461025d5780632f2ff15d1461029957806336568abe146102c1578063372500ab146102e9576101b6565b806301ffc9a7146101ba578063136f08c2146101f657806323c2e2bc14610220575b5f80fd5b3480156101c5575f80fd5b506101e060048036038101906101db9190611de4565b610657565b6040516101ed9190611e29565b60405180910390f35b348015610201575f80fd5b5061020a6106d0565b6040516102179190611e5a565b60405180910390f35b34801561022b575f80fd5b5061024660048036038101906102419190611ecd565b6106d6565b604051610254929190611ef8565b60405180910390f35b348015610268575f80fd5b50610283600480360381019061027e9190611f52565b6106f6565b6040516102909190611f8c565b60405180910390f35b3480156102a4575f80fd5b506102bf60048036038101906102ba9190611fa5565b610713565b005b3480156102cc575f80fd5b506102e760048036038101906102e29190611fa5565b610735565b005b3480156102f4575f80fd5b506102fd6107b0565b005b34801561030a575f80fd5b50610313610a38565b005b348015610320575f80fd5b5061033b6004803603810190610336919061204a565b610a6d565b005b610357600480360381019061035291906121d6565b610bea565b005b348015610364575f80fd5b5061036d610c09565b60405161037a9190611f8c565b60405180910390f35b34801561038e575f80fd5b50610397610c3a565b6040516103a49190611e29565b60405180910390f35b3480156103b8575f80fd5b506103c1610c4f565b6040516103ce9190612250565b60405180910390f35b3480156103e2575f80fd5b506103eb610c66565b005b3480156103f8575f80fd5b50610413600480360381019061040e9190612269565b610c9b565b005b348015610420575f80fd5b50610429610dce565b6040516104369190611f8c565b60405180910390f35b34801561044a575f80fd5b5061046560048036038101906104609190611fa5565b610df2565b6040516104729190611e29565b60405180910390f35b348015610486575f80fd5b506104a1600480360381019061049c9190612269565b610e56565b005b3480156104ae575f80fd5b506104b7610eac565b6040516104c49190611f8c565b60405180910390f35b3480156104d8575f80fd5b506104e1610eb2565b6040516104ee9190611e5a565b60405180910390f35b348015610502575f80fd5b5061050b610eb8565b60405161051891906122f4565b60405180910390f35b34801561052c575f80fd5b5061054760048036038101906105429190611fa5565b610ef1565b005b348015610554575f80fd5b5061056f600480360381019061056a9190611ecd565b610f13565b60405161057c9190611e5a565b60405180910390f35b348015610590575f80fd5b5061059961103a565b6040516105a69190611f8c565b60405180910390f35b3480156105ba575f80fd5b506105c361105e565b6040516105d09190611e5a565b60405180910390f35b3480156105e4575f80fd5b506105ed611064565b6040516105fa9190611f8c565b60405180910390f35b34801561060e575f80fd5b50610617611088565b6040516106249190611f8c565b60405180910390f35b348015610638575f80fd5b506106416110ac565b60405161064e919061236f565b60405180910390f35b5f7f7965db0b000000000000000000000000000000000000000000000000000000007bffffffffffffffffffffffffffffffffffffffffffffffffffffffff1916827bffffffffffffffffffffffffffffffffffffffffffffffffffffffff191614806106c957506106c8826110d0565b5b9050919050565b60055481565b6003602052805f5260405f205f91509050805f0154908060010154905082565b5f60025f8381526020019081526020015f20600101549050919050565b61071c826106f6565b61072581611139565b61072f838361114d565b50505050565b61073d611237565b73ffffffffffffffffffffffffffffffffffffffff168173ffffffffffffffffffffffffffffffffffffffff16146107a1576040517f6697b23200000000000000000000000000000000000000000000000000000000815260040160405180910390fd5b6107ab828261123e565b505050565b6107b8611328565b6107c061136c565b5f6107c9611237565b90506107d4816113ad565b5f6107de82610f13565b90505f8103610819576040517f5d113c7500000000000000000000000000000000000000000000000000000000815260040160405180910390fd5b670de0b6b3a764000060075460035f8573ffffffffffffffffffffffffffffffffffffffff1673ffffffffffffffffffffffffffffffffffffffff1681526020019081526020015f205f015461086f91906123b5565b6108799190612423565b60035f8473ffffffffffffffffffffffffffffffffffffffff1673ffffffffffffffffffffffffffffffffffffffff1681526020019081526020015f20600101819055505f7f000000000000000000000000000000000000000000000000000000000000000073ffffffffffffffffffffffffffffffffffffffff166370a08231306040518263ffffffff1660e01b81526004016109179190612462565b602060405180830381865afa158015610932573d5f803e3d5ffd5b505050506040513d601f19601f82011682018060405250810190610956919061248f565b905080821115610992576040517f65203d1800000000000000000000000000000000000000000000000000000000815260040160405180910390fd5b6109dd83837f000000000000000000000000000000000000000000000000000000000000000073ffffffffffffffffffffffffffffffffffffffff166113b89092919063ffffffff16565b8273ffffffffffffffffffffffffffffffffffffffff167ffc30cddea38e2bf4d6ea7d3f9ed3b6ad7f176419f4963bd81318067a4aee73fe83604051610a239190611e5a565b60405180910390a2505050610a36611437565b565b7f65d7a28e3265b37a6474929f336521b332c1681b933f6cb9f3376673440d862a610a6281611139565b610a6a611440565b50565b610a9e7f32e2871f61ddc79b070eebfaed80c8f55027023b24db38fa6a5c980e039ec398610a99611237565b610df2565b610ad4576040517ffb63a47600000000000000000000000000000000000000000000000000000000815260040160405180910390fd5b610add836113ad565b5f60035f8573ffffffffffffffffffffffffffffffffffffffff1673ffffffffffffffffffffffffffffffffffffffff1681526020019081526020015f2090505f815f015490505f8403610b32575050610be5565b5f8482610b3f91906124ba565b90508082600554610b5091906124ed565b610b5a91906124ba565b60058190555080835f0181905550670de0b6b3a764000060075482610b7f91906123b5565b610b899190612423565b83600101819055508573ffffffffffffffffffffffffffffffffffffffff167f79a059279b48fa426829d9e62f7e6d3dcff2136e7ce4d0bc446e87f72a9978108286604051610bd992919061252f565b60405180910390a25050505b505050565b610bf26114a1565b610bfb82611587565b610c0582826115b5565b5050565b5f610c126116d3565b7f360894a13ba1a3210667c828492db98dca3e2076cc3735a920a3ca505d382bbc5f1b905090565b5f60015f9054906101000a900460ff16905090565b60065f9054906101000a900465ffffffffffff1681565b7f65d7a28e3265b37a6474929f336521b332c1681b933f6cb9f3376673440d862a610c9081611139565b610c9861175a565b50565b610ca3611328565b610cab61136c565b7f2b3b34d8f2cbfb9866f3463c0bc43f6d821c949e95f5ca06701a7756b45ebc8e610cd581611139565b5f8203610d1957816040517f3728b83d000000000000000000000000000000000000000000000000000000008152600401610d109190611e5a565b60405180910390fd5b610d6d610d24611237565b30847f000000000000000000000000000000000000000000000000000000000000000073ffffffffffffffffffffffffffffffffffffffff166117bb909392919063ffffffff16565b610d75611237565b73ffffffffffffffffffffffffffffffffffffffff167fb8b27d0db504fa5d914f1fd330347096e88d5ff94b6c612d32797e7c12a8f66f83604051610dba9190611e5a565b60405180910390a250610dcb611437565b50565b7f2b3b34d8f2cbfb9866f3463c0bc43f6d821c949e95f5ca06701a7756b45ebc8e81565b5f60025f8481526020019081526020015f205f015f8373ffffffffffffffffffffffffffffffffffffffff1673ffffffffffffffffffffffffffffffffffffffff1681526020019081526020015f205f9054906101000a900460ff16905092915050565b5f801b610e6281611139565b610e6a61183d565b816004819055507f8cbfafc8e0d9c5c81401c4b9c6e7d201198adc7eb8f8f1556c195ecd4c0a0e7b82604051610ea09190611e5a565b60405180910390a15050565b5f801b81565b60075481565b6040518060400160405280600581526020017f352e302e3000000000000000000000000000000000000000000000000000000081525081565b610efa826106f6565b610f0381611139565b610f0d838361123e565b50505050565b5f8060035f8473ffffffffffffffffffffffffffffffffffffffff1673ffffffffffffffffffffffffffffffffffffffff1681526020019081526020015f2090505f60075490505f600554118015610f85575060065f9054906101000a900465ffffffffffff1665ffffffffffff1642115b15610ff6575f60065f9054906101000a900465ffffffffffff1665ffffffffffff1642610fb291906124ed565b90505f60045482610fc391906123b5565b9050600554670de0b6b3a764000082610fdc91906123b5565b610fe69190612423565b83610ff191906124ba565b925050505b5f670de0b6b3a764000082845f015461100f91906123b5565b6110199190612423565b90505f83600101548261102c91906124ed565b905080945050505050919050565b7f65d7a28e3265b37a6474929f336521b332c1681b933f6cb9f3376673440d862a81565b60045481565b7f32e2871f61ddc79b070eebfaed80c8f55027023b24db38fa6a5c980e039ec39881565b7f189ab7a9244df0848122154315af71fe140f3db0fe014031783b0946b8c9d2e381565b7f000000000000000000000000000000000000000000000000000000000000000081565b5f7f01ffc9a7000000000000000000000000000000000000000000000000000000007bffffffffffffffffffffffffffffffffffffffffffffffffffffffff1916827bffffffffffffffffffffffffffffffffffffffffffffffffffffffff1916149050919050565b61114a81611145611237565b61192e565b50565b5f6111588383610df2565b61122d57600160025f8581526020019081526020015f205f015f8473ffffffffffffffffffffffffffffffffffffffff1673ffffffffffffffffffffffffffffffffffffffff1681526020019081526020015f205f6101000a81548160ff0219169083151502179055506111ca611237565b73ffffffffffffffffffffffffffffffffffffffff168273ffffffffffffffffffffffffffffffffffffffff16847f2f8788117e7eff1d82e926ec794901d17c78024a50270940304540a733656f0d60405160405180910390a460019050611231565b5f90505b92915050565b5f33905090565b5f6112498383610df2565b1561131e575f60025f8581526020019081526020015f205f015f8473ffffffffffffffffffffffffffffffffffffffff1673ffffffffffffffffffffffffffffffffffffffff1681526020019081526020015f205f6101000a81548160ff0219169083151502179055506112bb611237565b73ffffffffffffffffffffffffffffffffffffffff168273ffffffffffffffffffffffffffffffffffffffff16847ff6391f5c32d9c69d2a47ea670b442974b53935d1edc7fd64eb21e047a839171b60405160405180910390a460019050611322565b5f90505b92915050565b60025f5403611363576040517f3ee5aeb500000000000000000000000000000000000000000000000000000000815260040160405180910390fd5b60025f81905550565b611374610c3a565b156113ab576040517fd93c066500000000000000000000000000000000000000000000000000000000815260040160405180910390fd5b565b6113b561183d565b50565b611432838473ffffffffffffffffffffffffffffffffffffffff1663a9059cbb85856040516024016113eb929190612556565b604051602081830303815290604052915060e01b6020820180517bffffffffffffffffffffffffffffffffffffffffffffffffffffffff838183161783525050505061197f565b505050565b60015f81905550565b611448611a1a565b5f60015f6101000a81548160ff0219169083151502179055507f5db9ee0a495bf2e6ff9c91a7834c1ba4fdd244a5e8aa4e537bd38aeae4b073aa61148a611237565b6040516114979190612462565b60405180910390a1565b7f000000000000000000000000000000000000000000000000000000000000000073ffffffffffffffffffffffffffffffffffffffff163073ffffffffffffffffffffffffffffffffffffffff16148061154e57507f000000000000000000000000000000000000000000000000000000000000000073ffffffffffffffffffffffffffffffffffffffff16611535611a5a565b73ffffffffffffffffffffffffffffffffffffffff1614155b15611585576040517fe07c8dba00000000000000000000000000000000000000000000000000000000815260040160405180910390fd5b565b7f189ab7a9244df0848122154315af71fe140f3db0fe014031783b0946b8c9d2e36115b181611139565b5050565b8173ffffffffffffffffffffffffffffffffffffffff166352d1902d6040518163ffffffff1660e01b8152600401602060405180830381865afa92505050801561161d57506040513d601f19601f8201168201806040525081019061161a9190612591565b60015b61165e57816040517f4c9c8ce30000000000000000000000000000000000000000000000000000000081526004016116559190612462565b60405180910390fd5b7f360894a13ba1a3210667c828492db98dca3e2076cc3735a920a3ca505d382bbc5f1b81146116c457806040517faa1d49a40000000000000000000000000000000000000000000000000000000081526004016116bb9190611f8c565b60405180910390fd5b6116ce8383611aad565b505050565b7f000000000000000000000000000000000000000000000000000000000000000073ffffffffffffffffffffffffffffffffffffffff163073ffffffffffffffffffffffffffffffffffffffff1614611758576040517fe07c8dba00000000000000000000000000000000000000000000000000000000815260040160405180910390fd5b565b61176261136c565b6001805f6101000a81548160ff0219169083151502179055507f62e78cea01bee320cd4e420270b5ea74000d11b0c9f74754ebdbfc544b05a2586117a4611237565b6040516117b19190612462565b60405180910390a1565b611837848573ffffffffffffffffffffffffffffffffffffffff166323b872dd8686866040516024016117f0939291906125bc565b604051602081830303815290604052915060e01b6020820180517bffffffffffffffffffffffffffffffffffffffffffffffffffffffff838183161783525050505061197f565b50505050565b60065f9054906101000a900465ffffffffffff1665ffffffffffff1642111561192c575f60055403611892574260065f6101000a81548165ffffffffffff021916908365ffffffffffff16021790555061192c565b5f60065f9054906101000a900465ffffffffffff1665ffffffffffff16426118ba91906124ed565b90505f600454826118cb91906123b5565b9050600554670de0b6b3a7640000826118e491906123b5565b6118ee9190612423565b60075f8282546118fe91906124ba565b925050819055504260065f6101000a81548165ffffffffffff021916908365ffffffffffff16021790555050505b565b6119388282610df2565b61197b5780826040517fe2517d3f0000000000000000000000000000000000000000000000000000000081526004016119729291906125f1565b60405180910390fd5b5050565b5f8060205f8451602086015f885af18061199e576040513d5f823e3d81fd5b3d92505f519150505f82146119b75760018114156119d2565b5f8473ffffffffffffffffffffffffffffffffffffffff163b145b15611a1457836040517f5274afe7000000000000000000000000000000000000000000000000000000008152600401611a0b9190612462565b60405180910390fd5b50505050565b611a22610c3a565b611a58576040517f8dfc202b00000000000000000000000000000000000000000000000000000000815260040160405180910390fd5b565b5f611a867f360894a13ba1a3210667c828492db98dca3e2076cc3735a920a3ca505d382bbc5f1b611b1f565b5f015f9054906101000a900473ffffffffffffffffffffffffffffffffffffffff16905090565b611ab682611b28565b8173ffffffffffffffffffffffffffffffffffffffff167fbc7cd75a20ee27fd9adebab32041f755214dbc6bffa90cc0225b39da2e5c2d3b60405160405180910390a25f81511115611b1257611b0c8282611bf1565b50611b1b565b611b1a611c71565b5b5050565b5f819050919050565b5f8173ffffffffffffffffffffffffffffffffffffffff163b03611b8357806040517f4c9c8ce3000000000000000000000000000000000000000000000000000000008152600401611b7a9190612462565b60405180910390fd5b80611baf7f360894a13ba1a3210667c828492db98dca3e2076cc3735a920a3ca505d382bbc5f1b611b1f565b5f015f6101000a81548173ffffffffffffffffffffffffffffffffffffffff021916908373ffffffffffffffffffffffffffffffffffffffff16021790555050565b60605f808473ffffffffffffffffffffffffffffffffffffffff1684604051611c1a919061265c565b5f60405180830381855af49150503d805f8114611c52576040519150601f19603f3d011682016040523d82523d5f602084013e611c57565b606091505b5091509150611c67858383611cad565b9250505092915050565b5f341115611cab576040517fb398979f00000000000000000000000000000000000000000000000000000000815260040160405180910390fd5b565b606082611cc257611cbd82611d3a565b611d32565b5f8251148015611ce857505f8473ffffffffffffffffffffffffffffffffffffffff163b145b15611d2a57836040517f9996b315000000000000000000000000000000000000000000000000000000008152600401611d219190612462565b60405180910390fd5b819050611d33565b5b9392505050565b5f81511115611d4c5780518082602001fd5b6040517fd6bda27500000000000000000000000000000000000000000000000000000000815260040160405180910390fd5b5f604051905090565b5f80fd5b5f80fd5b5f7fffffffff0000000000000000000000000000000000000000000000000000000082169050919050565b611dc381611d8f565b8114611dcd575f80fd5b50565b5f81359050611dde81611dba565b92915050565b5f60208284031215611df957611df8611d87565b5b5f611e0684828501611dd0565b91505092915050565b5f8115159050919050565b611e2381611e0f565b82525050565b5f602082019050611e3c5f830184611e1a565b92915050565b5f819050919050565b611e5481611e42565b82525050565b5f602082019050611e6d5f830184611e4b565b92915050565b5f73ffffffffffffffffffffffffffffffffffffffff82169050919050565b5f611e9c82611e73565b9050919050565b611eac81611e92565b8114611eb6575f80fd5b50565b5f81359050611ec781611ea3565b92915050565b5f60208284031215611ee257611ee1611d87565b5b5f611eef84828501611eb9565b91505092915050565b5f604082019050611f0b5f830185611e4b565b611f186020830184611e4b565b9392505050565b5f819050919050565b611f3181611f1f565b8114611f3b575f80fd5b50565b5f81359050611f4c81611f28565b92915050565b5f60208284031215611f6757611f66611d87565b5b5f611f7484828501611f3e565b91505092915050565b611f8681611f1f565b82525050565b5f602082019050611f9f5f830184611f7d565b92915050565b5f8060408385031215611fbb57611fba611d87565b5b5f611fc885828601611f3e565b9250506020611fd985828601611eb9565b9150509250929050565b611fec81611e42565b8114611ff6575f80fd5b50565b5f8135905061200781611fe3565b92915050565b5f67ffffffffffffffff82169050919050565b6120298161200d565b8114612033575f80fd5b50565b5f8135905061204481612020565b92915050565b5f805f6060848603121561206157612060611d87565b5b5f61206e86828701611eb9565b935050602061207f86828701611ff9565b925050604061209086828701612036565b9150509250925092565b5f80fd5b5f80fd5b5f601f19601f8301169050919050565b7f4e487b71000000000000000000000000000000000000000000000000000000005f52604160045260245ffd5b6120e8826120a2565b810181811067ffffffffffffffff82111715612107576121066120b2565b5b80604052505050565b5f612119611d7e565b905061212582826120df565b919050565b5f67ffffffffffffffff821115612144576121436120b2565b5b61214d826120a2565b9050602081019050919050565b828183375f83830152505050565b5f61217a6121758461212a565b612110565b9050828152602081018484840111156121965761219561209e565b5b6121a184828561215a565b509392505050565b5f82601f8301126121bd576121bc61209a565b5b81356121cd848260208601612168565b91505092915050565b5f80604083850312156121ec576121eb611d87565b5b5f6121f985828601611eb9565b925050602083013567ffffffffffffffff81111561221a57612219611d8b565b5b612226858286016121a9565b9150509250929050565b5f65ffffffffffff82169050919050565b61224a81612230565b82525050565b5f6020820190506122635f830184612241565b92915050565b5f6020828403121561227e5761227d611d87565b5b5f61228b84828501611ff9565b91505092915050565b5f81519050919050565b5f82825260208201905092915050565b8281835e5f83830152505050565b5f6122c682612294565b6122d0818561229e565b93506122e08185602086016122ae565b6122e9816120a2565b840191505092915050565b5f6020820190508181035f83015261230c81846122bc565b905092915050565b5f819050919050565b5f61233761233261232d84611e73565b612314565b611e73565b9050919050565b5f6123488261231d565b9050919050565b5f6123598261233e565b9050919050565b6123698161234f565b82525050565b5f6020820190506123825f830184612360565b92915050565b7f4e487b71000000000000000000000000000000000000000000000000000000005f52601160045260245ffd5b5f6123bf82611e42565b91506123ca83611e42565b92508282026123d881611e42565b915082820484148315176123ef576123ee612388565b5b5092915050565b7f4e487b71000000000000000000000000000000000000000000000000000000005f52601260045260245ffd5b5f61242d82611e42565b915061243883611e42565b925082612448576124476123f6565b5b828204905092915050565b61245c81611e92565b82525050565b5f6020820190506124755f830184612453565b92915050565b5f8151905061248981611fe3565b92915050565b5f602082840312156124a4576124a3611d87565b5b5f6124b18482850161247b565b91505092915050565b5f6124c482611e42565b91506124cf83611e42565b92508282019050808211156124e7576124e6612388565b5b92915050565b5f6124f782611e42565b915061250283611e42565b925082820390508181111561251a57612519612388565b5b92915050565b6125298161200d565b82525050565b5f6040820190506125425f830185611e4b565b61254f6020830184612520565b9392505050565b5f6040820190506125695f830185612453565b6125766020830184611e4b565b9392505050565b5f8151905061258b81611f28565b92915050565b5f602082840312156125a6576125a5611d87565b5b5f6125b38482850161257d565b91505092915050565b5f6060820190506125cf5f830186612453565b6125dc6020830185612453565b6125e96040830184611e4b565b949350505050565b5f6040820190506126045f830185612453565b6126116020830184611f7d565b9392505050565b5f81519050919050565b5f81905092915050565b5f61263682612618565b6126408185612622565b93506126508185602086016122ae565b80840191505092915050565b5f612667828461262c565b91508190509291505056fea26469706673582212203c4dd3e51d62180709e2272b2f5d9067d02dcfe96c742c5825601b87b7a2ce9b64736f6c634300081a0033","linkReferences":{}},"methodIdentifiers":{"DEFAULT_ADMIN_ROLE()":"a217fddf","METRIC_UPDATER_ROLE()":"f58a8607","PAUSER_ROLE()":"e63ab1e9","REWARD_DEPOSITOR_ROLE()":"8d77ca57","UPGRADER_ROLE()":"f72c0d8b","UPGRADE_INTERFACE_VERSION()":"ad3cb1cc","accumulatedRewardsPerScoreUnit()":"ab305d20","claimRewards()":"372500ab","claimableRewards(address)":"dc01f60d","currentRewardRate()":"f51ace70","depositRewards(uint256)":"8bdf67f2","getRoleAdmin(bytes32)":"248a9ca3","grantRole(bytes32,address)":"2f2ff15d","hasRole(bytes32,address)":"91d14854","lastGlobalUpdateTime()":"803b31a9","nodeInfo(address)":"23c2e2bc","pause()":"8456cb59","paused()":"5c975abb","proxiableUUID()":"52d1902d","renounceRole(bytes32,address)":"36568abe","revokeRole(bytes32,address)":"d547741f","rewardToken()":"f7c618c1","setRewardRate(uint256)":"9e447fc6","supportsInterface(bytes4)":"01ffc9a7","totalContributionScore()":"136f08c2","unpause()":"3f4ba83a","updateNodeContribution(address,uint256,uint64)":"4e06f353","upgradeToAndCall(address,bytes)":"4f1ef286"},"id":34}