{"abi":[{"type":"function","name":"DATA_SUBMITTER_ROLE","inputs":[],"outputs":[{"name":"","type":"bytes32","internalType":"bytes32"}],"stateMutability":"view"},{"type":"function","name":"DEFAULT_ADMIN_ROLE","inputs":[],"outputs":[{"name":"","type":"bytes32","internalType":"bytes32"}],"stateMutability":"view"},{"type":"function","name":"FACTOR_MANAGER_ROLE","inputs":[],"outputs":[{"name":"","type":"bytes32","internalType":"bytes32"}],"stateMutability":"view"},{"type":"function","name":"PAUSER_ROLE","inputs":[],"outputs":[{"name":"","type":"bytes32","internalType":"bytes32"}],"stateMutability":"view"},{"type":"function","name":"UPGRADER_ROLE","inputs":[],"outputs":[{"name":"","type":"bytes32","internalType":"bytes32"}],"stateMutability":"view"},{"type":"function","name":"UPGRADE_INTERFACE_VERSION","inputs":[],"outputs":[{"name":"","type":"string","internalType":"string"}],"stateMutability":"view"},{"type":"function","name":"carbonCreditToken","inputs":[],"outputs":[{"name":"","type":"address","internalType":"contract ICarbonCreditToken"}],"stateMutability":"view"},{"type":"function","name":"countryEmissionFactors","inputs":[{"name":"","type":"uint8","internalType":"enum EnergyDataBridge.Country"}],"outputs":[{"name":"","type":"uint256","internalType":"uint256"}],"stateMutability":"view"},{"type":"function","name":"getNodeStats","inputs":[{"name":"_operator","type":"address","internalType":"address"}],"outputs":[{"name":"","type":"tuple","internalType":"struct EnergyDataBridge.NodeStats","components":[{"name":"totalEnergyKWh","type":"uint256","internalType":"uint256"},{"name":"totalCreditsGenerated","type":"uint256","internalType":"uint256"}]}],"stateMutability":"view"},{"type":"function","name":"getRoleAdmin","inputs":[{"name":"role","type":"bytes32","internalType":"bytes32"}],"outputs":[{"name":"","type":"bytes32","internalType":"bytes32"}],"stateMutability":"view"},{"type":"function","name":"grantRole","inputs":[{"name":"role","type":"bytes32","internalType":"bytes32"},{"name":"account","type":"address","internalType":"address"}],"outputs":[],"stateMutability":"nonpayable"},{"type":"function","name":"hasRole","inputs":[{"name":"role","type":"bytes32","internalType":"bytes32"},{"name":"account","type":"address","internalType":"address"}],"outputs":[{"name":"","type":"bool","internalType":"bool"}],"stateMutability":"view"},{"type":"function","name":"initialize","inputs":[{"name":"_creditToken","type":"address","internalType":"address"},{"name":"_initialAdmin","type":"address","internalType":"address"},{"name":"_initialSubmitter","type":"address","internalType":"address"},{"name":"_initialOperatorRewardBps","type":"uint256","internalType":"uint256"}],"outputs":[],"stateMutability":"nonpayable"},{"type":"function","name":"nodeStats","inputs":[{"name":"","type":"address","internalType":"address"}],"outputs":[{"name":"totalEnergyKWh","type":"uint256","internalType":"uint256"},{"name":"totalCreditsGenerated","type":"uint256","internalType":"uint256"}],"stateMutability":"view"},{"type":"function","name":"operatorRewardBps","inputs":[],"outputs":[{"name":"","type":"uint256","internalType":"uint256"}],"stateMutability":"view"},{"type":"function","name":"pause","inputs":[],"outputs":[],"stateMutability":"nonpayable"},{"type":"function","name":"paused","inputs":[],"outputs":[{"name":"","type":"bool","internalType":"bool"}],"stateMutability":"view"},{"type":"function","name":"processEnergyDataBatch","inputs":[{"name":"dataBatch","type":"tuple[]","internalType":"struct EnergyDataBridge.EnergyData[]","components":[{"name":"deviceId","type":"bytes32","internalType":"bytes32"},{"name":"nodeOperatorAddress","type":"address","internalType":"address"},{"name":"energyKWh","type":"uint256","internalType":"uint256"},{"name":"timestamp","type":"uint64","internalType":"uint64"},{"name":"country","type":"uint8","internalType":"enum EnergyDataBridge.Country"},{"name":"verificationHash","type":"bytes32","internalType":"bytes32"}]}],"outputs":[],"stateMutability":"nonpayable"},{"type":"function","name":"processSingleEnergyData","inputs":[{"name":"data","type":"tuple","internalType":"struct EnergyDataBridge.EnergyData","components":[{"name":"deviceId","type":"bytes32","internalType":"bytes32"},{"name":"nodeOperatorAddress","type":"address","internalType":"address"},{"name":"energyKWh","type":"uint256","internalType":"uint256"},{"name":"timestamp","type":"uint64","internalType":"uint64"},{"name":"country","type":"uint8","internalType":"enum EnergyDataBridge.Country"},{"name":"verificationHash","type":"bytes32","internalType":"bytes32"}]}],"outputs":[],"stateMutability":"nonpayable"},{"type":"function","name":"processedBatchHashes","inputs":[{"name":"","type":"bytes32","internalType":"bytes32"}],"outputs":[{"name":"","type":"bool","internalType":"bool"}],"stateMutability":"view"},{"type":"function","name":"proxiableUUID","inputs":[],"outputs":[{"name":"","type":"bytes32","internalType":"bytes32"}],"stateMutability":"view"},{"type":"function","name":"renounceRole","inputs":[{"name":"role","type":"bytes32","internalType":"bytes32"},{"name":"callerConfirmation","type":"address","internalType":"address"}],"outputs":[],"stateMutability":"nonpayable"},{"type":"function","name":"revokeRole","inputs":[{"name":"role","type":"bytes32","internalType":"bytes32"},{"name":"account","type":"address","internalType":"address"}],"outputs":[],"stateMutability":"nonpayable"},{"type":"function","name":"setCountryEmissionFactor","inputs":[{"name":"_country","type":"uint8","internalType":"enum EnergyDataBridge.Country"},{"name":"_factor","type":"uint256","internalType":"uint256"}],"outputs":[],"stateMutability":"nonpayable"},{"type":"function","name":"setOperatorRewardBps","inputs":[{"name":"_newBps","type":"uint256","internalType":"uint256"}],"outputs":[],"stateMutability":"nonpayable"},{"type":"function","name":"supportsInterface","inputs":[{"name":"interfaceId","type":"bytes4","internalType":"bytes4"}],"outputs":[{"name":"","type":"bool","internalType":"bool"}],"stateMutability":"view"},{"type":"function","name":"unpause","inputs":[],"outputs":[],"stateMutability":"nonpayable"},{"type":"function","name":"upgradeToAndCall","inputs":[{"name":"newImplementation","type":"address","internalType":"address"},{"name":"data","type":"bytes","internalType":"bytes"}],"outputs":[],"stateMutability":"payable"},{"type":"event","name":"CountryEmissionFactorSet","inputs":[{"name":"country","type":"uint8","indexed":true,"internalType":"enum EnergyDataBridge.Country"},{"name":"oldFactor","type":"uint256","indexed":false,"internalType":"uint256"},{"name":"newFactor","type":"uint256","indexed":false,"internalType":"uint256"}],"anonymous":false},{"type":"event","name":"EnergyDataProcessed","inputs":[{"name":"batchHash","type":"bytes32","indexed":true,"internalType":"bytes32"},{"name":"totalCreditsMinted","type":"uint256","indexed":false,"internalType":"uint256"},{"name":"entriesProcessed","type":"uint256","indexed":false,"internalType":"uint256"}],"anonymous":false},{"type":"event","name":"Initialized","inputs":[{"name":"version","type":"uint64","indexed":false,"internalType":"uint64"}],"anonymous":false},{"type":"event","name":"NodeContributionRecorded","inputs":[{"name":"operator","type":"address","indexed":true,"internalType":"address"},{"name":"energyKWhContributed","type":"uint256","indexed":false,"internalType":"uint256"},{"name":"creditsGenerated","type":"uint256","indexed":false,"internalType":"uint256"}],"anonymous":false},{"type":"event","name":"OperatorRewardBpsSet","inputs":[{"name":"oldBps","type":"uint256","indexed":false,"internalType":"uint256"},{"name":"newBps","type":"uint256","indexed":false,"internalType":"uint256"}],"anonymous":false},{"type":"event","name":"Paused","inputs":[{"name":"account","type":"address","indexed":false,"internalType":"address"}],"anonymous":false},{"type":"event","name":"RoleAdminChanged","inputs":[{"name":"role","type":"bytes32","indexed":true,"internalType":"bytes32"},{"name":"previousAdminRole","type":"bytes32","indexed":true,"internalType":"bytes32"},{"name":"newAdminRole","type":"bytes32","indexed":true,"internalType":"bytes32"}],"anonymous":false},{"type":"event","name":"RoleGranted","inputs":[{"name":"role","type":"bytes32","indexed":true,"internalType":"bytes32"},{"name":"account","type":"address","indexed":true,"internalType":"address"},{"name":"sender","type":"address","indexed":true,"internalType":"address"}],"anonymous":false},{"type":"event","name":"RoleRevoked","inputs":[{"name":"role","type":"bytes32","indexed":true,"internalType":"bytes32"},{"name":"account","type":"address","indexed":true,"internalType":"address"},{"name":"sender","type":"address","indexed":true,"internalType":"address"}],"anonymous":false},{"type":"event","name":"Unpaused","inputs":[{"name":"account","type":"address","indexed":false,"internalType":"address"}],"anonymous":false},{"type":"event","name":"Upgraded","inputs":[{"name":"implementation","type":"address","indexed":true,"internalType":"address"}],"anonymous":false},{"type":"error","name":"AccessControlBadConfirmation","inputs":[]},{"type":"error","name":"AccessControlUnauthorizedAccount","inputs":[{"name":"account","type":"address","internalType":"address"},{"name":"neededRole","type":"bytes32","internalType":"bytes32"}]},{"type":"error","name":"AddressEmptyCode","inputs":[{"name":"target","type":"address","internalType":"address"}]},{"type":"error","name":"BatchAlreadyProcessed","inputs":[]},{"type":"error","name":"CallerNotDataSubmitter","inputs":[]},{"type":"error","name":"ERC1967InvalidImplementation","inputs":[{"name":"implementation","type":"address","internalType":"address"}]},{"type":"error","name":"ERC1967NonPayable","inputs":[]},{"type":"error","name":"EmissionFactorNotSetForCountry","inputs":[]},{"type":"error","name":"EnforcedPause","inputs":[]},{"type":"error","name":"ExpectedPause","inputs":[]},{"type":"error","name":"FailedCall","inputs":[]},{"type":"error","name":"InvalidEmissionFactor","inputs":[]},{"type":"error","name":"InvalidInitialization","inputs":[]},{"type":"error","name":"InvalidRewardBps","inputs":[]},{"type":"error","name":"NotInitializing","inputs":[]},{"type":"error","name":"ReentrancyGuardReentrantCall","inputs":[]},{"type":"error","name":"UUPSUnauthorizedCallContext","inputs":[]},{"type":"error","name":"UUPSUnsupportedProxiableUUID","inputs":[{"name":"slot","type":"bytes32","internalType":"bytes32"}]},{"type":"error","name":"ZeroAddress","inputs":[]}],"bytecode":{"object":"0x60a0604052306080523480156012575f80fd5b5060016002556080516124b261003e5f395f818161171701528181611740015261198301526124b25ff3fe6080604052600436106101af575f3560e01c806366dea358116100e7578063ce53022311610087578063d547741f11610062578063d547741f146105ef578063e63ab1e91461060e578063f50d06b314610641578063f72c0d8b14610660575f80fd5b8063ce5302231461057e578063cf756fdf1461059d578063d20c5e2e146105bc575f80fd5b806391d14854116100c257806391d14854146104805780639b0ab3ae146104cf578063a217fddf14610516578063ad3cb1cc14610529575f80fd5b806366dea358146103fc5780638456cb591461044d5780639003165d14610461575f80fd5b806336568abe1161015257806352b391b21161012d57806352b391b21461033557806352d1902d146103bc5780635c975abb146103d0578063649f6e44146103e7575f80fd5b806336568abe146102ef5780633f4ba83a1461030e5780634f1ef28614610322575f80fd5b80631b2b49a61161018d5780631b2b49a61461024e578063248a9ca3146102815780632cf61be6146102af5780632f2ff15d146102d0575f80fd5b806301ffc9a7146101b357806306c52e7c146101e7578063182dd65514610215575b5f80fd5b3480156101be575f80fd5b506101d26101cd366004611dd7565b610693565b60405190151581526020015b60405180910390f35b3480156101f2575f80fd5b506101d2610201366004611e16565b60076020525f908152604090205460ff1681565b348015610220575f80fd5b5061024061022f366004611e40565b60056020525f908152604090205481565b6040519081526020016101de565b348015610259575f80fd5b506102407ff52ef53ec1ccd82becd71536891a4878949c44f3e710519cb7b39d90c38fed2681565b34801561028c575f80fd5b5061024061029b366004611e16565b5f9081526020819052604090206001015490565b3480156102ba575f80fd5b506102ce6102c9366004611e59565b61072b565b005b3480156102db575f80fd5b506102ce6102ea366004611e95565b61085c565b3480156102fa575f80fd5b506102ce610309366004611e95565b610886565b348015610319575f80fd5b506102ce6108e4565b6102ce610330366004611f64565b610916565b348015610340575f80fd5b506103a161034f366004612027565b604080518082019091525f80825260208201525073ffffffffffffffffffffffffffffffffffffffff165f90815260066020908152604091829020825180840190935280548352600101549082015290565b604080518251815260209283015192810192909252016101de565b3480156103c7575f80fd5b50610240610935565b3480156103db575f80fd5b5060015460ff166101d2565b3480156103f2575f80fd5b5061024060045481565b348015610407575f80fd5b506003546104289073ffffffffffffffffffffffffffffffffffffffff1681565b60405173ffffffffffffffffffffffffffffffffffffffff90911681526020016101de565b348015610458575f80fd5b506102ce610963565b34801561046c575f80fd5b506102ce61047b366004612040565b610995565b34801561048b575f80fd5b506101d261049a366004611e95565b5f9182526020828152604080842073ffffffffffffffffffffffffffffffffffffffff93909316845291905290205460ff1690565b3480156104da575f80fd5b506105016104e9366004612027565b60066020525f90815260409020805460019091015482565b604080519283526020830191909152016101de565b348015610521575f80fd5b506102405f81565b348015610534575f80fd5b506105716040518060400160405280600581526020017f352e302e3000000000000000000000000000000000000000000000000000000081525081565b6040516101de9190612068565b348015610589575f80fd5b506102ce610598366004611e16565b610ab7565b3480156105a8575f80fd5b506102ce6105b73660046120bb565b610b43565b3480156105c7575f80fd5b506102407f0917610dd86785b5013b71c43449d23eaa37d541d22c1378367fafeb6143de3c81565b3480156105fa575f80fd5b506102ce610609366004611e95565b610efe565b348015610619575f80fd5b506102407f65d7a28e3265b37a6474929f336521b332c1681b933f6cb9f3376673440d862a81565b34801561064c575f80fd5b506102ce61065b36600461217e565b610f22565b34801561066b575f80fd5b506102407f189ab7a9244df0848122154315af71fe140f3db0fe014031783b0946b8c9d2e381565b5f7fffffffff0000000000000000000000000000000000000000000000000000000082167f7965db0b00000000000000000000000000000000000000000000000000000000148061072557507f01ffc9a7000000000000000000000000000000000000000000000000000000007fffffffff000000000000000000000000000000000000000000000000000000008316145b92915050565b610733611446565b61073b611487565b335f9081527f806e2a7d00c072d747779081bbe49e052b9bab0bb13b720d89dd394d70bf16a6602052604090205460ff166107a2576040517f98f0bc1a00000000000000000000000000000000000000000000000000000000815260040160405180910390fd5b6040805160018082528183019092525f91816020015b6040805160c0810182525f8082526020808301829052928201819052606082018190526080820181905260a082015282527fffffffffffffffffffffffffffffffffffffffffffffffffffffffffffffffff9092019101816107b857905050905061082836839003830183612234565b815f8151811061083a5761083a61224e565b602002602001018190525061084e81610f22565b506108596001600255565b50565b5f82815260208190526040902060010154610876816114c6565b61088083836114d0565b50505050565b73ffffffffffffffffffffffffffffffffffffffff811633146108d5576040517f6697b23200000000000000000000000000000000000000000000000000000000815260040160405180910390fd5b6108df82826115c9565b505050565b7f65d7a28e3265b37a6474929f336521b332c1681b933f6cb9f3376673440d862a61090e816114c6565b610859611682565b61091e6116ff565b61092782611803565b610931828261182d565b5050565b5f61093e61196b565b507f360894a13ba1a3210667c828492db98dca3e2076cc3735a920a3ca505d382bbc90565b7f65d7a28e3265b37a6474929f336521b332c1681b933f6cb9f3376673440d862a61098d816114c6565b6108596119da565b7f0917610dd86785b5013b71c43449d23eaa37d541d22c1378367fafeb6143de3c6109bf816114c6565b815f036109f8576040517f3802588b00000000000000000000000000000000000000000000000000000000815260040160405180910390fd5b5f60055f856004811115610a0e57610a0e61227b565b6004811115610a1f57610a1f61227b565b81526020019081526020015f205490508260055f866004811115610a4557610a4561227b565b6004811115610a5657610a5661227b565b815260208101919091526040015f2055836004811115610a7857610a7861227b565b60408051838152602081018690527f47877b822ec959f72cd47c67510652948a39bf080141ab707549ecc971a14201910160405180910390a250505050565b5f610ac1816114c6565b612710821115610afd576040517f7f496ed800000000000000000000000000000000000000000000000000000000815260040160405180910390fd5b600480549083905560408051828152602081018590527f253d4cac51e7c9feb17ed2aa61cbf26a200dec7d6934803180b46e8aa094a95e910160405180910390a1505050565b5f610b4c611a33565b805490915060ff68010000000000000000820416159067ffffffffffffffff165f81158015610b785750825b90505f8267ffffffffffffffff166001148015610b945750303b155b905081158015610ba2575080155b15610bd9576040517ff92ee8a900000000000000000000000000000000000000000000000000000000815260040160405180910390fd5b84547fffffffffffffffffffffffffffffffffffffffffffffffff00000000000000001660011785558315610c3a5784547fffffffffffffffffffffffffffffffffffffffffffffff00ffffffffffffffff16680100000000000000001785555b73ffffffffffffffffffffffffffffffffffffffff8916610c87576040517fd92e233d00000000000000000000000000000000000000000000000000000000815260040160405180910390fd5b73ffffffffffffffffffffffffffffffffffffffff8816610cd4576040517fd92e233d00000000000000000000000000000000000000000000000000000000815260040160405180910390fd5b73ffffffffffffffffffffffffffffffffffffffff8716610d21576040517fd92e233d00000000000000000000000000000000000000000000000000000000815260040160405180910390fd5b612710861115610d5d576040517f7f496ed800000000000000000000000000000000000000000000000000000000815260040160405180910390fd5b600380547fffffffffffffffffffffffff00000000000000000000000000000000000000001673ffffffffffffffffffffffffffffffffffffffff8b161790556004869055610dac5f896114d0565b50610dd77f65d7a28e3265b37a6474929f336521b332c1681b933f6cb9f3376673440d862a896114d0565b50610e027f189ab7a9244df0848122154315af71fe140f3db0fe014031783b0946b8c9d2e3896114d0565b50610e2d7f0917610dd86785b5013b71c43449d23eaa37d541d22c1378367fafeb6143de3c896114d0565b50610e587ff52ef53ec1ccd82becd71536891a4878949c44f3e710519cb7b39d90c38fed26886114d0565b50604080515f8152602081018890527f253d4cac51e7c9feb17ed2aa61cbf26a200dec7d6934803180b46e8aa094a95e910160405180910390a18315610ef35784547fffffffffffffffffffffffffffffffffffffffffffffff00ffffffffffffffff168555604051600181527fc7f505b2f371ae2175ee4913f4499e1f2633a7b5936321eed1cdaeb6115181d29060200160405180910390a15b505050505050505050565b5f82815260208190526040902060010154610f18816114c6565b61088083836115c9565b610f2a611446565b610f32611487565b335f9081527f806e2a7d00c072d747779081bbe49e052b9bab0bb13b720d89dd394d70bf16a6602052604090205460ff16610f99576040517f98f0bc1a00000000000000000000000000000000000000000000000000000000815260040160405180910390fd5b5f81604051602001610fab91906122a8565b604080517fffffffffffffffffffffffffffffffffffffffffffffffffffffffffffffffe081840301815291815281516020928301205f818152600790935291205490915060ff161561102a576040517fe2b1f19400000000000000000000000000000000000000000000000000000000815260040160405180910390fd5b81516004545f9182918290815b83811015611334575f8882815181106110525761105261224e565b602002602001015190505f73ffffffffffffffffffffffffffffffffffffffff16816020015173ffffffffffffffffffffffffffffffffffffffff16148061109c57506040810151155b156110a7575061132c565b5f60055f836080015160048111156110c1576110c161227b565b60048111156110d2576110d261227b565b81526020019081526020015f20549050805f0361111b576040517ffd96d01900000000000000000000000000000000000000000000000000000000815260040160405180910390fd5b5f633b9aca0082846040015161113191906123a3565b61113b91906123ba565b9050805f0361114c5750505061132c565b85611156816123f2565b96506111649050818a612429565b9850826040015160065f856020015173ffffffffffffffffffffffffffffffffffffffff1673ffffffffffffffffffffffffffffffffffffffff1681526020019081526020015f205f015f8282546111bc9190612429565b909155505060208084015173ffffffffffffffffffffffffffffffffffffffff165f90815260069091526040812060010180548392906111fd908490612429565b92505081905550826020015173ffffffffffffffffffffffffffffffffffffffff167fee381ee0ebdd768369a4c80b1b82619d5539fe4eb0a1b6cec6aba734c1030c0384604001518360405161125d929190918252602082015260400190565b60405180910390a25f61271061127387846123a3565b61127d91906123ba565b905080156113115760035460208501516040517f40c10f1900000000000000000000000000000000000000000000000000000000815273ffffffffffffffffffffffffffffffffffffffff9182166004820152602481018490529116906340c10f19906044015f604051808303815f87803b1580156112fa575f80fd5b505af115801561130c573d5f803e3d5ffd5b505050505b61131b818361243c565b611325908a612429565b9850505050505b600101611037565b5083156113bb576003546040517fa65948a30000000000000000000000000000000000000000000000000000000081526004810186905273ffffffffffffffffffffffffffffffffffffffff9091169063a65948a3906024015f604051808303815f87803b1580156113a4575f80fd5b505af11580156113b6573d5f803e3d5ffd5b505050505b5f868152600760205260409081902080547fffffffffffffffffffffffffffffffffffffffffffffffffffffffffffffff001660011790555186907f7329a6d2220bdcd2e0f894c159b5bc028a43c58f3bca4f2ddfadcd9f12c535c69061142e9088908690918252602082015260400190565b60405180910390a25050505050506108596001600255565b6002805403611481576040517f3ee5aeb500000000000000000000000000000000000000000000000000000000815260040160405180910390fd5b60028055565b60015460ff16156114c4576040517fd93c066500000000000000000000000000000000000000000000000000000000815260040160405180910390fd5b565b6108598133611a5b565b5f8281526020818152604080832073ffffffffffffffffffffffffffffffffffffffff8516845290915281205460ff166115c2575f8381526020818152604080832073ffffffffffffffffffffffffffffffffffffffff86168452909152902080547fffffffffffffffffffffffffffffffffffffffffffffffffffffffffffffff001660011790556115603390565b73ffffffffffffffffffffffffffffffffffffffff168273ffffffffffffffffffffffffffffffffffffffff16847f2f8788117e7eff1d82e926ec794901d17c78024a50270940304540a733656f0d60405160405180910390a4506001610725565b505f610725565b5f8281526020818152604080832073ffffffffffffffffffffffffffffffffffffffff8516845290915281205460ff16156115c2575f8381526020818152604080832073ffffffffffffffffffffffffffffffffffffffff8616808552925280832080547fffffffffffffffffffffffffffffffffffffffffffffffffffffffffffffff0016905551339286917ff6391f5c32d9c69d2a47ea670b442974b53935d1edc7fd64eb21e047a839171b9190a4506001610725565b61168a611ae0565b600180547fffffffffffffffffffffffffffffffffffffffffffffffffffffffffffffff001690557f5db9ee0a495bf2e6ff9c91a7834c1ba4fdd244a5e8aa4e537bd38aeae4b073aa335b60405173ffffffffffffffffffffffffffffffffffffffff909116815260200160405180910390a1565b3073ffffffffffffffffffffffffffffffffffffffff7f00000000000000000000000000000000000000000000000000000000000000001614806117cc57507f000000000000000000000000000000000000000000000000000000000000000073ffffffffffffffffffffffffffffffffffffffff166117b37f360894a13ba1a3210667c828492db98dca3e2076cc3735a920a3ca505d382bbc5473ffffffffffffffffffffffffffffffffffffffff1690565b73ffffffffffffffffffffffffffffffffffffffff1614155b156114c4576040517fe07c8dba00000000000000000000000000000000000000000000000000000000815260040160405180910390fd5b7f189ab7a9244df0848122154315af71fe140f3db0fe014031783b0946b8c9d2e3610931816114c6565b8173ffffffffffffffffffffffffffffffffffffffff166352d1902d6040518163ffffffff1660e01b8152600401602060405180830381865afa9250505080156118b2575060408051601f3d9081017fffffffffffffffffffffffffffffffffffffffffffffffffffffffffffffffe01682019092526118af9181019061244f565b60015b611905576040517f4c9c8ce300000000000000000000000000000000000000000000000000000000815273ffffffffffffffffffffffffffffffffffffffff831660048201526024015b60405180910390fd5b7f360894a13ba1a3210667c828492db98dca3e2076cc3735a920a3ca505d382bbc8114611961576040517faa1d49a4000000000000000000000000000000000000000000000000000000008152600481018290526024016118fc565b6108df8383611b1c565b3073ffffffffffffffffffffffffffffffffffffffff7f000000000000000000000000000000000000000000000000000000000000000016146114c4576040517fe07c8dba00000000000000000000000000000000000000000000000000000000815260040160405180910390fd5b6119e2611487565b600180547fffffffffffffffffffffffffffffffffffffffffffffffffffffffffffffff0016811790557f62e78cea01bee320cd4e420270b5ea74000d11b0c9f74754ebdbfc544b05a258336116d5565b5f807ff0c57e16840df040f15088dc2f81fe391c3923bec73e23a9662efc9c229c6a00610725565b5f8281526020818152604080832073ffffffffffffffffffffffffffffffffffffffff8516845290915290205460ff16610931576040517fe2517d3f00000000000000000000000000000000000000000000000000000000815273ffffffffffffffffffffffffffffffffffffffff82166004820152602481018390526044016118fc565b60015460ff166114c4576040517f8dfc202b00000000000000000000000000000000000000000000000000000000815260040160405180910390fd5b611b2582611b7e565b60405173ffffffffffffffffffffffffffffffffffffffff8316907fbc7cd75a20ee27fd9adebab32041f755214dbc6bffa90cc0225b39da2e5c2d3b905f90a2805115611b76576108df8282611c4c565b610931611ccb565b8073ffffffffffffffffffffffffffffffffffffffff163b5f03611be6576040517f4c9c8ce300000000000000000000000000000000000000000000000000000000815273ffffffffffffffffffffffffffffffffffffffff821660048201526024016118fc565b7f360894a13ba1a3210667c828492db98dca3e2076cc3735a920a3ca505d382bbc80547fffffffffffffffffffffffff00000000000000000000000000000000000000001673ffffffffffffffffffffffffffffffffffffffff92909216919091179055565b60605f808473ffffffffffffffffffffffffffffffffffffffff1684604051611c759190612466565b5f60405180830381855af49150503d805f8114611cad576040519150601f19603f3d011682016040523d82523d5f602084013e611cb2565b606091505b5091509150611cc2858383611d03565b95945050505050565b34156114c4576040517fb398979f00000000000000000000000000000000000000000000000000000000815260040160405180910390fd5b606082611d1857611d1382611d95565b611d8e565b8151158015611d3c575073ffffffffffffffffffffffffffffffffffffffff84163b155b15611d8b576040517f9996b31500000000000000000000000000000000000000000000000000000000815273ffffffffffffffffffffffffffffffffffffffff851660048201526024016118fc565b50805b9392505050565b805115611da55780518082602001fd5b6040517fd6bda27500000000000000000000000000000000000000000000000000000000815260040160405180910390fd5b5f60208284031215611de7575f80fd5b81357fffffffff0000000000000000000000000000000000000000000000000000000081168114611d8e575f80fd5b5f60208284031215611e26575f80fd5b5035919050565b803560058110611e3b575f80fd5b919050565b5f60208284031215611e50575f80fd5b611d8e82611e2d565b5f60c0828403128015611e6a575f80fd5b509092915050565b803573ffffffffffffffffffffffffffffffffffffffff81168114611e3b575f80fd5b5f8060408385031215611ea6575f80fd5b82359150611eb660208401611e72565b90509250929050565b7f4e487b71000000000000000000000000000000000000000000000000000000005f52604160045260245ffd5b60405160c0810167ffffffffffffffff81118282101715611f0f57611f0f611ebf565b60405290565b604051601f82017fffffffffffffffffffffffffffffffffffffffffffffffffffffffffffffffe016810167ffffffffffffffff81118282101715611f5c57611f5c611ebf565b604052919050565b5f8060408385031215611f75575f80fd5b611f7e83611e72565b9150602083013567ffffffffffffffff811115611f99575f80fd5b8301601f81018513611fa9575f80fd5b803567ffffffffffffffff811115611fc357611fc3611ebf565b611ff460207fffffffffffffffffffffffffffffffffffffffffffffffffffffffffffffffe0601f84011601611f15565b818152866020838501011115612008575f80fd5b816020840160208301375f602083830101528093505050509250929050565b5f60208284031215612037575f80fd5b611d8e82611e72565b5f8060408385031215612051575f80fd5b61205a83611e2d565b946020939093013593505050565b602081525f82518060208401528060208501604085015e5f6040828501015260407fffffffffffffffffffffffffffffffffffffffffffffffffffffffffffffffe0601f83011684010191505092915050565b5f805f80608085870312156120ce575f80fd5b6120d785611e72565b93506120e560208601611e72565b92506120f360408601611e72565b9396929550929360600135925050565b5f60c08284031215612113575f80fd5b61211b611eec565b82358152905061212d60208301611e72565b602082015260408281013590820152606082013567ffffffffffffffff81168114612156575f80fd5b606082015261216760808301611e2d565b608082015260a09182013591810191909152919050565b5f6020828403121561218e575f80fd5b813567ffffffffffffffff8111156121a4575f80fd5b8201601f810184136121b4575f80fd5b803567ffffffffffffffff8111156121ce576121ce611ebf565b6121dd60208260051b01611f15565b80828252602082019150602060c084028501019250868311156121fe575f80fd5b6020840193505b8284101561222a576122178785612103565b825260208201915060c084019350612205565b9695505050505050565b5f60c08284031215612244575f80fd5b611d8e8383612103565b7f4e487b71000000000000000000000000000000000000000000000000000000005f52603260045260245ffd5b7f4e487b71000000000000000000000000000000000000000000000000000000005f52602160045260245ffd5b602080825282518282018190525f918401906040840190835b8181101561236b5783518051845273ffffffffffffffffffffffffffffffffffffffff60208201511660208501526040810151604085015267ffffffffffffffff6060820151166060850152608081015160058110612347577f4e487b71000000000000000000000000000000000000000000000000000000005f52602160045260245ffd5b608085015260a090810151908401526020939093019260c0909201916001016122c1565b509095945050505050565b7f4e487b71000000000000000000000000000000000000000000000000000000005f52601160045260245ffd5b808202811582820484141761072557610725612376565b5f826123ed577f4e487b71000000000000000000000000000000000000000000000000000000005f52601260045260245ffd5b500490565b5f7fffffffffffffffffffffffffffffffffffffffffffffffffffffffffffffffff820361242257612422612376565b5060010190565b8082018082111561072557610725612376565b8181038181111561072557610725612376565b5f6020828403121561245f575f80fd5b5051919050565b5f82518060208501845e5f92019182525091905056fea2646970667358221220f25fd47a41f7eed78d1e676701ffb99b8ba28904ce84d2e4d4c430ec7cf540ef64736f6c634300081a0033","linkReferences":{}},"methodIdentifiers":{"DATA_SUBMITTER_ROLE()":"1b2b49a6","DEFAULT_ADMIN_ROLE()":"a217fddf","FACTOR_MANAGER_ROLE()":"d20c5e2e","PAUSER_ROLE()":"e63ab1e9","UPGRADER_ROLE()":"f72c0d8b","UPGRADE_INTERFACE_VERSION()":"ad3cb1cc","carbonCreditToken()":"66dea358","countryEmissionFactors(uint8)":"182dd655","getNodeStats(address)":"52b391b2","getRoleAdmin(bytes32)":"248a9ca3","grantRole(bytes32,address)":"2f2ff15d","hasRole(bytes32,address)":"91d14854","initialize(address,address,address,uint256)":"cf756fdf","nodeStats(address)":"9b0ab3ae","operatorRewardBps()":"649f6e44","pause()":"8456cb59","paused()":"5c975abb","processEnergyDataBatch((bytes32,address,uint256,uint64,uint8,bytes32)[])":"f50d06b3","processSingleEnergyData((bytes32,address,uint256,uint64,uint8,bytes32))":"2cf61be6","processedBatchHashes(bytes32)":"06c52e7c","proxiableUUID()":"52d1902d","renounceRole(bytes32,address)":"36568abe","revokeRole(bytes32,address)":"d547741f","setCountryEmissionFactor(uint8,uint256)":"9003165d","setOperatorRewardBps(uint256)":"ce530223","supportsInterface(bytes4)":"01ffc9a7","unpause()":"3f4ba83a","upgradeToAndCall(address,bytes)":"4f1ef286"},"id":37}