{"abi":[{"type":"constructor","inputs":[{"name":"_creditToken","type":"address","internalType":"address"},{"name":"_initialAdmin","type":"address","internalType":"address"},{"name":"_initialSubmitter","type":"address","internalType":"address"},{"name":"_initialOperatorRewardBps","type":"uint256","internalType":"uint256"}],"stateMutability":"nonpayable"},{"type":"function","name":"DATA_SUBMITTER_ROLE","inputs":[],"outputs":[{"name":"","type":"bytes32","internalType":"bytes32"}],"stateMutability":"view"},{"type":"function","name":"DEFAULT_ADMIN_ROLE","inputs":[],"outputs":[{"name":"","type":"bytes32","internalType":"bytes32"}],"stateMutability":"view"},{"type":"function","name":"FACTOR_MANAGER_ROLE","inputs":[],"outputs":[{"name":"","type":"bytes32","internalType":"bytes32"}],"stateMutability":"view"},{"type":"function","name":"PAUSER_ROLE","inputs":[],"outputs":[{"name":"","type":"bytes32","internalType":"bytes32"}],"stateMutability":"view"},{"type":"function","name":"UPGRADER_ROLE","inputs":[],"outputs":[{"name":"","type":"bytes32","internalType":"bytes32"}],"stateMutability":"view"},{"type":"function","name":"UPGRADE_INTERFACE_VERSION","inputs":[],"outputs":[{"name":"","type":"string","internalType":"string"}],"stateMutability":"view"},{"type":"function","name":"carbonCreditToken","inputs":[],"outputs":[{"name":"","type":"address","internalType":"contract ICarbonCreditToken"}],"stateMutability":"view"},{"type":"function","name":"countryEmissionFactors","inputs":[{"name":"","type":"uint8","internalType":"enum EnergyDataBridge.Country"}],"outputs":[{"name":"","type":"uint256","internalType":"uint256"}],"stateMutability":"view"},{"type":"function","name":"getNodeStats","inputs":[{"name":"_operator","type":"address","internalType":"address"}],"outputs":[{"name":"","type":"tuple","internalType":"struct EnergyDataBridge.NodeStats","components":[{"name":"totalEnergyKWh","type":"uint256","internalType":"uint256"},{"name":"totalCreditsGenerated","type":"uint256","internalType":"uint256"}]}],"stateMutability":"view"},{"type":"function","name":"getRoleAdmin","inputs":[{"name":"role","type":"bytes32","internalType":"bytes32"}],"outputs":[{"name":"","type":"bytes32","internalType":"bytes32"}],"stateMutability":"view"},{"type":"function","name":"grantRole","inputs":[{"name":"role","type":"bytes32","internalType":"bytes32"},{"name":"account","type":"address","internalType":"address"}],"outputs":[],"stateMutability":"nonpayable"},{"type":"function","name":"hasRole","inputs":[{"name":"role","type":"bytes32","internalType":"bytes32"},{"name":"account","type":"address","internalType":"address"}],"outputs":[{"name":"","type":"bool","internalType":"bool"}],"stateMutability":"view"},{"type":"function","name":"nodeStats","inputs":[{"name":"","type":"address","internalType":"address"}],"outputs":[{"name":"totalEnergyKWh","type":"uint256","internalType":"uint256"},{"name":"totalCreditsGenerated","type":"uint256","internalType":"uint256"}],"stateMutability":"view"},{"type":"function","name":"operatorRewardBps","inputs":[],"outputs":[{"name":"","type":"uint256","internalType":"uint256"}],"stateMutability":"view"},{"type":"function","name":"pause","inputs":[],"outputs":[],"stateMutability":"nonpayable"},{"type":"function","name":"paused","inputs":[],"outputs":[{"name":"","type":"bool","internalType":"bool"}],"stateMutability":"view"},{"type":"function","name":"processEnergyDataBatch","inputs":[{"name":"dataBatch","type":"tuple[]","internalType":"struct EnergyDataBridge.EnergyData[]","components":[{"name":"deviceId","type":"bytes32","internalType":"bytes32"},{"name":"nodeOperatorAddress","type":"address","internalType":"address"},{"name":"energyKWh","type":"uint256","internalType":"uint256"},{"name":"timestamp","type":"uint64","internalType":"uint64"},{"name":"country","type":"uint8","internalType":"enum EnergyDataBridge.Country"},{"name":"verificationHash","type":"bytes32","internalType":"bytes32"}]}],"outputs":[],"stateMutability":"nonpayable"},{"type":"function","name":"processSingleEnergyData","inputs":[{"name":"data","type":"tuple","internalType":"struct EnergyDataBridge.EnergyData","components":[{"name":"deviceId","type":"bytes32","internalType":"bytes32"},{"name":"nodeOperatorAddress","type":"address","internalType":"address"},{"name":"energyKWh","type":"uint256","internalType":"uint256"},{"name":"timestamp","type":"uint64","internalType":"uint64"},{"name":"country","type":"uint8","internalType":"enum EnergyDataBridge.Country"},{"name":"verificationHash","type":"bytes32","internalType":"bytes32"}]}],"outputs":[],"stateMutability":"nonpayable"},{"type":"function","name":"processedBatchHashes","inputs":[{"name":"","type":"bytes32","internalType":"bytes32"}],"outputs":[{"name":"","type":"bool","internalType":"bool"}],"stateMutability":"view"},{"type":"function","name":"proxiableUUID","inputs":[],"outputs":[{"name":"","type":"bytes32","internalType":"bytes32"}],"stateMutability":"view"},{"type":"function","name":"renounceRole","inputs":[{"name":"role","type":"bytes32","internalType":"bytes32"},{"name":"callerConfirmation","type":"address","internalType":"address"}],"outputs":[],"stateMutability":"nonpayable"},{"type":"function","name":"revokeRole","inputs":[{"name":"role","type":"bytes32","internalType":"bytes32"},{"name":"account","type":"address","internalType":"address"}],"outputs":[],"stateMutability":"nonpayable"},{"type":"function","name":"setCountryEmissionFactor","inputs":[{"name":"_country","type":"uint8","internalType":"enum EnergyDataBridge.Country"},{"name":"_factor","type":"uint256","internalType":"uint256"}],"outputs":[],"stateMutability":"nonpayable"},{"type":"function","name":"setOperatorRewardBps","inputs":[{"name":"_newBps","type":"uint256","internalType":"uint256"}],"outputs":[],"stateMutability":"nonpayable"},{"type":"function","name":"supportsInterface","inputs":[{"name":"interfaceId","type":"bytes4","internalType":"bytes4"}],"outputs":[{"name":"","type":"bool","internalType":"bool"}],"stateMutability":"view"},{"type":"function","name":"unpause","inputs":[],"outputs":[],"stateMutability":"nonpayable"},{"type":"function","name":"upgradeToAndCall","inputs":[{"name":"newImplementation","type":"address","internalType":"address"},{"name":"data","type":"bytes","internalType":"bytes"}],"outputs":[],"stateMutability":"payable"},{"type":"event","name":"CountryEmissionFactorSet","inputs":[{"name":"country","type":"uint8","indexed":true,"internalType":"enum EnergyDataBridge.Country"},{"name":"oldFactor","type":"uint256","indexed":false,"internalType":"uint256"},{"name":"newFactor","type":"uint256","indexed":false,"internalType":"uint256"}],"anonymous":false},{"type":"event","name":"EnergyDataProcessed","inputs":[{"name":"batchHash","type":"bytes32","indexed":true,"internalType":"bytes32"},{"name":"totalCreditsMinted","type":"uint256","indexed":false,"internalType":"uint256"},{"name":"entriesProcessed","type":"uint256","indexed":false,"internalType":"uint256"}],"anonymous":false},{"type":"event","name":"NodeContributionRecorded","inputs":[{"name":"operator","type":"address","indexed":true,"internalType":"address"},{"name":"energyKWhContributed","type":"uint256","indexed":false,"internalType":"uint256"},{"name":"creditsGenerated","type":"uint256","indexed":false,"internalType":"uint256"}],"anonymous":false},{"type":"event","name":"OperatorRewardBpsSet","inputs":[{"name":"oldBps","type":"uint256","indexed":false,"internalType":"uint256"},{"name":"newBps","type":"uint256","indexed":false,"internalType":"uint256"}],"anonymous":false},{"type":"event","name":"Paused","inputs":[{"name":"account","type":"address","indexed":false,"internalType":"address"}],"anonymous":false},{"type":"event","name":"RoleAdminChanged","inputs":[{"name":"role","type":"bytes32","indexed":true,"internalType":"bytes32"},{"name":"previousAdminRole","type":"bytes32","indexed":true,"internalType":"bytes32"},{"name":"newAdminRole","type":"bytes32","indexed":true,"internalType":"bytes32"}],"anonymous":false},{"type":"event","name":"RoleGranted","inputs":[{"name":"role","type":"bytes32","indexed":true,"internalType":"bytes32"},{"name":"account","type":"address","indexed":true,"internalType":"address"},{"name":"sender","type":"address","indexed":true,"internalType":"address"}],"anonymous":false},{"type":"event","name":"RoleRevoked","inputs":[{"name":"role","type":"bytes32","indexed":true,"internalType":"bytes32"},{"name":"account","type":"address","indexed":true,"internalType":"address"},{"name":"sender","type":"address","indexed":true,"internalType":"address"}],"anonymous":false},{"type":"event","name":"Unpaused","inputs":[{"name":"account","type":"address","indexed":false,"internalType":"address"}],"anonymous":false},{"type":"event","name":"Upgraded","inputs":[{"name":"implementation","type":"address","indexed":true,"internalType":"address"}],"anonymous":false},{"type":"error","name":"AccessControlBadConfirmation","inputs":[]},{"type":"error","name":"AccessControlUnauthorizedAccount","inputs":[{"name":"account","type":"address","internalType":"address"},{"name":"neededRole","type":"bytes32","internalType":"bytes32"}]},{"type":"error","name":"AddressEmptyCode","inputs":[{"name":"target","type":"address","internalType":"address"}]},{"type":"error","name":"BatchAlreadyProcessed","inputs":[]},{"type":"error","name":"CallerNotDataSubmitter","inputs":[]},{"type":"error","name":"ERC1967InvalidImplementation","inputs":[{"name":"implementation","type":"address","internalType":"address"}]},{"type":"error","name":"ERC1967NonPayable","inputs":[]},{"type":"error","name":"EmissionFactorNotSetForCountry","inputs":[]},{"type":"error","name":"EnforcedPause","inputs":[]},{"type":"error","name":"ExpectedPause","inputs":[]},{"type":"error","name":"FailedCall","inputs":[]},{"type":"error","name":"InvalidEmissionFactor","inputs":[]},{"type":"error","name":"InvalidRewardBps","inputs":[]},{"type":"error","name":"ReentrancyGuardReentrantCall","inputs":[]},{"type":"error","name":"UUPSUnauthorizedCallContext","inputs":[]},{"type":"error","name":"UUPSUnsupportedProxiableUUID","inputs":[{"name":"slot","type":"bytes32","internalType":"bytes32"}]},{"type":"error","name":"ZeroAddress","inputs":[]}],"bytecode":{"object":"0x60a060405230608052348015610013575f80fd5b5060405161232f38038061232f833981016040819052610032916102ac565b60016002556001600160a01b03841661005e5760405163d92e233d60e01b815260040160405180910390fd5b6001600160a01b0383166100855760405163d92e233d60e01b815260040160405180910390fd5b6001600160a01b0382166100ac5760405163d92e233d60e01b815260040160405180910390fd5b6127108111156100cf57604051630fe92ddb60e31b815260040160405180910390fd5b600380546001600160a01b0319166001600160a01b03861617905560048190556100f95f846101e8565b506101247f65d7a28e3265b37a6474929f336521b332c1681b933f6cb9f3376673440d862a846101e8565b5061014f7f189ab7a9244df0848122154315af71fe140f3db0fe014031783b0946b8c9d2e3846101e8565b5061017a7f0917610dd86785b5013b71c43449d23eaa37d541d22c1378367fafeb6143de3c846101e8565b506101a57ff52ef53ec1ccd82becd71536891a4878949c44f3e710519cb7b39d90c38fed26836101e8565b50604080515f8152602081018390527f253d4cac51e7c9feb17ed2aa61cbf26a200dec7d6934803180b46e8aa094a95e910160405180910390a1505050506102f4565b5f828152602081815260408083206001600160a01b038516845290915281205460ff16610288575f838152602081815260408083206001600160a01b03861684529091529020805460ff191660011790556102403390565b6001600160a01b0316826001600160a01b0316847f2f8788117e7eff1d82e926ec794901d17c78024a50270940304540a733656f0d60405160405180910390a450600161028b565b505f5b92915050565b80516001600160a01b03811681146102a7575f80fd5b919050565b5f805f80608085870312156102bf575f80fd5b6102c885610291565b93506102d660208601610291565b92506102e460408601610291565b6060959095015193969295505050565b60805161201561031a5f395f81816113210152818161134a015261158d01526120155ff3fe6080604052600436106101a4575f3560e01c8063649f6e44116100e7578063ad3cb1cc11610087578063d547741f11610062578063d547741f146105c5578063e63ab1e9146105e4578063f50d06b314610617578063f72c0d8b14610636575f80fd5b8063ad3cb1cc1461051e578063ce53022314610573578063d20c5e2e14610592575f80fd5b80639003165d116100c25780639003165d1461045657806391d14854146104755780639b0ab3ae146104c4578063a217fddf1461050b575f80fd5b8063649f6e44146103dc57806366dea358146103f15780638456cb5914610442575f80fd5b80632f2ff15d116101525780634f1ef2861161012d5780634f1ef2861461031757806352b391b21461032a57806352d1902d146103b15780635c975abb146103c5575f80fd5b80632f2ff15d146102c557806336568abe146102e45780633f4ba83a14610303575f80fd5b80631b2b49a6116101825780631b2b49a614610243578063248a9ca3146102765780632cf61be6146102a4575f80fd5b806301ffc9a7146101a857806306c52e7c146101dc578063182dd6551461020a575b5f80fd5b3480156101b3575f80fd5b506101c76101c23660046119b9565b610669565b60405190151581526020015b60405180910390f35b3480156101e7575f80fd5b506101c76101f63660046119f8565b60076020525f908152604090205460ff1681565b348015610215575f80fd5b50610235610224366004611a22565b60056020525f908152604090205481565b6040519081526020016101d3565b34801561024e575f80fd5b506102357ff52ef53ec1ccd82becd71536891a4878949c44f3e710519cb7b39d90c38fed2681565b348015610281575f80fd5b506102356102903660046119f8565b5f9081526020819052604090206001015490565b3480156102af575f80fd5b506102c36102be366004611a3b565b610701565b005b3480156102d0575f80fd5b506102c36102df366004611a77565b610832565b3480156102ef575f80fd5b506102c36102fe366004611a77565b61085c565b34801561030e575f80fd5b506102c36108ba565b6102c3610325366004611b46565b6108ec565b348015610335575f80fd5b50610396610344366004611c09565b604080518082019091525f80825260208201525073ffffffffffffffffffffffffffffffffffffffff165f90815260066020908152604091829020825180840190935280548352600101549082015290565b604080518251815260209283015192810192909252016101d3565b3480156103bc575f80fd5b5061023561090b565b3480156103d0575f80fd5b5060015460ff166101c7565b3480156103e7575f80fd5b5061023560045481565b3480156103fc575f80fd5b5060035461041d9073ffffffffffffffffffffffffffffffffffffffff1681565b60405173ffffffffffffffffffffffffffffffffffffffff90911681526020016101d3565b34801561044d575f80fd5b506102c3610939565b348015610461575f80fd5b506102c3610470366004611c22565b61096b565b348015610480575f80fd5b506101c761048f366004611a77565b5f9182526020828152604080842073ffffffffffffffffffffffffffffffffffffffff93909316845291905290205460ff1690565b3480156104cf575f80fd5b506104f66104de366004611c09565b60066020525f90815260409020805460019091015482565b604080519283526020830191909152016101d3565b348015610516575f80fd5b506102355f81565b348015610529575f80fd5b506105666040518060400160405280600581526020017f352e302e3000000000000000000000000000000000000000000000000000000081525081565b6040516101d39190611c4a565b34801561057e575f80fd5b506102c361058d3660046119f8565b610a8d565b34801561059d575f80fd5b506102357f0917610dd86785b5013b71c43449d23eaa37d541d22c1378367fafeb6143de3c81565b3480156105d0575f80fd5b506102c36105df366004611a77565b610b19565b3480156105ef575f80fd5b506102357f65d7a28e3265b37a6474929f336521b332c1681b933f6cb9f3376673440d862a81565b348015610622575f80fd5b506102c3610631366004611d18565b610b3d565b348015610641575f80fd5b506102357f189ab7a9244df0848122154315af71fe140f3db0fe014031783b0946b8c9d2e381565b5f7fffffffff0000000000000000000000000000000000000000000000000000000082167f7965db0b0000000000000000000000000000000000000000000000000000000014806106fb57507f01ffc9a7000000000000000000000000000000000000000000000000000000007fffffffff000000000000000000000000000000000000000000000000000000008316145b92915050565b610709611050565b610711611091565b335f9081527f806e2a7d00c072d747779081bbe49e052b9bab0bb13b720d89dd394d70bf16a6602052604090205460ff16610778576040517f98f0bc1a00000000000000000000000000000000000000000000000000000000815260040160405180910390fd5b6040805160018082528183019092525f91816020015b6040805160c0810182525f8082526020808301829052928201819052606082018190526080820181905260a082015282527fffffffffffffffffffffffffffffffffffffffffffffffffffffffffffffffff90920191018161078e5790505090506107fe36839003830183611dce565b815f8151811061081057610810611de8565b602002602001018190525061082481610b3d565b5061082f6001600255565b50565b5f8281526020819052604090206001015461084c816110d0565b61085683836110da565b50505050565b73ffffffffffffffffffffffffffffffffffffffff811633146108ab576040517f6697b23200000000000000000000000000000000000000000000000000000000815260040160405180910390fd5b6108b582826111d3565b505050565b7f65d7a28e3265b37a6474929f336521b332c1681b933f6cb9f3376673440d862a6108e4816110d0565b61082f61128c565b6108f4611309565b6108fd8261140d565b6109078282611437565b5050565b5f610914611575565b507f360894a13ba1a3210667c828492db98dca3e2076cc3735a920a3ca505d382bbc90565b7f65d7a28e3265b37a6474929f336521b332c1681b933f6cb9f3376673440d862a610963816110d0565b61082f6115e4565b7f0917610dd86785b5013b71c43449d23eaa37d541d22c1378367fafeb6143de3c610995816110d0565b815f036109ce576040517f3802588b00000000000000000000000000000000000000000000000000000000815260040160405180910390fd5b5f60055f8560048111156109e4576109e4611e15565b60048111156109f5576109f5611e15565b81526020019081526020015f205490508260055f866004811115610a1b57610a1b611e15565b6004811115610a2c57610a2c611e15565b815260208101919091526040015f2055836004811115610a4e57610a4e611e15565b60408051838152602081018690527f47877b822ec959f72cd47c67510652948a39bf080141ab707549ecc971a14201910160405180910390a250505050565b5f610a97816110d0565b612710821115610ad3576040517f7f496ed800000000000000000000000000000000000000000000000000000000815260040160405180910390fd5b600480549083905560408051828152602081018590527f253d4cac51e7c9feb17ed2aa61cbf26a200dec7d6934803180b46e8aa094a95e910160405180910390a1505050565b5f82815260208190526040902060010154610b33816110d0565b61085683836111d3565b610b45611050565b610b4d611091565b335f9081527f806e2a7d00c072d747779081bbe49e052b9bab0bb13b720d89dd394d70bf16a6602052604090205460ff16610bb4576040517f98f0bc1a00000000000000000000000000000000000000000000000000000000815260040160405180910390fd5b5f81604051602001610bc69190611e42565b604080517fffffffffffffffffffffffffffffffffffffffffffffffffffffffffffffffe081840301815291815281516020928301205f818152600790935291205490915060ff1615610c45576040517fe2b1f19400000000000000000000000000000000000000000000000000000000815260040160405180910390fd5b81516004545f918291825b82811015610f3f575f878281518110610c6b57610c6b611de8565b602002602001015190505f73ffffffffffffffffffffffffffffffffffffffff16816020015173ffffffffffffffffffffffffffffffffffffffff161480610cb557506040810151155b15610cc05750610f37565b5f60055f83608001516004811115610cda57610cda611e15565b6004811115610ceb57610ceb611e15565b81526020019081526020015f20549050805f03610d34576040517ffd96d01900000000000000000000000000000000000000000000000000000000815260040160405180910390fd5b5f633b9aca00828460400151610d4a9190611f3d565b610d549190611f54565b9050805f03610d6557505050610f37565b610d6f8189611f8c565b9750826040015160065f856020015173ffffffffffffffffffffffffffffffffffffffff1673ffffffffffffffffffffffffffffffffffffffff1681526020019081526020015f205f015f828254610dc79190611f8c565b909155505060208084015173ffffffffffffffffffffffffffffffffffffffff165f9081526006909152604081206001018054839290610e08908490611f8c565b92505081905550826020015173ffffffffffffffffffffffffffffffffffffffff167fee381ee0ebdd768369a4c80b1b82619d5539fe4eb0a1b6cec6aba734c1030c03846040015183604051610e68929190918252602082015260400190565b60405180910390a25f612710610e7e8784611f3d565b610e889190611f54565b90508015610f1c5760035460208501516040517f40c10f1900000000000000000000000000000000000000000000000000000000815273ffffffffffffffffffffffffffffffffffffffff9182166004820152602481018490529116906340c10f19906044015f604051808303815f87803b158015610f05575f80fd5b505af1158015610f17573d5f803e3d5ffd5b505050505b610f268183611f9f565b610f309089611f8c565b9750505050505b600101610c50565b508215610fc6576003546040517fa65948a30000000000000000000000000000000000000000000000000000000081526004810185905273ffffffffffffffffffffffffffffffffffffffff9091169063a65948a3906024015f604051808303815f87803b158015610faf575f80fd5b505af1158015610fc1573d5f803e3d5ffd5b505050505b5f858152600760205260409081902080547fffffffffffffffffffffffffffffffffffffffffffffffffffffffffffffff001660011790555185907f7329a6d2220bdcd2e0f894c159b5bc028a43c58f3bca4f2ddfadcd9f12c535c6906110399087908690918252602082015260400190565b60405180910390a2505050505061082f6001600255565b600280540361108b576040517f3ee5aeb500000000000000000000000000000000000000000000000000000000815260040160405180910390fd5b60028055565b60015460ff16156110ce576040517fd93c066500000000000000000000000000000000000000000000000000000000815260040160405180910390fd5b565b61082f813361163d565b5f8281526020818152604080832073ffffffffffffffffffffffffffffffffffffffff8516845290915281205460ff166111cc575f8381526020818152604080832073ffffffffffffffffffffffffffffffffffffffff86168452909152902080547fffffffffffffffffffffffffffffffffffffffffffffffffffffffffffffff0016600117905561116a3390565b73ffffffffffffffffffffffffffffffffffffffff168273ffffffffffffffffffffffffffffffffffffffff16847f2f8788117e7eff1d82e926ec794901d17c78024a50270940304540a733656f0d60405160405180910390a45060016106fb565b505f6106fb565b5f8281526020818152604080832073ffffffffffffffffffffffffffffffffffffffff8516845290915281205460ff16156111cc575f8381526020818152604080832073ffffffffffffffffffffffffffffffffffffffff8616808552925280832080547fffffffffffffffffffffffffffffffffffffffffffffffffffffffffffffff0016905551339286917ff6391f5c32d9c69d2a47ea670b442974b53935d1edc7fd64eb21e047a839171b9190a45060016106fb565b6112946116c2565b600180547fffffffffffffffffffffffffffffffffffffffffffffffffffffffffffffff001690557f5db9ee0a495bf2e6ff9c91a7834c1ba4fdd244a5e8aa4e537bd38aeae4b073aa335b60405173ffffffffffffffffffffffffffffffffffffffff909116815260200160405180910390a1565b3073ffffffffffffffffffffffffffffffffffffffff7f00000000000000000000000000000000000000000000000000000000000000001614806113d657507f000000000000000000000000000000000000000000000000000000000000000073ffffffffffffffffffffffffffffffffffffffff166113bd7f360894a13ba1a3210667c828492db98dca3e2076cc3735a920a3ca505d382bbc5473ffffffffffffffffffffffffffffffffffffffff1690565b73ffffffffffffffffffffffffffffffffffffffff1614155b156110ce576040517fe07c8dba00000000000000000000000000000000000000000000000000000000815260040160405180910390fd5b7f189ab7a9244df0848122154315af71fe140f3db0fe014031783b0946b8c9d2e3610907816110d0565b8173ffffffffffffffffffffffffffffffffffffffff166352d1902d6040518163ffffffff1660e01b8152600401602060405180830381865afa9250505080156114bc575060408051601f3d9081017fffffffffffffffffffffffffffffffffffffffffffffffffffffffffffffffe01682019092526114b991810190611fb2565b60015b61150f576040517f4c9c8ce300000000000000000000000000000000000000000000000000000000815273ffffffffffffffffffffffffffffffffffffffff831660048201526024015b60405180910390fd5b7f360894a13ba1a3210667c828492db98dca3e2076cc3735a920a3ca505d382bbc811461156b576040517faa1d49a400000000000000000000000000000000000000000000000000000000815260048101829052602401611506565b6108b583836116fe565b3073ffffffffffffffffffffffffffffffffffffffff7f000000000000000000000000000000000000000000000000000000000000000016146110ce576040517fe07c8dba00000000000000000000000000000000000000000000000000000000815260040160405180910390fd5b6115ec611091565b600180547fffffffffffffffffffffffffffffffffffffffffffffffffffffffffffffff0016811790557f62e78cea01bee320cd4e420270b5ea74000d11b0c9f74754ebdbfc544b05a258336112df565b5f8281526020818152604080832073ffffffffffffffffffffffffffffffffffffffff8516845290915290205460ff16610907576040517fe2517d3f00000000000000000000000000000000000000000000000000000000815273ffffffffffffffffffffffffffffffffffffffff8216600482015260248101839052604401611506565b60015460ff166110ce576040517f8dfc202b00000000000000000000000000000000000000000000000000000000815260040160405180910390fd5b61170782611760565b60405173ffffffffffffffffffffffffffffffffffffffff8316907fbc7cd75a20ee27fd9adebab32041f755214dbc6bffa90cc0225b39da2e5c2d3b905f90a2805115611758576108b5828261182e565b6109076118ad565b8073ffffffffffffffffffffffffffffffffffffffff163b5f036117c8576040517f4c9c8ce300000000000000000000000000000000000000000000000000000000815273ffffffffffffffffffffffffffffffffffffffff82166004820152602401611506565b7f360894a13ba1a3210667c828492db98dca3e2076cc3735a920a3ca505d382bbc80547fffffffffffffffffffffffff00000000000000000000000000000000000000001673ffffffffffffffffffffffffffffffffffffffff92909216919091179055565b60605f808473ffffffffffffffffffffffffffffffffffffffff16846040516118579190611fc9565b5f60405180830381855af49150503d805f811461188f576040519150601f19603f3d011682016040523d82523d5f602084013e611894565b606091505b50915091506118a48583836118e5565b95945050505050565b34156110ce576040517fb398979f00000000000000000000000000000000000000000000000000000000815260040160405180910390fd5b6060826118fa576118f582611977565b611970565b815115801561191e575073ffffffffffffffffffffffffffffffffffffffff84163b155b1561196d576040517f9996b31500000000000000000000000000000000000000000000000000000000815273ffffffffffffffffffffffffffffffffffffffff85166004820152602401611506565b50805b9392505050565b8051156119875780518082602001fd5b6040517fd6bda27500000000000000000000000000000000000000000000000000000000815260040160405180910390fd5b5f602082840312156119c9575f80fd5b81357fffffffff0000000000000000000000000000000000000000000000000000000081168114611970575f80fd5b5f60208284031215611a08575f80fd5b5035919050565b803560058110611a1d575f80fd5b919050565b5f60208284031215611a32575f80fd5b61197082611a0f565b5f60c0828403128015611a4c575f80fd5b509092915050565b803573ffffffffffffffffffffffffffffffffffffffff81168114611a1d575f80fd5b5f8060408385031215611a88575f80fd5b82359150611a9860208401611a54565b90509250929050565b7f4e487b71000000000000000000000000000000000000000000000000000000005f52604160045260245ffd5b60405160c0810167ffffffffffffffff81118282101715611af157611af1611aa1565b60405290565b604051601f82017fffffffffffffffffffffffffffffffffffffffffffffffffffffffffffffffe016810167ffffffffffffffff81118282101715611b3e57611b3e611aa1565b604052919050565b5f8060408385031215611b57575f80fd5b611b6083611a54565b9150602083013567ffffffffffffffff811115611b7b575f80fd5b8301601f81018513611b8b575f80fd5b803567ffffffffffffffff811115611ba557611ba5611aa1565b611bd660207fffffffffffffffffffffffffffffffffffffffffffffffffffffffffffffffe0601f84011601611af7565b818152866020838501011115611bea575f80fd5b816020840160208301375f602083830101528093505050509250929050565b5f60208284031215611c19575f80fd5b61197082611a54565b5f8060408385031215611c33575f80fd5b611c3c83611a0f565b946020939093013593505050565b602081525f82518060208401528060208501604085015e5f6040828501015260407fffffffffffffffffffffffffffffffffffffffffffffffffffffffffffffffe0601f83011684010191505092915050565b5f60c08284031215611cad575f80fd5b611cb5611ace565b823581529050611cc760208301611a54565b602082015260408281013590820152606082013567ffffffffffffffff81168114611cf0575f80fd5b6060820152611d0160808301611a0f565b608082015260a09182013591810191909152919050565b5f60208284031215611d28575f80fd5b813567ffffffffffffffff811115611d3e575f80fd5b8201601f81018413611d4e575f80fd5b803567ffffffffffffffff811115611d6857611d68611aa1565b611d7760208260051b01611af7565b80828252602082019150602060c08402850101925086831115611d98575f80fd5b6020840193505b82841015611dc457611db18785611c9d565b825260208201915060c084019350611d9f565b9695505050505050565b5f60c08284031215611dde575f80fd5b6119708383611c9d565b7f4e487b71000000000000000000000000000000000000000000000000000000005f52603260045260245ffd5b7f4e487b71000000000000000000000000000000000000000000000000000000005f52602160045260245ffd5b602080825282518282018190525f918401906040840190835b81811015611f055783518051845273ffffffffffffffffffffffffffffffffffffffff60208201511660208501526040810151604085015267ffffffffffffffff6060820151166060850152608081015160058110611ee1577f4e487b71000000000000000000000000000000000000000000000000000000005f52602160045260245ffd5b608085015260a090810151908401526020939093019260c090920191600101611e5b565b509095945050505050565b7f4e487b71000000000000000000000000000000000000000000000000000000005f52601160045260245ffd5b80820281158282048414176106fb576106fb611f10565b5f82611f87577f4e487b71000000000000000000000000000000000000000000000000000000005f52601260045260245ffd5b500490565b808201808211156106fb576106fb611f10565b818103818111156106fb576106fb611f10565b5f60208284031215611fc2575f80fd5b5051919050565b5f82518060208501845e5f92019182525091905056fea2646970667358221220e67eb36aabc28764035bf0cbc422b53b9059661ef9a4759cf3e7feeb46cd3dcc64736f6c634300081a0033","linkReferences":{}},"methodIdentifiers":{"DATA_SUBMITTER_ROLE()":"1b2b49a6","DEFAULT_ADMIN_ROLE()":"a217fddf","FACTOR_MANAGER_ROLE()":"d20c5e2e","PAUSER_ROLE()":"e63ab1e9","UPGRADER_ROLE()":"f72c0d8b","UPGRADE_INTERFACE_VERSION()":"ad3cb1cc","carbonCreditToken()":"66dea358","countryEmissionFactors(uint8)":"182dd655","getNodeStats(address)":"52b391b2","getRoleAdmin(bytes32)":"248a9ca3","grantRole(bytes32,address)":"2f2ff15d","hasRole(bytes32,address)":"91d14854","nodeStats(address)":"9b0ab3ae","operatorRewardBps()":"649f6e44","pause()":"8456cb59","paused()":"5c975abb","processEnergyDataBatch((bytes32,address,uint256,uint64,uint8,bytes32)[])":"f50d06b3","processSingleEnergyData((bytes32,address,uint256,uint64,uint8,bytes32))":"2cf61be6","processedBatchHashes(bytes32)":"06c52e7c","proxiableUUID()":"52d1902d","renounceRole(bytes32,address)":"36568abe","revokeRole(bytes32,address)":"d547741f","setCountryEmissionFactor(uint8,uint256)":"9003165d","setOperatorRewardBps(uint256)":"ce530223","supportsInterface(bytes4)":"01ffc9a7","unpause()":"3f4ba83a","upgradeToAndCall(address,bytes)":"4f1ef286"},"id":36}