{"abi":[{"type":"constructor","inputs":[{"name":"_creditToken","type":"address","internalType":"address"},{"name":"_rewardDistributor","type":"address","internalType":"address"},{"name":"_initialAdmin","type":"address","internalType":"address"},{"name":"_initialSubmitter","type":"address","internalType":"address"},{"name":"_initialEmissionFactor","type":"uint256","internalType":"uint256"},{"name":"_initialRequiredConsensusNodes","type":"uint256","internalType":"uint256"},{"name":"_initialBatchProcessingDelay","type":"uint256","internalType":"uint256"}],"stateMutability":"nonpayable"},{"type":"function","name":"DATA_SUBMITTER_ROLE","inputs":[],"outputs":[{"name":"","type":"bytes32","internalType":"bytes32"}],"stateMutability":"view"},{"type":"function","name":"DEFAULT_ADMIN_ROLE","inputs":[],"outputs":[{"name":"","type":"bytes32","internalType":"bytes32"}],"stateMutability":"view"},{"type":"function","name":"NODE_MANAGER_ROLE","inputs":[],"outputs":[{"name":"","type":"bytes32","internalType":"bytes32"}],"stateMutability":"view"},{"type":"function","name":"PAUSER_ROLE","inputs":[],"outputs":[{"name":"","type":"bytes32","internalType":"bytes32"}],"stateMutability":"view"},{"type":"function","name":"UPGRADER_ROLE","inputs":[],"outputs":[{"name":"","type":"bytes32","internalType":"bytes32"}],"stateMutability":"view"},{"type":"function","name":"UPGRADE_INTERFACE_VERSION","inputs":[],"outputs":[{"name":"","type":"string","internalType":"string"}],"stateMutability":"view"},{"type":"function","name":"batchChallenges","inputs":[{"name":"","type":"bytes32","internalType":"bytes32"}],"outputs":[{"name":"challenger","type":"address","internalType":"address"},{"name":"batchHash","type":"bytes32","internalType":"bytes32"},{"name":"reason","type":"string","internalType":"string"},{"name":"challengeTime","type":"uint64","internalType":"uint64"},{"name":"isResolved","type":"bool","internalType":"bool"},{"name":"isUpheld","type":"bool","internalType":"bool"}],"stateMutability":"view"},{"type":"function","name":"batchProcessingDelay","inputs":[],"outputs":[{"name":"","type":"uint256","internalType":"uint256"}],"stateMutability":"view"},{"type":"function","name":"batchSubmissionTimes","inputs":[{"name":"","type":"bytes32","internalType":"bytes32"}],"outputs":[{"name":"","type":"uint256","internalType":"uint256"}],"stateMutability":"view"},{"type":"function","name":"carbonCreditToken","inputs":[],"outputs":[{"name":"","type":"address","internalType":"contract ICarbonCreditToken"}],"stateMutability":"view"},{"type":"function","name":"challengeBatch","inputs":[{"name":"batchHash","type":"bytes32","internalType":"bytes32"},{"name":"reason","type":"string","internalType":"string"}],"outputs":[],"stateMutability":"nonpayable"},{"type":"function","name":"emissionFactor","inputs":[],"outputs":[{"name":"","type":"uint256","internalType":"uint256"}],"stateMutability":"view"},{"type":"function","name":"getPeerIdCount","inputs":[],"outputs":[{"name":"","type":"uint256","internalType":"uint256"}],"stateMutability":"view"},{"type":"function","name":"getRoleAdmin","inputs":[{"name":"role","type":"bytes32","internalType":"bytes32"}],"outputs":[{"name":"","type":"bytes32","internalType":"bytes32"}],"stateMutability":"view"},{"type":"function","name":"grantRole","inputs":[{"name":"role","type":"bytes32","internalType":"bytes32"},{"name":"account","type":"address","internalType":"address"}],"outputs":[],"stateMutability":"nonpayable"},{"type":"function","name":"hasRole","inputs":[{"name":"role","type":"bytes32","internalType":"bytes32"},{"name":"account","type":"address","internalType":"address"}],"outputs":[{"name":"","type":"bool","internalType":"bool"}],"stateMutability":"view"},{"type":"function","name":"pause","inputs":[],"outputs":[],"stateMutability":"nonpayable"},{"type":"function","name":"paused","inputs":[],"outputs":[{"name":"","type":"bool","internalType":"bool"}],"stateMutability":"view"},{"type":"function","name":"peerIds","inputs":[{"name":"","type":"uint256","internalType":"uint256"}],"outputs":[{"name":"","type":"bytes32","internalType":"bytes32"}],"stateMutability":"view"},{"type":"function","name":"processBatch","inputs":[{"name":"batchHash","type":"bytes32","internalType":"bytes32"}],"outputs":[],"stateMutability":"nonpayable"},{"type":"function","name":"processedBatchHashes","inputs":[{"name":"","type":"bytes32","internalType":"bytes32"}],"outputs":[{"name":"","type":"bool","internalType":"bool"}],"stateMutability":"view"},{"type":"function","name":"proxiableUUID","inputs":[],"outputs":[{"name":"","type":"bytes32","internalType":"bytes32"}],"stateMutability":"view"},{"type":"function","name":"registerNode","inputs":[{"name":"_peerId","type":"bytes32","internalType":"bytes32"},{"name":"_operator","type":"address","internalType":"address"}],"outputs":[],"stateMutability":"nonpayable"},{"type":"function","name":"registeredNodes","inputs":[{"name":"","type":"bytes32","internalType":"bytes32"}],"outputs":[{"name":"operator","type":"address","internalType":"address"},{"name":"peerId","type":"bytes32","internalType":"bytes32"},{"name":"isActive","type":"bool","internalType":"bool"}],"stateMutability":"view"},{"type":"function","name":"renounceRole","inputs":[{"name":"role","type":"bytes32","internalType":"bytes32"},{"name":"callerConfirmation","type":"address","internalType":"address"}],"outputs":[],"stateMutability":"nonpayable"},{"type":"function","name":"requiredConsensusNodes","inputs":[],"outputs":[{"name":"","type":"uint256","internalType":"uint256"}],"stateMutability":"view"},{"type":"function","name":"resolveChallenge","inputs":[{"name":"batchHash","type":"bytes32","internalType":"bytes32"},{"name":"isUpheld","type":"bool","internalType":"bool"}],"outputs":[],"stateMutability":"nonpayable"},{"type":"function","name":"revokeRole","inputs":[{"name":"role","type":"bytes32","internalType":"bytes32"},{"name":"account","type":"address","internalType":"address"}],"outputs":[],"stateMutability":"nonpayable"},{"type":"function","name":"rewardDistributor","inputs":[],"outputs":[{"name":"","type":"address","internalType":"contract IRewardDistributor"}],"stateMutability":"view"},{"type":"function","name":"setBatchProcessingDelay","inputs":[{"name":"_delayInSeconds","type":"uint256","internalType":"uint256"}],"outputs":[],"stateMutability":"nonpayable"},{"type":"function","name":"setEmissionFactor","inputs":[{"name":"_factor","type":"uint256","internalType":"uint256"}],"outputs":[],"stateMutability":"nonpayable"},{"type":"function","name":"setRequiredConsensusNodes","inputs":[{"name":"_requiredNodes","type":"uint256","internalType":"uint256"}],"outputs":[],"stateMutability":"nonpayable"},{"type":"function","name":"storedBatches","inputs":[{"name":"","type":"bytes32","internalType":"bytes32"},{"name":"","type":"uint256","internalType":"uint256"}],"outputs":[{"name":"deviceId","type":"bytes32","internalType":"bytes32"},{"name":"nodeOperatorAddress","type":"address","internalType":"address"},{"name":"energyKWh","type":"uint256","internalType":"uint256"},{"name":"timestamp","type":"uint64","internalType":"uint64"}],"stateMutability":"view"},{"type":"function","name":"submitEnergyDataBatch","inputs":[{"name":"dataBatch","type":"tuple[]","internalType":"struct EnergyDataBridge.EnergyData[]","components":[{"name":"deviceId","type":"bytes32","internalType":"bytes32"},{"name":"nodeOperatorAddress","type":"address","internalType":"address"},{"name":"energyKWh","type":"uint256","internalType":"uint256"},{"name":"timestamp","type":"uint64","internalType":"uint64"}]},{"name":"consensusProof","type":"tuple","internalType":"struct EnergyDataBridge.P2PConsensusProof","components":[{"name":"consensusRoundId","type":"bytes32","internalType":"bytes32"},{"name":"participatingNodeCount","type":"uint256","internalType":"uint256"},{"name":"consensusResultHash","type":"bytes32","internalType":"bytes32"},{"name":"multiSignature","type":"bytes","internalType":"bytes"}]}],"outputs":[],"stateMutability":"nonpayable"},{"type":"function","name":"supportsInterface","inputs":[{"name":"interfaceId","type":"bytes4","internalType":"bytes4"}],"outputs":[{"name":"","type":"bool","internalType":"bool"}],"stateMutability":"view"},{"type":"function","name":"unpause","inputs":[],"outputs":[],"stateMutability":"nonpayable"},{"type":"function","name":"updateNodeStatus","inputs":[{"name":"_peerId","type":"bytes32","internalType":"bytes32"},{"name":"_isActive","type":"bool","internalType":"bool"}],"outputs":[],"stateMutability":"nonpayable"},{"type":"function","name":"upgradeToAndCall","inputs":[{"name":"newImplementation","type":"address","internalType":"address"},{"name":"data","type":"bytes","internalType":"bytes"}],"outputs":[],"stateMutability":"payable"},{"type":"event","name":"BatchChallenged","inputs":[{"name":"batchHash","type":"bytes32","indexed":true,"internalType":"bytes32"},{"name":"challenger","type":"address","indexed":true,"internalType":"address"},{"name":"reason","type":"string","indexed":false,"internalType":"string"}],"anonymous":false},{"type":"event","name":"ChallengeResolved","inputs":[{"name":"batchHash","type":"bytes32","indexed":true,"internalType":"bytes32"},{"name":"isUpheld","type":"bool","indexed":false,"internalType":"bool"}],"anonymous":false},{"type":"event","name":"EmissionFactorSet","inputs":[{"name":"oldFactor","type":"uint256","indexed":false,"internalType":"uint256"},{"name":"newFactor","type":"uint256","indexed":false,"internalType":"uint256"}],"anonymous":false},{"type":"event","name":"EnergyDataProcessed","inputs":[{"name":"batchHash","type":"bytes32","indexed":true,"internalType":"bytes32"},{"name":"totalCreditsMinted","type":"uint256","indexed":false,"internalType":"uint256"},{"name":"entriesProcessed","type":"uint256","indexed":false,"internalType":"uint256"}],"anonymous":false},{"type":"event","name":"EnergyDataSubmitted","inputs":[{"name":"batchHash","type":"bytes32","indexed":true,"internalType":"bytes32"},{"name":"entriesSubmitted","type":"uint256","indexed":false,"internalType":"uint256"},{"name":"processAfterTimestamp","type":"uint256","indexed":false,"internalType":"uint256"}],"anonymous":false},{"type":"event","name":"NodeRegistered","inputs":[{"name":"peerId","type":"bytes32","indexed":true,"internalType":"bytes32"},{"name":"operator","type":"address","indexed":true,"internalType":"address"}],"anonymous":false},{"type":"event","name":"NodeStatusUpdated","inputs":[{"name":"peerId","type":"bytes32","indexed":true,"internalType":"bytes32"},{"name":"isActive","type":"bool","indexed":false,"internalType":"bool"}],"anonymous":false},{"type":"event","name":"Paused","inputs":[{"name":"account","type":"address","indexed":false,"internalType":"address"}],"anonymous":false},{"type":"event","name":"RoleAdminChanged","inputs":[{"name":"role","type":"bytes32","indexed":true,"internalType":"bytes32"},{"name":"previousAdminRole","type":"bytes32","indexed":true,"internalType":"bytes32"},{"name":"newAdminRole","type":"bytes32","indexed":true,"internalType":"bytes32"}],"anonymous":false},{"type":"event","name":"RoleGranted","inputs":[{"name":"role","type":"bytes32","indexed":true,"internalType":"bytes32"},{"name":"account","type":"address","indexed":true,"internalType":"address"},{"name":"sender","type":"address","indexed":true,"internalType":"address"}],"anonymous":false},{"type":"event","name":"RoleRevoked","inputs":[{"name":"role","type":"bytes32","indexed":true,"internalType":"bytes32"},{"name":"account","type":"address","indexed":true,"internalType":"address"},{"name":"sender","type":"address","indexed":true,"internalType":"address"}],"anonymous":false},{"type":"event","name":"Unpaused","inputs":[{"name":"account","type":"address","indexed":false,"internalType":"address"}],"anonymous":false},{"type":"event","name":"Upgraded","inputs":[{"name":"implementation","type":"address","indexed":true,"internalType":"address"}],"anonymous":false},{"type":"error","name":"AccessControlBadConfirmation","inputs":[]},{"type":"error","name":"AccessControlUnauthorizedAccount","inputs":[{"name":"account","type":"address","internalType":"address"},{"name":"neededRole","type":"bytes32","internalType":"bytes32"}]},{"type":"error","name":"AddressEmptyCode","inputs":[{"name":"target","type":"address","internalType":"address"}]},{"type":"error","name":"BatchAlreadyChallenged","inputs":[]},{"type":"error","name":"BatchAlreadyProcessed","inputs":[]},{"type":"error","name":"BatchAlreadySubmitted","inputs":[]},{"type":"error","name":"BatchChallengeUpheld","inputs":[]},{"type":"error","name":"BatchNotSubmitted","inputs":[]},{"type":"error","name":"CallerNotDataSubmitter","inputs":[]},{"type":"error","name":"CallerNotNodeManager","inputs":[]},{"type":"error","name":"ChallengeAlreadyResolved","inputs":[]},{"type":"error","name":"ChallengeNotFound","inputs":[]},{"type":"error","name":"ChallengePeriodNotOver","inputs":[]},{"type":"error","name":"ChallengePeriodOver","inputs":[]},{"type":"error","name":"ERC1967InvalidImplementation","inputs":[{"name":"implementation","type":"address","internalType":"address"}]},{"type":"error","name":"ERC1967NonPayable","inputs":[]},{"type":"error","name":"EnforcedPause","inputs":[]},{"type":"error","name":"ExpectedPause","inputs":[]},{"type":"error","name":"FailedCall","inputs":[]},{"type":"error","name":"InvalidConsensusConfig","inputs":[]},{"type":"error","name":"InvalidConsensusProof","inputs":[]},{"type":"error","name":"InvalidEmissionFactor","inputs":[]},{"type":"error","name":"InvalidPeerId","inputs":[]},{"type":"error","name":"NodeNotRegistered","inputs":[]},{"type":"error","name":"ReentrancyGuardReentrantCall","inputs":[]},{"type":"error","name":"UUPSUnauthorizedCallContext","inputs":[]},{"type":"error","name":"UUPSUnsupportedProxiableUUID","inputs":[{"name":"slot","type":"bytes32","internalType":"bytes32"}]},{"type":"error","name":"UnresolvedChallenge","inputs":[]},{"type":"error","name":"ZeroAddress","inputs":[]}],"bytecode":{"object":"0x60a06040523073ffffffffffffffffffffffffffffffffffffffff1660809073ffffffffffffffffffffffffffffffffffffffff16815250348015610042575f80fd5b5060405161453c38038061453c83398181016040528101906100649190610613565b60016002819055505f73ffffffffffffffffffffffffffffffffffffffff168773ffffffffffffffffffffffffffffffffffffffff16036100d1576040517fd92e233d00000000000000000000000000000000000000000000000000000000815260040160405180910390fd5b5f73ffffffffffffffffffffffffffffffffffffffff168673ffffffffffffffffffffffffffffffffffffffff1603610136576040517fd92e233d00000000000000000000000000000000000000000000000000000000815260040160405180910390fd5b5f73ffffffffffffffffffffffffffffffffffffffff168573ffffffffffffffffffffffffffffffffffffffff160361019b576040517fd92e233d00000000000000000000000000000000000000000000000000000000815260040160405180910390fd5b5f73ffffffffffffffffffffffffffffffffffffffff168473ffffffffffffffffffffffffffffffffffffffff1603610200576040517fd92e233d00000000000000000000000000000000000000000000000000000000815260040160405180910390fd5b5f8303610239576040517f3802588b00000000000000000000000000000000000000000000000000000000815260040160405180910390fd5b5f8203610272576040517f9cc0114c00000000000000000000000000000000000000000000000000000000815260040160405180910390fd5b8660035f6101000a81548173ffffffffffffffffffffffffffffffffffffffff021916908373ffffffffffffffffffffffffffffffffffffffff1602179055508560045f6101000a81548173ffffffffffffffffffffffffffffffffffffffff021916908373ffffffffffffffffffffffffffffffffffffffff160217905550826005819055508160098190555080600c819055506103195f801b8661042360201b60201c565b5061034a7f65d7a28e3265b37a6474929f336521b332c1681b933f6cb9f3376673440d862a8661042360201b60201c565b5061037b7f189ab7a9244df0848122154315af71fe140f3db0fe014031783b0946b8c9d2e38661042360201b60201c565b506103ac7fdaf9ac3a6308052428e8806fd908cf472318416ed7d78b3f35dd94bbbafde56a8661042360201b60201c565b506103dd7ff52ef53ec1ccd82becd71536891a4878949c44f3e710519cb7b39d90c38fed268561042360201b60201c565b507f52d6fea3ebb885fb57a2b1e62465f4883c03b0930558cc3d514d806b9c6ed8335f8460405161040f929190610701565b60405180910390a150505050505050610728565b5f610434838361051860201b60201c565b61050e5760015f808581526020019081526020015f205f015f8473ffffffffffffffffffffffffffffffffffffffff1673ffffffffffffffffffffffffffffffffffffffff1681526020019081526020015f205f6101000a81548160ff0219169083151502179055506104ab61057b60201b60201c565b73ffffffffffffffffffffffffffffffffffffffff168273ffffffffffffffffffffffffffffffffffffffff16847f2f8788117e7eff1d82e926ec794901d17c78024a50270940304540a733656f0d60405160405180910390a460019050610512565b5f90505b92915050565b5f805f8481526020019081526020015f205f015f8373ffffffffffffffffffffffffffffffffffffffff1673ffffffffffffffffffffffffffffffffffffffff1681526020019081526020015f205f9054906101000a900460ff16905092915050565b5f33905090565b5f80fd5b5f73ffffffffffffffffffffffffffffffffffffffff82169050919050565b5f6105af82610586565b9050919050565b6105bf816105a5565b81146105c9575f80fd5b50565b5f815190506105da816105b6565b92915050565b5f819050919050565b6105f2816105e0565b81146105fc575f80fd5b50565b5f8151905061060d816105e9565b92915050565b5f805f805f805f60e0888a03121561062e5761062d610582565b5b5f61063b8a828b016105cc565b975050602061064c8a828b016105cc565b965050604061065d8a828b016105cc565b955050606061066e8a828b016105cc565b945050608061067f8a828b016105ff565b93505060a06106908a828b016105ff565b92505060c06106a18a828b016105ff565b91505092959891949750929550565b5f819050919050565b5f819050919050565b5f6106dc6106d76106d2846106b0565b6106b9565b6105e0565b9050919050565b6106ec816106c2565b82525050565b6106fb816105e0565b82525050565b5f6040820190506107145f8301856106e3565b61072160208301846106f2565b9392505050565b608051613dee61074e5f395f818161232b01528181612380015261255d0152613dee5ff3fe608060405260043610610224575f3560e01c80637a6ab57d11610122578063ad3cb1cc116100aa578063d68de31b1161006e578063d68de31b146107e2578063dffe86ae1461081e578063e63ab1e914610846578063e9ae409414610870578063f72c0d8b1461089857610224565b8063ad3cb1cc146106fe578063ad573d3e14610728578063b3def2f514610766578063d547741f14610790578063d59f9fe0146107b857610224565b80638be2b073116100f15780638be2b073146106055780638ca5d9721461062d57806391d148541461066e578063a217fddf146106aa578063acc2166a146106d457610224565b80637a6ab57d1461054c5780637d89122d1461058b5780638456cb59146105b3578063897453f1146105c957610224565b80633f4ba83a116101b05780635c975abb116101745780635c975abb1461047e57806366b5b2c5146104a857806366dea358146104d0578063686ddc7a146104fa5780636facc1051461052257610224565b80633f4ba83a146103d0578063474508cf146103e65780634f1ef28614610410578063514bab551461042c57806352d1902d1461045457610224565b8063248a9ca3116101f7578063248a9ca3146102f25780632f2ff15d1461032e57806333be17f81461035657806334083de71461038057806336568abe146103a857610224565b806301ffc9a71461022857806306c52e7c146102645780631b2b49a6146102a05780631bacfcc1146102ca575b5f80fd5b348015610233575f80fd5b5061024e60048036038101906102499190612b7c565b6108c2565b60405161025b9190612bc1565b60405180910390f35b34801561026f575f80fd5b5061028a60048036038101906102859190612c0d565b61093b565b6040516102979190612bc1565b60405180910390f35b3480156102ab575f80fd5b506102b4610958565b6040516102c19190612c47565b60405180910390f35b3480156102d5575f80fd5b506102f060048036038101906102eb9190612c93565b61097c565b005b3480156102fd575f80fd5b5061031860048036038101906103139190612c0d565b610a0c565b6040516103259190612c47565b60405180910390f35b348015610339575f80fd5b50610354600480360381019061034f9190612d18565b610a28565b005b348015610361575f80fd5b5061036a610a4a565b6040516103779190612d65565b60405180910390f35b34801561038b575f80fd5b506103a660048036038101906103a19190612d18565b610a56565b005b3480156103b3575f80fd5b506103ce60048036038101906103c99190612d18565b610ce6565b005b3480156103db575f80fd5b506103e4610d61565b005b3480156103f1575f80fd5b506103fa610d96565b6040516104079190612d65565b60405180910390f35b61042a60048036038101906104259190612eba565b610d9c565b005b348015610437575f80fd5b50610452600480360381019061044d9190612c93565b610dbb565b005b34801561045f575f80fd5b50610468610dd2565b6040516104759190612c47565b60405180910390f35b348015610489575f80fd5b50610492610e03565b60405161049f9190612bc1565b60405180910390f35b3480156104b3575f80fd5b506104ce60048036038101906104c99190612f93565b610e18565b005b3480156104db575f80fd5b506104e461108a565b6040516104f19190613067565b60405180910390f35b348015610505575f80fd5b50610520600480360381019061051b91906130d5565b6110af565b005b34801561052d575f80fd5b5061053661140b565b6040516105439190612d65565b60405180910390f35b348015610557575f80fd5b50610572600480360381019061056d9190613132565b611411565b60405161058294939291906131a1565b60405180910390f35b348015610596575f80fd5b506105b160048036038101906105ac919061320e565b611489565b005b3480156105be575f80fd5b506105c7611636565b005b3480156105d4575f80fd5b506105ef60048036038101906105ea9190612c93565b61166b565b6040516105fc9190612c47565b60405180910390f35b348015610610575f80fd5b5061062b6004803603810190610626919061320e565b61168b565b005b348015610638575f80fd5b50610653600480360381019061064e9190612c0d565b6117f0565b604051610665969594939291906132ac565b60405180910390f35b348015610679575f80fd5b50610694600480360381019061068f9190612d18565b6118fa565b6040516106a19190612bc1565b60405180910390f35b3480156106b5575f80fd5b506106be61195d565b6040516106cb9190612c47565b60405180910390f35b3480156106df575f80fd5b506106e8611963565b6040516106f59190613332565b60405180910390f35b348015610709575f80fd5b50610712611988565b60405161071f919061334b565b60405180910390f35b348015610733575f80fd5b5061074e60048036038101906107499190612c0d565b6119c1565b60405161075d9392919061336b565b60405180910390f35b348015610771575f80fd5b5061077a611a12565b6040516107879190612d65565b60405180910390f35b34801561079b575f80fd5b506107b660048036038101906107b19190612d18565b611a18565b005b3480156107c3575f80fd5b506107cc611a3a565b6040516107d99190612c47565b60405180910390f35b3480156107ed575f80fd5b5061080860048036038101906108039190612c0d565b611a5e565b6040516108159190612d65565b60405180910390f35b348015610829575f80fd5b50610844600480360381019061083f9190612c0d565b611a73565b005b348015610851575f80fd5b5061085a611fda565b6040516108679190612c47565b60405180910390f35b34801561087b575f80fd5b5061089660048036038101906108919190612c93565b611ffe565b005b3480156108a3575f80fd5b506108ac61204e565b6040516108b99190612c47565b60405180910390f35b5f7f7965db0b000000000000000000000000000000000000000000000000000000007bffffffffffffffffffffffffffffffffffffffffffffffffffffffff1916827bffffffffffffffffffffffffffffffffffffffffffffffffffffffff19161480610934575061093382612072565b5b9050919050565b6006602052805f5260405f205f915054906101000a900460ff1681565b7ff52ef53ec1ccd82becd71536891a4878949c44f3e710519cb7b39d90c38fed2681565b5f801b610988816120db565b5f82036109c1576040517f3802588b00000000000000000000000000000000000000000000000000000000815260040160405180910390fd5b5f6005549050826005819055507f52d6fea3ebb885fb57a2b1e62465f4883c03b0930558cc3d514d806b9c6ed83381846040516109ff9291906133a0565b60405180910390a1505050565b5f805f8381526020019081526020015f20600101549050919050565b610a3182610a0c565b610a3a816120db565b610a4483836120ef565b50505050565b5f600880549050905090565b610a877fdaf9ac3a6308052428e8806fd908cf472318416ed7d78b3f35dd94bbbafde56a610a826121d8565b6118fa565b610abd576040517f949fc64d00000000000000000000000000000000000000000000000000000000815260040160405180910390fd5b5f801b8203610af8576040517ffd8b66e900000000000000000000000000000000000000000000000000000000815260040160405180910390fd5b5f73ffffffffffffffffffffffffffffffffffffffff168173ffffffffffffffffffffffffffffffffffffffff1603610b5d576040517fd92e233d00000000000000000000000000000000000000000000000000000000815260040160405180910390fd5b5f73ffffffffffffffffffffffffffffffffffffffff1660075f8481526020019081526020015f205f015f9054906101000a900473ffffffffffffffffffffffffffffffffffffffff1673ffffffffffffffffffffffffffffffffffffffff1603610be957600882908060018154018082558091505060019003905f5260205f20015f90919091909150555b60405180606001604052808273ffffffffffffffffffffffffffffffffffffffff1681526020018381526020016001151581525060075f8481526020019081526020015f205f820151815f015f6101000a81548173ffffffffffffffffffffffffffffffffffffffff021916908373ffffffffffffffffffffffffffffffffffffffff160217905550602082015181600101556040820151816002015f6101000a81548160ff0219169083151502179055509050508073ffffffffffffffffffffffffffffffffffffffff16827f6cedacb14e1e8a818c7aec54125e7471dba6129fb346b97fe9ada4b43329eb8160405160405180910390a35050565b610cee6121d8565b73ffffffffffffffffffffffffffffffffffffffff168173ffffffffffffffffffffffffffffffffffffffff1614610d52576040517f6697b23200000000000000000000000000000000000000000000000000000000815260040160405180910390fd5b610d5c82826121df565b505050565b7f65d7a28e3265b37a6474929f336521b332c1681b933f6cb9f3376673440d862a610d8b816120db565b610d936122c8565b50565b600c5481565b610da4612329565b610dad8261240f565b610db7828261243d565b5050565b5f801b610dc7816120db565b81600c819055505050565b5f610ddb61255b565b7f360894a13ba1a3210667c828492db98dca3e2076cc3735a920a3ca505d382bbc5f1b905090565b5f60015f9054906101000a900460ff16905090565b610e206125e2565b610e28612626565b610e597ff52ef53ec1ccd82becd71536891a4878949c44f3e710519cb7b39d90c38fed26610e546121d8565b6118fa565b610e8f576040517f98f0bc1a00000000000000000000000000000000000000000000000000000000815260040160405180910390fd5b5f8383604051602001610ea3929190613599565b60405160208183030381529060405280519060200120905060065f8281526020019081526020015f205f9054906101000a900460ff1615610f10576040517fe2b1f19400000000000000000000000000000000000000000000000000000000815260040160405180910390fd5b5f600d5f8381526020019081526020015f205414610f5a576040517f434ddb8d00000000000000000000000000000000000000000000000000000000815260040160405180910390fd5b610f65848484612667565b610f9b576040517fada235dc00000000000000000000000000000000000000000000000000000000815260040160405180910390fd5b5f600b5f8381526020019081526020015f2090505f5b858590508110156110155781868683818110610fd057610fcf6135bb565b5b905060800201908060018154018082558091505060019003905f5260205f2090600402015f9091909190915081816110089190613893565b5050806001019050610fb1565b505f600c544261102591906138ce565b905080600d5f8581526020019081526020015f2081905550827f6cd89f29dba6c301ac9f6dbd1c0017eb2d9652f5b7201d3d946aaefd6347a1b287879050836040516110729291906133a0565b60405180910390a25050506110856126f6565b505050565b60035f9054906101000a900473ffffffffffffffffffffffffffffffffffffffff1681565b6110b76125e2565b6110bf612626565b5f600d5f8581526020019081526020015f205490505f810361110d576040517ffc08f5f200000000000000000000000000000000000000000000000000000000815260040160405180910390fd5b804210611146576040517ff541751000000000000000000000000000000000000000000000000000000000815260040160405180910390fd5b60065f8581526020019081526020015f205f9054906101000a900460ff161561119b576040517fe2b1f19400000000000000000000000000000000000000000000000000000000815260040160405180910390fd5b5f73ffffffffffffffffffffffffffffffffffffffff16600a5f8681526020019081526020015f205f015f9054906101000a900473ffffffffffffffffffffffffffffffffffffffff1673ffffffffffffffffffffffffffffffffffffffff1614611232576040517f148db16600000000000000000000000000000000000000000000000000000000815260040160405180910390fd5b6040518060c001604052803373ffffffffffffffffffffffffffffffffffffffff16815260200185815260200184848080601f0160208091040260200160405190810160405280939291908181526020018383808284375f81840152601f19601f8201169050808301925050505050505081526020014267ffffffffffffffff1681526020015f151581526020015f1515815250600a5f8681526020019081526020015f205f820151815f015f6101000a81548173ffffffffffffffffffffffffffffffffffffffff021916908373ffffffffffffffffffffffffffffffffffffffff16021790555060208201518160010155604082015181600201908161133a9190613ac8565b506060820151816003015f6101000a81548167ffffffffffffffff021916908367ffffffffffffffff16021790555060808201518160030160086101000a81548160ff02191690831515021790555060a08201518160030160096101000a81548160ff0219169083151502179055509050503373ffffffffffffffffffffffffffffffffffffffff16847f0f9f5c3df79ff3f1c73de526110a901f830460789fde1737fd291195c75bdee885856040516113f5929190613bc3565b60405180910390a3506114066126f6565b505050565b60095481565b600b602052815f5260405f20818154811061142a575f80fd5b905f5260205f2090600402015f9150915050805f015490806001015f9054906101000a900473ffffffffffffffffffffffffffffffffffffffff1690806002015490806003015f9054906101000a900467ffffffffffffffff16905084565b5f801b611495816120db565b5f73ffffffffffffffffffffffffffffffffffffffff16600a5f8581526020019081526020015f205f015f9054906101000a900473ffffffffffffffffffffffffffffffffffffffff1673ffffffffffffffffffffffffffffffffffffffff160361152c576040517fae20a7fc00000000000000000000000000000000000000000000000000000000815260040160405180910390fd5b600a5f8481526020019081526020015f2060030160089054906101000a900460ff1615611585576040517f2d921dad00000000000000000000000000000000000000000000000000000000815260040160405180910390fd5b6001600a5f8581526020019081526020015f2060030160086101000a81548160ff02191690831515021790555081600a5f8581526020019081526020015f2060030160096101000a81548160ff02191690831515021790555081156115f957600d5f8481526020019081526020015f205f90555b827fbf0625141f8955c67e8538833525be4a25b700bc19e4f2ddc96d3a4cce433088836040516116299190612bc1565b60405180910390a2505050565b7f65d7a28e3265b37a6474929f336521b332c1681b933f6cb9f3376673440d862a611660816120db565b611668612700565b50565b6008818154811061167a575f80fd5b905f5260205f20015f915090505481565b6116bc7fdaf9ac3a6308052428e8806fd908cf472318416ed7d78b3f35dd94bbbafde56a6116b76121d8565b6118fa565b6116f2576040517f949fc64d00000000000000000000000000000000000000000000000000000000815260040160405180910390fd5b5f73ffffffffffffffffffffffffffffffffffffffff1660075f8481526020019081526020015f205f015f9054906101000a900473ffffffffffffffffffffffffffffffffffffffff1673ffffffffffffffffffffffffffffffffffffffff1603611789576040517f014f556800000000000000000000000000000000000000000000000000000000815260040160405180910390fd5b8060075f8481526020019081526020015f206002015f6101000a81548160ff021916908315150217905550817fed2bf659025c6e41a9002b0f00cdfb398811c6fde9a8b71a04b6180ab7023a25826040516117e49190612bc1565b60405180910390a25050565b600a602052805f5260405f205f91509050805f015f9054906101000a900473ffffffffffffffffffffffffffffffffffffffff169080600101549080600201805461183a9061392e565b80601f01602080910402602001604051908101604052809291908181526020018280546118669061392e565b80156118b15780601f10611888576101008083540402835291602001916118b1565b820191905f5260205f20905b81548152906001019060200180831161189457829003601f168201915b505050505090806003015f9054906101000a900467ffffffffffffffff16908060030160089054906101000a900460ff16908060030160099054906101000a900460ff16905086565b5f805f8481526020019081526020015f205f015f8373ffffffffffffffffffffffffffffffffffffffff1673ffffffffffffffffffffffffffffffffffffffff1681526020019081526020015f205f9054906101000a900460ff16905092915050565b5f801b81565b60045f9054906101000a900473ffffffffffffffffffffffffffffffffffffffff1681565b6040518060400160405280600581526020017f352e302e3000000000000000000000000000000000000000000000000000000081525081565b6007602052805f5260405f205f91509050805f015f9054906101000a900473ffffffffffffffffffffffffffffffffffffffff1690806001015490806002015f9054906101000a900460ff16905083565b60055481565b611a2182610a0c565b611a2a816120db565b611a3483836121df565b50505050565b7fdaf9ac3a6308052428e8806fd908cf472318416ed7d78b3f35dd94bbbafde56a81565b600d602052805f5260405f205f915090505481565b611a7b6125e2565b611a83612626565b5f600d5f8381526020019081526020015f205490505f8103611ad1576040517ffc08f5f200000000000000000000000000000000000000000000000000000000815260040160405180910390fd5b80421015611b0b576040517fd1312e9f00000000000000000000000000000000000000000000000000000000815260040160405180910390fd5b60065f8381526020019081526020015f205f9054906101000a900460ff1615611b60576040517fe2b1f19400000000000000000000000000000000000000000000000000000000815260040160405180910390fd5b5f73ffffffffffffffffffffffffffffffffffffffff16600a5f8481526020019081526020015f205f015f9054906101000a900473ffffffffffffffffffffffffffffffffffffffff1673ffffffffffffffffffffffffffffffffffffffff1614158015611bed5750600a5f8381526020019081526020015f2060030160089054906101000a900460ff16155b15611c24576040517f4b809d9d00000000000000000000000000000000000000000000000000000000815260040160405180910390fd5b600a5f8381526020019081526020015f2060030160089054906101000a900460ff168015611c705750600a5f8381526020019081526020015f2060030160099054906101000a900460ff165b15611ca7576040517fc1c51c8100000000000000000000000000000000000000000000000000000000815260040160405180910390fd5b5f600b5f8481526020019081526020015f2090505f80828054905090505f5b81811015611ed7575f848281548110611ce257611ce16135bb565b5b905f5260205f20906004020190505f73ffffffffffffffffffffffffffffffffffffffff16816001015f9054906101000a900473ffffffffffffffffffffffffffffffffffffffff1673ffffffffffffffffffffffffffffffffffffffff1603611d4c5750611ecc565b5f816002015403611d5d5750611ecc565b5f633b9aca006005548360020154611d759190613be5565b611d7f9190613c53565b90505f811115611d98578085611d9591906138ce565b94505b5f73ffffffffffffffffffffffffffffffffffffffff16826001015f9054906101000a900473ffffffffffffffffffffffffffffffffffffffff1673ffffffffffffffffffffffffffffffffffffffff1614158015611dfa57505f8260020154115b15611ec95760045f9054906101000a900473ffffffffffffffffffffffffffffffffffffffff1673ffffffffffffffffffffffffffffffffffffffff16634e06f353836001015f9054906101000a900473ffffffffffffffffffffffffffffffffffffffff168460020154856003015f9054906101000a900467ffffffffffffffff166040518463ffffffff1660e01b8152600401611e9b93929190613c83565b5f604051808303815f87803b158015611eb2575f80fd5b505af1158015611ec4573d5f803e3d5ffd5b505050505b50505b806001019050611cc6565b505f821115611f685760035f9054906101000a900473ffffffffffffffffffffffffffffffffffffffff1673ffffffffffffffffffffffffffffffffffffffff1663a65948a3836040518263ffffffff1660e01b8152600401611f3a9190612d65565b5f604051808303815f87803b158015611f51575f80fd5b505af1158015611f63573d5f803e3d5ffd5b505050505b600160065f8781526020019081526020015f205f6101000a81548160ff021916908315150217905550847f7329a6d2220bdcd2e0f894c159b5bc028a43c58f3bca4f2ddfadcd9f12c535c68383604051611fc39291906133a0565b60405180910390a250505050611fd76126f6565b50565b7f65d7a28e3265b37a6474929f336521b332c1681b933f6cb9f3376673440d862a81565b5f801b61200a816120db565b5f8203612043576040517f9cc0114c00000000000000000000000000000000000000000000000000000000815260040160405180910390fd5b816009819055505050565b7f189ab7a9244df0848122154315af71fe140f3db0fe014031783b0946b8c9d2e381565b5f7f01ffc9a7000000000000000000000000000000000000000000000000000000007bffffffffffffffffffffffffffffffffffffffffffffffffffffffff1916827bffffffffffffffffffffffffffffffffffffffffffffffffffffffff1916149050919050565b6120ec816120e76121d8565b612761565b50565b5f6120fa83836118fa565b6121ce5760015f808581526020019081526020015f205f015f8473ffffffffffffffffffffffffffffffffffffffff1673ffffffffffffffffffffffffffffffffffffffff1681526020019081526020015f205f6101000a81548160ff02191690831515021790555061216b6121d8565b73ffffffffffffffffffffffffffffffffffffffff168273ffffffffffffffffffffffffffffffffffffffff16847f2f8788117e7eff1d82e926ec794901d17c78024a50270940304540a733656f0d60405160405180910390a4600190506121d2565b5f90505b92915050565b5f33905090565b5f6121ea83836118fa565b156122be575f805f8581526020019081526020015f205f015f8473ffffffffffffffffffffffffffffffffffffffff1673ffffffffffffffffffffffffffffffffffffffff1681526020019081526020015f205f6101000a81548160ff02191690831515021790555061225b6121d8565b73ffffffffffffffffffffffffffffffffffffffff168273ffffffffffffffffffffffffffffffffffffffff16847ff6391f5c32d9c69d2a47ea670b442974b53935d1edc7fd64eb21e047a839171b60405160405180910390a4600190506122c2565b5f90505b92915050565b6122d06127b2565b5f60015f6101000a81548160ff0219169083151502179055507f5db9ee0a495bf2e6ff9c91a7834c1ba4fdd244a5e8aa4e537bd38aeae4b073aa6123126121d8565b60405161231f9190613cb8565b60405180910390a1565b7f000000000000000000000000000000000000000000000000000000000000000073ffffffffffffffffffffffffffffffffffffffff163073ffffffffffffffffffffffffffffffffffffffff1614806123d657507f000000000000000000000000000000000000000000000000000000000000000073ffffffffffffffffffffffffffffffffffffffff166123bd6127f2565b73ffffffffffffffffffffffffffffffffffffffff1614155b1561240d576040517fe07c8dba00000000000000000000000000000000000000000000000000000000815260040160405180910390fd5b565b7f189ab7a9244df0848122154315af71fe140f3db0fe014031783b0946b8c9d2e3612439816120db565b5050565b8173ffffffffffffffffffffffffffffffffffffffff166352d1902d6040518163ffffffff1660e01b8152600401602060405180830381865afa9250505080156124a557506040513d601f19601f820116820180604052508101906124a29190613ce5565b60015b6124e657816040517f4c9c8ce30000000000000000000000000000000000000000000000000000000081526004016124dd9190613cb8565b60405180910390fd5b7f360894a13ba1a3210667c828492db98dca3e2076cc3735a920a3ca505d382bbc5f1b811461254c57806040517faa1d49a40000000000000000000000000000000000000000000000000000000081526004016125439190612c47565b60405180910390fd5b6125568383612845565b505050565b7f000000000000000000000000000000000000000000000000000000000000000073ffffffffffffffffffffffffffffffffffffffff163073ffffffffffffffffffffffffffffffffffffffff16146125e0576040517fe07c8dba00000000000000000000000000000000000000000000000000000000815260040160405180910390fd5b565b600280540361261d576040517f3ee5aeb500000000000000000000000000000000000000000000000000000000815260040160405180910390fd5b60028081905550565b61262e610e03565b15612665576040517fd93c066500000000000000000000000000000000000000000000000000000000815260040160405180910390fd5b565b5f6009548260200135101561267e575f90506126ef565b5f825f01358585604051602001612696929190613599565b604051602081830303815290604052805190602001206040516020016126bd929190613d10565b604051602081830303815290604052805190602001209050826040013581146126e9575f9150506126ef565b60019150505b9392505050565b6001600281905550565b612708612626565b6001805f6101000a81548160ff0219169083151502179055507f62e78cea01bee320cd4e420270b5ea74000d11b0c9f74754ebdbfc544b05a25861274a6121d8565b6040516127579190613cb8565b60405180910390a1565b61276b82826118fa565b6127ae5780826040517fe2517d3f0000000000000000000000000000000000000000000000000000000081526004016127a5929190613d37565b60405180910390fd5b5050565b6127ba610e03565b6127f0576040517f8dfc202b00000000000000000000000000000000000000000000000000000000815260040160405180910390fd5b565b5f61281e7f360894a13ba1a3210667c828492db98dca3e2076cc3735a920a3ca505d382bbc5f1b6128b7565b5f015f9054906101000a900473ffffffffffffffffffffffffffffffffffffffff16905090565b61284e826128c0565b8173ffffffffffffffffffffffffffffffffffffffff167fbc7cd75a20ee27fd9adebab32041f755214dbc6bffa90cc0225b39da2e5c2d3b60405160405180910390a25f815111156128aa576128a48282612989565b506128b3565b6128b2612a09565b5b5050565b5f819050919050565b5f8173ffffffffffffffffffffffffffffffffffffffff163b0361291b57806040517f4c9c8ce30000000000000000000000000000000000000000000000000000000081526004016129129190613cb8565b60405180910390fd5b806129477f360894a13ba1a3210667c828492db98dca3e2076cc3735a920a3ca505d382bbc5f1b6128b7565b5f015f6101000a81548173ffffffffffffffffffffffffffffffffffffffff021916908373ffffffffffffffffffffffffffffffffffffffff16021790555050565b60605f808473ffffffffffffffffffffffffffffffffffffffff16846040516129b29190613da2565b5f60405180830381855af49150503d805f81146129ea576040519150601f19603f3d011682016040523d82523d5f602084013e6129ef565b606091505b50915091506129ff858383612a45565b9250505092915050565b5f341115612a43576040517fb398979f00000000000000000000000000000000000000000000000000000000815260040160405180910390fd5b565b606082612a5a57612a5582612ad2565b612aca565b5f8251148015612a8057505f8473ffffffffffffffffffffffffffffffffffffffff163b145b15612ac257836040517f9996b315000000000000000000000000000000000000000000000000000000008152600401612ab99190613cb8565b60405180910390fd5b819050612acb565b5b9392505050565b5f81511115612ae45780518082602001fd5b6040517fd6bda27500000000000000000000000000000000000000000000000000000000815260040160405180910390fd5b5f604051905090565b5f80fd5b5f80fd5b5f7fffffffff0000000000000000000000000000000000000000000000000000000082169050919050565b612b5b81612b27565b8114612b65575f80fd5b50565b5f81359050612b7681612b52565b92915050565b5f60208284031215612b9157612b90612b1f565b5b5f612b9e84828501612b68565b91505092915050565b5f8115159050919050565b612bbb81612ba7565b82525050565b5f602082019050612bd45f830184612bb2565b92915050565b5f819050919050565b612bec81612bda565b8114612bf6575f80fd5b50565b5f81359050612c0781612be3565b92915050565b5f60208284031215612c2257612c21612b1f565b5b5f612c2f84828501612bf9565b91505092915050565b612c4181612bda565b82525050565b5f602082019050612c5a5f830184612c38565b92915050565b5f819050919050565b612c7281612c60565b8114612c7c575f80fd5b50565b5f81359050612c8d81612c69565b92915050565b5f60208284031215612ca857612ca7612b1f565b5b5f612cb584828501612c7f565b91505092915050565b5f73ffffffffffffffffffffffffffffffffffffffff82169050919050565b5f612ce782612cbe565b9050919050565b612cf781612cdd565b8114612d01575f80fd5b50565b5f81359050612d1281612cee565b92915050565b5f8060408385031215612d2e57612d2d612b1f565b5b5f612d3b85828601612bf9565b9250506020612d4c85828601612d04565b9150509250929050565b612d5f81612c60565b82525050565b5f602082019050612d785f830184612d56565b92915050565b5f80fd5b5f80fd5b5f601f19601f8301169050919050565b7f4e487b71000000000000000000000000000000000000000000000000000000005f52604160045260245ffd5b612dcc82612d86565b810181811067ffffffffffffffff82111715612deb57612dea612d96565b5b80604052505050565b5f612dfd612b16565b9050612e098282612dc3565b919050565b5f67ffffffffffffffff821115612e2857612e27612d96565b5b612e3182612d86565b9050602081019050919050565b828183375f83830152505050565b5f612e5e612e5984612e0e565b612df4565b905082815260208101848484011115612e7a57612e79612d82565b5b612e85848285612e3e565b509392505050565b5f82601f830112612ea157612ea0612d7e565b5b8135612eb1848260208601612e4c565b91505092915050565b5f8060408385031215612ed057612ecf612b1f565b5b5f612edd85828601612d04565b925050602083013567ffffffffffffffff811115612efe57612efd612b23565b5b612f0a85828601612e8d565b9150509250929050565b5f80fd5b5f80fd5b5f8083601f840112612f3157612f30612d7e565b5b8235905067ffffffffffffffff811115612f4e57612f4d612f14565b5b602083019150836080820283011115612f6a57612f69612f18565b5b9250929050565b5f80fd5b5f60808284031215612f8a57612f89612f71565b5b81905092915050565b5f805f60408486031215612faa57612fa9612b1f565b5b5f84013567ffffffffffffffff811115612fc757612fc6612b23565b5b612fd386828701612f1c565b9350935050602084013567ffffffffffffffff811115612ff657612ff5612b23565b5b61300286828701612f75565b9150509250925092565b5f819050919050565b5f61302f61302a61302584612cbe565b61300c565b612cbe565b9050919050565b5f61304082613015565b9050919050565b5f61305182613036565b9050919050565b61306181613047565b82525050565b5f60208201905061307a5f830184613058565b92915050565b5f8083601f84011261309557613094612d7e565b5b8235905067ffffffffffffffff8111156130b2576130b1612f14565b5b6020830191508360018202830111156130ce576130cd612f18565b5b9250929050565b5f805f604084860312156130ec576130eb612b1f565b5b5f6130f986828701612bf9565b935050602084013567ffffffffffffffff81111561311a57613119612b23565b5b61312686828701613080565b92509250509250925092565b5f806040838503121561314857613147612b1f565b5b5f61315585828601612bf9565b925050602061316685828601612c7f565b9150509250929050565b61317981612cdd565b82525050565b5f67ffffffffffffffff82169050919050565b61319b8161317f565b82525050565b5f6080820190506131b45f830187612c38565b6131c16020830186613170565b6131ce6040830185612d56565b6131db6060830184613192565b95945050505050565b6131ed81612ba7565b81146131f7575f80fd5b50565b5f81359050613208816131e4565b92915050565b5f806040838503121561322457613223612b1f565b5b5f61323185828601612bf9565b9250506020613242858286016131fa565b9150509250929050565b5f81519050919050565b5f82825260208201905092915050565b8281835e5f83830152505050565b5f61327e8261324c565b6132888185613256565b9350613298818560208601613266565b6132a181612d86565b840191505092915050565b5f60c0820190506132bf5f830189613170565b6132cc6020830188612c38565b81810360408301526132de8187613274565b90506132ed6060830186613192565b6132fa6080830185612bb2565b61330760a0830184612bb2565b979650505050505050565b5f61331c82613036565b9050919050565b61332c81613312565b82525050565b5f6020820190506133455f830184613323565b92915050565b5f6020820190508181035f8301526133638184613274565b905092915050565b5f60608201905061337e5f830186613170565b61338b6020830185612c38565b6133986040830184612bb2565b949350505050565b5f6040820190506133b35f830185612d56565b6133c06020830184612d56565b9392505050565b5f82825260208201905092915050565b5f819050919050565b5f6133ee6020840184612bf9565b905092915050565b6133ff81612bda565b82525050565b5f6134136020840184612d04565b905092915050565b61342481612cdd565b82525050565b5f6134386020840184612c7f565b905092915050565b61344981612c60565b82525050565b6134588161317f565b8114613462575f80fd5b50565b5f813590506134738161344f565b92915050565b5f6134876020840184613465565b905092915050565b6134988161317f565b82525050565b608082016134ae5f8301836133e0565b6134ba5f8501826133f6565b506134c86020830183613405565b6134d5602085018261341b565b506134e3604083018361342a565b6134f06040850182613440565b506134fe6060830183613479565b61350b606085018261348f565b50505050565b5f61351c838361349e565b60808301905092915050565b5f82905092915050565b5f608082019050919050565b5f61354983856133c7565b9350613554826133d7565b805f5b8581101561358c576135698284613528565b6135738882613511565b975061357e83613532565b925050600181019050613557565b5085925050509392505050565b5f6020820190508181035f8301526135b281848661353e565b90509392505050565b7f4e487b71000000000000000000000000000000000000000000000000000000005f52603260045260245ffd5b5f81356135f481612be3565b80915050919050565b5f815f1b9050919050565b5f7fffffffffffffffffffffffffffffffffffffffffffffffffffffffffffffffff613633846135fd565b9350801983169250808416831791505092915050565b5f61365382612bda565b9050919050565b5f815f1c9050919050565b5f61366f8261365a565b9050919050565b61367f82613649565b61369261368b82613665565b8354613608565b8255505050565b5f81356136a581612cee565b80915050919050565b5f73ffffffffffffffffffffffffffffffffffffffff6136cd846135fd565b9350801983169250808416831791505092915050565b5f6136ed82613036565b9050919050565b5f819050919050565b613706826136e3565b613719613712826136f4565b83546136ae565b8255505050565b5f813561372c81612c69565b80915050919050565b5f61374f61374a61374584612c60565b61300c565b612c60565b9050919050565b5f819050919050565b61376882613735565b61377b61377482613756565b8354613608565b8255505050565b5f813561378e8161344f565b80915050919050565b5f67ffffffffffffffff6137aa846135fd565b9350801983169250808416831791505092915050565b5f6137da6137d56137d08461317f565b61300c565b61317f565b9050919050565b5f819050919050565b6137f3826137c0565b6138066137ff826137e1565b8354613797565b8255505050565b5f81015f83018061381d816135e8565b90506138298184613676565b50505060018101602083018061383e81613699565b905061384a81846136fd565b50505060028101604083018061385f81613720565b905061386b818461375f565b50505060038101606083018061388081613782565b905061388c81846137ea565b5050505050565b61389d828261380d565b5050565b7f4e487b71000000000000000000000000000000000000000000000000000000005f52601160045260245ffd5b5f6138d882612c60565b91506138e383612c60565b92508282019050808211156138fb576138fa6138a1565b5b92915050565b7f4e487b71000000000000000000000000000000000000000000000000000000005f52602260045260245ffd5b5f600282049050600182168061394557607f821691505b60208210810361395857613957613901565b5b50919050565b5f819050815f5260205f209050919050565b5f6020601f8301049050919050565b5f82821b905092915050565b5f600883026139ba7fffffffffffffffffffffffffffffffffffffffffffffffffffffffffffffffff8261397f565b6139c4868361397f565b95508019841693508086168417925050509392505050565b6139e583613735565b6139f96139f182613756565b84845461398b565b825550505050565b5f90565b613a0d613a01565b613a188184846139dc565b505050565b5b81811015613a3b57613a305f82613a05565b600181019050613a1e565b5050565b601f821115613a8057613a518161395e565b613a5a84613970565b81016020851015613a69578190505b613a7d613a7585613970565b830182613a1d565b50505b505050565b5f82821c905092915050565b5f613aa05f1984600802613a85565b1980831691505092915050565b5f613ab88383613a91565b9150826002028217905092915050565b613ad18261324c565b67ffffffffffffffff811115613aea57613ae9612d96565b5b613af4825461392e565b613aff828285613a3f565b5f60209050601f831160018114613b30575f8415613b1e578287015190505b613b288582613aad565b865550613b8f565b601f198416613b3e8661395e565b5f5b82811015613b6557848901518255600182019150602085019450602081019050613b40565b86831015613b825784890151613b7e601f891682613a91565b8355505b6001600288020188555050505b505050505050565b5f613ba28385613256565b9350613baf838584612e3e565b613bb883612d86565b840190509392505050565b5f6020820190508181035f830152613bdc818486613b97565b90509392505050565b5f613bef82612c60565b9150613bfa83612c60565b9250828202613c0881612c60565b91508282048414831517613c1f57613c1e6138a1565b5b5092915050565b7f4e487b71000000000000000000000000000000000000000000000000000000005f52601260045260245ffd5b5f613c5d82612c60565b9150613c6883612c60565b925082613c7857613c77613c26565b5b828204905092915050565b5f606082019050613c965f830186613170565b613ca36020830185612d56565b613cb06040830184613192565b949350505050565b5f602082019050613ccb5f830184613170565b92915050565b5f81519050613cdf81612be3565b92915050565b5f60208284031215613cfa57613cf9612b1f565b5b5f613d0784828501613cd1565b91505092915050565b5f604082019050613d235f830185612c38565b613d306020830184612c38565b9392505050565b5f604082019050613d4a5f830185613170565b613d576020830184612c38565b9392505050565b5f81519050919050565b5f81905092915050565b5f613d7c82613d5e565b613d868185613d68565b9350613d96818560208601613266565b80840191505092915050565b5f613dad8284613d72565b91508190509291505056fea2646970667358221220c8eb32c3e3740d74cd10bdc5333b5b7f9d210df90b19bac85a27a6c0aced06cc64736f6c634300081a0033","linkReferences":{}},"methodIdentifiers":{"DATA_SUBMITTER_ROLE()":"1b2b49a6","DEFAULT_ADMIN_ROLE()":"a217fddf","NODE_MANAGER_ROLE()":"d59f9fe0","PAUSER_ROLE()":"e63ab1e9","UPGRADER_ROLE()":"f72c0d8b","UPGRADE_INTERFACE_VERSION()":"ad3cb1cc","batchChallenges(bytes32)":"8ca5d972","batchProcessingDelay()":"474508cf","batchSubmissionTimes(bytes32)":"d68de31b","carbonCreditToken()":"66dea358","challengeBatch(bytes32,string)":"686ddc7a","emissionFactor()":"b3def2f5","getPeerIdCount()":"33be17f8","getRoleAdmin(bytes32)":"248a9ca3","grantRole(bytes32,address)":"2f2ff15d","hasRole(bytes32,address)":"91d14854","pause()":"8456cb59","paused()":"5c975abb","peerIds(uint256)":"897453f1","processBatch(bytes32)":"dffe86ae","processedBatchHashes(bytes32)":"06c52e7c","proxiableUUID()":"52d1902d","registerNode(bytes32,address)":"34083de7","registeredNodes(bytes32)":"ad573d3e","renounceRole(bytes32,address)":"36568abe","requiredConsensusNodes()":"6facc105","resolveChallenge(bytes32,bool)":"7d89122d","revokeRole(bytes32,address)":"d547741f","rewardDistributor()":"acc2166a","setBatchProcessingDelay(uint256)":"514bab55","setEmissionFactor(uint256)":"1bacfcc1","setRequiredConsensusNodes(uint256)":"e9ae4094","storedBatches(bytes32,uint256)":"7a6ab57d","submitEnergyDataBatch((bytes32,address,uint256,uint64)[],(bytes32,uint256,bytes32,bytes))":"66b5b2c5","supportsInterface(bytes4)":"01ffc9a7","unpause()":"3f4ba83a","updateNodeStatus(bytes32,bool)":"8be2b073","upgradeToAndCall(address,bytes)":"4f1ef286"},"id":28}