{"abi":[{"type":"constructor","inputs":[{"name":"_carbonCreditToken","type":"address","internalType":"address"},{"name":"_rewardDistributor","type":"address","internalType":"address"},{"name":"_usdcToken","type":"address","internalType":"address"},{"name":"_initialAdmin","type":"address","internalType":"address"},{"name":"_initialExchangeRate","type":"uint256","internalType":"uint256"},{"name":"_initialProtocolFee","type":"uint256","internalType":"uint256"},{"name":"_initialRewardDistributorPercentage","type":"uint256","internalType":"uint256"}],"stateMutability":"nonpayable"},{"type":"function","name":"DEFAULT_ADMIN_ROLE","inputs":[],"outputs":[{"name":"","type":"bytes32","internalType":"bytes32"}],"stateMutability":"view"},{"type":"function","name":"EXCHANGE_MANAGER_ROLE","inputs":[],"outputs":[{"name":"","type":"bytes32","internalType":"bytes32"}],"stateMutability":"view"},{"type":"function","name":"PAUSER_ROLE","inputs":[],"outputs":[{"name":"","type":"bytes32","internalType":"bytes32"}],"stateMutability":"view"},{"type":"function","name":"RATE_SETTER_ROLE","inputs":[],"outputs":[{"name":"","type":"bytes32","internalType":"bytes32"}],"stateMutability":"view"},{"type":"function","name":"REWARD_DEPOSITOR_ROLE","inputs":[],"outputs":[{"name":"","type":"bytes32","internalType":"bytes32"}],"stateMutability":"view"},{"type":"function","name":"UPGRADER_ROLE","inputs":[],"outputs":[{"name":"","type":"bytes32","internalType":"bytes32"}],"stateMutability":"view"},{"type":"function","name":"UPGRADE_INTERFACE_VERSION","inputs":[],"outputs":[{"name":"","type":"string","internalType":"string"}],"stateMutability":"view"},{"type":"function","name":"carbonCreditToken","inputs":[],"outputs":[{"name":"","type":"address","internalType":"contract ICarbonCreditToken"}],"stateMutability":"view"},{"type":"function","name":"exchangeCreditsForUSDC","inputs":[{"name":"creditAmount","type":"uint256","internalType":"uint256"}],"outputs":[],"stateMutability":"nonpayable"},{"type":"function","name":"exchangeEnabled","inputs":[],"outputs":[{"name":"","type":"bool","internalType":"bool"}],"stateMutability":"view"},{"type":"function","name":"exchangeRate","inputs":[],"outputs":[{"name":"","type":"uint256","internalType":"uint256"}],"stateMutability":"view"},{"type":"function","name":"getRoleAdmin","inputs":[{"name":"role","type":"bytes32","internalType":"bytes32"}],"outputs":[{"name":"","type":"bytes32","internalType":"bytes32"}],"stateMutability":"view"},{"type":"function","name":"grantRole","inputs":[{"name":"role","type":"bytes32","internalType":"bytes32"},{"name":"account","type":"address","internalType":"address"}],"outputs":[],"stateMutability":"nonpayable"},{"type":"function","name":"hasRole","inputs":[{"name":"role","type":"bytes32","internalType":"bytes32"},{"name":"account","type":"address","internalType":"address"}],"outputs":[{"name":"","type":"bool","internalType":"bool"}],"stateMutability":"view"},{"type":"function","name":"pause","inputs":[],"outputs":[],"stateMutability":"nonpayable"},{"type":"function","name":"paused","inputs":[],"outputs":[{"name":"","type":"bool","internalType":"bool"}],"stateMutability":"view"},{"type":"function","name":"protocolFeePercentage","inputs":[],"outputs":[{"name":"","type":"uint256","internalType":"uint256"}],"stateMutability":"view"},{"type":"function","name":"proxiableUUID","inputs":[],"outputs":[{"name":"","type":"bytes32","internalType":"bytes32"}],"stateMutability":"view"},{"type":"function","name":"renounceRole","inputs":[{"name":"role","type":"bytes32","internalType":"bytes32"},{"name":"callerConfirmation","type":"address","internalType":"address"}],"outputs":[],"stateMutability":"nonpayable"},{"type":"function","name":"revokeRole","inputs":[{"name":"role","type":"bytes32","internalType":"bytes32"},{"name":"account","type":"address","internalType":"address"}],"outputs":[],"stateMutability":"nonpayable"},{"type":"function","name":"rewardDistributor","inputs":[],"outputs":[{"name":"","type":"address","internalType":"contract IRewardDistributor"}],"stateMutability":"view"},{"type":"function","name":"rewardDistributorPercentage","inputs":[],"outputs":[{"name":"","type":"uint256","internalType":"uint256"}],"stateMutability":"view"},{"type":"function","name":"setExchangeEnabled","inputs":[{"name":"_enabled","type":"bool","internalType":"bool"}],"outputs":[],"stateMutability":"nonpayable"},{"type":"function","name":"setExchangeRate","inputs":[{"name":"_newRate","type":"uint256","internalType":"uint256"}],"outputs":[],"stateMutability":"nonpayable"},{"type":"function","name":"setProtocolFee","inputs":[{"name":"_newFeePercentage","type":"uint256","internalType":"uint256"}],"outputs":[],"stateMutability":"nonpayable"},{"type":"function","name":"setRewardDistributorPercentage","inputs":[{"name":"_newPercentage","type":"uint256","internalType":"uint256"}],"outputs":[],"stateMutability":"nonpayable"},{"type":"function","name":"setUSDCToken","inputs":[{"name":"_newUsdcToken","type":"address","internalType":"address"}],"outputs":[],"stateMutability":"nonpayable"},{"type":"function","name":"supportsInterface","inputs":[{"name":"interfaceId","type":"bytes4","internalType":"bytes4"}],"outputs":[{"name":"","type":"bool","internalType":"bool"}],"stateMutability":"view"},{"type":"function","name":"totalCreditsExchanged","inputs":[],"outputs":[{"name":"","type":"uint256","internalType":"uint256"}],"stateMutability":"view"},{"type":"function","name":"totalProtocolFees","inputs":[],"outputs":[{"name":"","type":"uint256","internalType":"uint256"}],"stateMutability":"view"},{"type":"function","name":"totalRewardsFunded","inputs":[],"outputs":[{"name":"","type":"uint256","internalType":"uint256"}],"stateMutability":"view"},{"type":"function","name":"totalUsdcCollected","inputs":[],"outputs":[{"name":"","type":"uint256","internalType":"uint256"}],"stateMutability":"view"},{"type":"function","name":"unpause","inputs":[],"outputs":[],"stateMutability":"nonpayable"},{"type":"function","name":"upgradeToAndCall","inputs":[{"name":"newImplementation","type":"address","internalType":"address"},{"name":"data","type":"bytes","internalType":"bytes"}],"outputs":[],"stateMutability":"payable"},{"type":"function","name":"usdcToken","inputs":[],"outputs":[{"name":"","type":"address","internalType":"contract IERC20"}],"stateMutability":"view"},{"type":"event","name":"CreditsExchanged","inputs":[{"name":"user","type":"address","indexed":true,"internalType":"address"},{"name":"creditAmount","type":"uint256","indexed":false,"internalType":"uint256"},{"name":"usdcAmount","type":"uint256","indexed":false,"internalType":"uint256"},{"name":"feeAmount","type":"uint256","indexed":false,"internalType":"uint256"}],"anonymous":false},{"type":"event","name":"ExchangeRateSet","inputs":[{"name":"oldRate","type":"uint256","indexed":false,"internalType":"uint256"},{"name":"newRate","type":"uint256","indexed":false,"internalType":"uint256"}],"anonymous":false},{"type":"event","name":"ExchangeStatusChanged","inputs":[{"name":"enabled","type":"bool","indexed":false,"internalType":"bool"}],"anonymous":false},{"type":"event","name":"Paused","inputs":[{"name":"account","type":"address","indexed":false,"internalType":"address"}],"anonymous":false},{"type":"event","name":"ProtocolFeeSet","inputs":[{"name":"oldFee","type":"uint256","indexed":false,"internalType":"uint256"},{"name":"newFee","type":"uint256","indexed":false,"internalType":"uint256"}],"anonymous":false},{"type":"event","name":"RewardDistributorPercentageSet","inputs":[{"name":"oldPercentage","type":"uint256","indexed":false,"internalType":"uint256"},{"name":"newPercentage","type":"uint256","indexed":false,"internalType":"uint256"}],"anonymous":false},{"type":"event","name":"RewardsPoolFunded","inputs":[{"name":"amount","type":"uint256","indexed":false,"internalType":"uint256"}],"anonymous":false},{"type":"event","name":"RoleAdminChanged","inputs":[{"name":"role","type":"bytes32","indexed":true,"internalType":"bytes32"},{"name":"previousAdminRole","type":"bytes32","indexed":true,"internalType":"bytes32"},{"name":"newAdminRole","type":"bytes32","indexed":true,"internalType":"bytes32"}],"anonymous":false},{"type":"event","name":"RoleGranted","inputs":[{"name":"role","type":"bytes32","indexed":true,"internalType":"bytes32"},{"name":"account","type":"address","indexed":true,"internalType":"address"},{"name":"sender","type":"address","indexed":true,"internalType":"address"}],"anonymous":false},{"type":"event","name":"RoleRevoked","inputs":[{"name":"role","type":"bytes32","indexed":true,"internalType":"bytes32"},{"name":"account","type":"address","indexed":true,"internalType":"address"},{"name":"sender","type":"address","indexed":true,"internalType":"address"}],"anonymous":false},{"type":"event","name":"USDCTokenSet","inputs":[{"name":"tokenAddress","type":"address","indexed":true,"internalType":"address"}],"anonymous":false},{"type":"event","name":"Unpaused","inputs":[{"name":"account","type":"address","indexed":false,"internalType":"address"}],"anonymous":false},{"type":"event","name":"Upgraded","inputs":[{"name":"implementation","type":"address","indexed":true,"internalType":"address"}],"anonymous":false},{"type":"error","name":"AccessControlBadConfirmation","inputs":[]},{"type":"error","name":"AccessControlUnauthorizedAccount","inputs":[{"name":"account","type":"address","internalType":"address"},{"name":"neededRole","type":"bytes32","internalType":"bytes32"}]},{"type":"error","name":"AddressEmptyCode","inputs":[{"name":"target","type":"address","internalType":"address"}]},{"type":"error","name":"ERC1967InvalidImplementation","inputs":[{"name":"implementation","type":"address","internalType":"address"}]},{"type":"error","name":"ERC1967NonPayable","inputs":[]},{"type":"error","name":"EnforcedPause","inputs":[]},{"type":"error","name":"ExchangeDisabled","inputs":[]},{"type":"error","name":"ExpectedPause","inputs":[]},{"type":"error","name":"FailedCall","inputs":[]},{"type":"error","name":"InsufficientFundsForRewards","inputs":[]},{"type":"error","name":"InvalidAmount","inputs":[{"name":"amount","type":"uint256","internalType":"uint256"}]},{"type":"error","name":"InvalidExchangeRate","inputs":[]},{"type":"error","name":"InvalidTokenAddress","inputs":[]},{"type":"error","name":"ReentrancyGuardReentrantCall","inputs":[]},{"type":"error","name":"SafeERC20FailedOperation","inputs":[{"name":"token","type":"address","internalType":"address"}]},{"type":"error","name":"UUPSUnauthorizedCallContext","inputs":[]},{"type":"error","name":"UUPSUnsupportedProxiableUUID","inputs":[{"name":"slot","type":"bytes32","internalType":"bytes32"}]},{"type":"error","name":"ZeroAddress","inputs":[]}],"bytecode":{"object":"0x60a06040523073ffffffffffffffffffffffffffffffffffffffff1660809073ffffffffffffffffffffffffffffffffffffffff16815250348015610042575f80fd5b506040516131b03803806131b0833981810160405281019061006491906107b0565b60016002819055505f73ffffffffffffffffffffffffffffffffffffffff168773ffffffffffffffffffffffffffffffffffffffff16036100d1576040517fd92e233d00000000000000000000000000000000000000000000000000000000815260040160405180910390fd5b5f73ffffffffffffffffffffffffffffffffffffffff168673ffffffffffffffffffffffffffffffffffffffff1603610136576040517fd92e233d00000000000000000000000000000000000000000000000000000000815260040160405180910390fd5b5f73ffffffffffffffffffffffffffffffffffffffff168573ffffffffffffffffffffffffffffffffffffffff160361019b576040517fd92e233d00000000000000000000000000000000000000000000000000000000815260040160405180910390fd5b5f73ffffffffffffffffffffffffffffffffffffffff168473ffffffffffffffffffffffffffffffffffffffff1603610200576040517fd92e233d00000000000000000000000000000000000000000000000000000000815260040160405180910390fd5b5f8303610239576040517fa2ec3a5500000000000000000000000000000000000000000000000000000000815260040160405180910390fd5b620f4240821061028057816040517f3728b83d000000000000000000000000000000000000000000000000000000008152600401610277919061085c565b60405180910390fd5b620f42408111156102c857806040517f3728b83d0000000000000000000000000000000000000000000000000000000081526004016102bf919061085c565b60405180910390fd5b8660035f6101000a81548173ffffffffffffffffffffffffffffffffffffffff021916908373ffffffffffffffffffffffffffffffffffffffff1602179055508560045f6101000a81548173ffffffffffffffffffffffffffffffffffffffff021916908373ffffffffffffffffffffffffffffffffffffffff1602179055508460055f6101000a81548173ffffffffffffffffffffffffffffffffffffffff021916908373ffffffffffffffffffffffffffffffffffffffff1602179055508260068190555081600781905550806008819055506001600d5f6101000a81548160ff0219169083151502179055506103c95f801b856105c060201b60201c565b506103fa7f65d7a28e3265b37a6474929f336521b332c1681b933f6cb9f3376673440d862a856105c060201b60201c565b5061042b7f189ab7a9244df0848122154315af71fe140f3db0fe014031783b0946b8c9d2e3856105c060201b60201c565b5061045c7f71cf91ec47860248170f85b42d74f92cb733e7fa0012c4ada3d85e11b64cb194856105c060201b60201c565b5061048d7fe9eb2d474dbf4ad0af01dbc745ec0e55d70ca9366fe9b52307997e913bad905c856105c060201b60201c565b507ffdc7afada07c13f476d01041c5b7881beb960152c06d6d1df57fca179f221d695f846040516104bf9291906108b7565b60405180910390a17ffa4067f2d0249edb7594284cabb394f2ec0e4f6168dbd1e3a63f861b67f1188f5f836040516104f89291906108b7565b60405180910390a17f79244c8eddd5ce3ce30d4b8f75e87df3e8c0c969c83f4d31f1f1bfd9d6a5bbd85f826040516105319291906108b7565b60405180910390a18473ffffffffffffffffffffffffffffffffffffffff167f9317e3e59b11620f482b4bb292374da6e5cb9e7ef23cf3f121cacca9a5428f7860405160405180910390a27feab0d9428381d359574de45e478b84410e5df2d47189ef99fe052d4b0b570aa460016040516105ac91906108f8565b60405180910390a150505050505050610911565b5f6105d183836106b560201b60201c565b6106ab5760015f808581526020019081526020015f205f015f8473ffffffffffffffffffffffffffffffffffffffff1673ffffffffffffffffffffffffffffffffffffffff1681526020019081526020015f205f6101000a81548160ff02191690831515021790555061064861071860201b60201c565b73ffffffffffffffffffffffffffffffffffffffff168273ffffffffffffffffffffffffffffffffffffffff16847f2f8788117e7eff1d82e926ec794901d17c78024a50270940304540a733656f0d60405160405180910390a4600190506106af565b5f90505b92915050565b5f805f8481526020019081526020015f205f015f8373ffffffffffffffffffffffffffffffffffffffff1673ffffffffffffffffffffffffffffffffffffffff1681526020019081526020015f205f9054906101000a900460ff16905092915050565b5f33905090565b5f80fd5b5f73ffffffffffffffffffffffffffffffffffffffff82169050919050565b5f61074c82610723565b9050919050565b61075c81610742565b8114610766575f80fd5b50565b5f8151905061077781610753565b92915050565b5f819050919050565b61078f8161077d565b8114610799575f80fd5b50565b5f815190506107aa81610786565b92915050565b5f805f805f805f60e0888a0312156107cb576107ca61071f565b5b5f6107d88a828b01610769565b97505060206107e98a828b01610769565b96505060406107fa8a828b01610769565b955050606061080b8a828b01610769565b945050608061081c8a828b0161079c565b93505060a061082d8a828b0161079c565b92505060c061083e8a828b0161079c565b91505092959891949750929550565b6108568161077d565b82525050565b5f60208201905061086f5f83018461084d565b92915050565b5f819050919050565b5f819050919050565b5f6108a161089c61089784610875565b61087e565b61077d565b9050919050565b6108b181610887565b82525050565b5f6040820190506108ca5f8301856108a8565b6108d7602083018461084d565b9392505050565b5f8115159050919050565b6108f2816108de565b82525050565b5f60208201905061090b5f8301846108e9565b92915050565b6080516128796109375f395f818161181c015281816118710152611a4e01526128795ff3fe608060405260043610610203575f3560e01c8063787dce3d11610117578063b9160c301161009f578063e63ab1e91161006e578063e63ab1e9146106e1578063f526e39a1461070b578063f534375214610735578063f72c0d8b1461075f578063fd48a1e61461078957610203565b8063b9160c301461063d578063bf4ace4e14610667578063d547741f14610691578063db068e0e146106b957610203565b806391d14854116100e657806391d148541461055b5780639452409614610597578063a217fddf146105bf578063acc2166a146105e9578063ad3cb1cc1461061357610203565b8063787dce3d146104c95780638456cb59146104f15780638d77ca57146105075780638e50e5091461053157610203565b806336568abe1161019a5780634f1ef286116101695780634f1ef2861461040557806352d1902d14610421578063591c6f251461044b5780635c975abb1461047557806366dea3581461049f57610203565b806336568abe146103735780633ba0b9a91461039b5780633f4ba83a146103c5578063445ec389146103db57610203565b80631d6e53bf116101d65780631d6e53bf146102bf578063233c5cff146102e7578063248a9ca31461030f5780632f2ff15d1461034b57610203565b806301ffc9a7146102075780630f5a9d011461024357806311eac8551461026b5780631d31d29814610295575b5f80fd5b348015610212575f80fd5b5061022d60048036038101906102289190611fea565b6107b3565b60405161023a919061202f565b60405180910390f35b34801561024e575f80fd5b50610269600480360381019061026491906120a2565b61082c565b005b348015610276575f80fd5b5061027f6109c8565b60405161028c9190612128565b60405180910390f35b3480156102a0575f80fd5b506102a96109ed565b6040516102b69190612159565b60405180910390f35b3480156102ca575f80fd5b506102e560048036038101906102e0919061219c565b6109f3565b005b3480156102f2575f80fd5b5061030d6004803603810190610308919061219c565b610ab0565b005b34801561031a575f80fd5b50610335600480360381019061033091906121fa565b610eed565b6040516103429190612234565b60405180910390f35b348015610356575f80fd5b50610371600480360381019061036c919061224d565b610f09565b005b34801561037e575f80fd5b506103996004803603810190610394919061224d565b610f2b565b005b3480156103a6575f80fd5b506103af610fa6565b6040516103bc9190612159565b60405180910390f35b3480156103d0575f80fd5b506103d9610fac565b005b3480156103e6575f80fd5b506103ef610fe1565b6040516103fc9190612159565b60405180910390f35b61041f600480360381019061041a91906123c7565b610fe7565b005b34801561042c575f80fd5b50610435611006565b6040516104429190612234565b60405180910390f35b348015610456575f80fd5b5061045f611037565b60405161046c9190612159565b60405180910390f35b348015610480575f80fd5b5061048961103d565b604051610496919061202f565b60405180910390f35b3480156104aa575f80fd5b506104b3611052565b6040516104c09190612441565b60405180910390f35b3480156104d4575f80fd5b506104ef60048036038101906104ea919061219c565b611077565b005b3480156104fc575f80fd5b50610505611133565b005b348015610512575f80fd5b5061051b611168565b6040516105289190612234565b60405180910390f35b34801561053c575f80fd5b5061054561118c565b6040516105529190612159565b60405180910390f35b348015610566575f80fd5b50610581600480360381019061057c919061224d565b611192565b60405161058e919061202f565b60405180910390f35b3480156105a2575f80fd5b506105bd60048036038101906105b89190612484565b6111f5565b005b3480156105ca575f80fd5b506105d3611273565b6040516105e09190612234565b60405180910390f35b3480156105f4575f80fd5b506105fd611279565b60405161060a91906124cf565b60405180910390f35b34801561061e575f80fd5b5061062761129e565b6040516106349190612548565b60405180910390f35b348015610648575f80fd5b506106516112d7565b60405161065e9190612234565b60405180910390f35b348015610672575f80fd5b5061067b6112fb565b6040516106889190612159565b60405180910390f35b34801561069c575f80fd5b506106b760048036038101906106b2919061224d565b611301565b005b3480156106c4575f80fd5b506106df60048036038101906106da919061219c565b611323565b005b3480156106ec575f80fd5b506106f56113d1565b6040516107029190612234565b60405180910390f35b348015610716575f80fd5b5061071f6113f5565b60405161072c9190612159565b60405180910390f35b348015610740575f80fd5b506107496113fb565b604051610756919061202f565b60405180910390f35b34801561076a575f80fd5b5061077361140d565b6040516107809190612234565b60405180910390f35b348015610794575f80fd5b5061079d611431565b6040516107aa9190612234565b60405180910390f35b5f7f7965db0b000000000000000000000000000000000000000000000000000000007bffffffffffffffffffffffffffffffffffffffffffffffffffffffff1916827bffffffffffffffffffffffffffffffffffffffffffffffffffffffff19161480610825575061082482611455565b5b9050919050565b7fe9eb2d474dbf4ad0af01dbc745ec0e55d70ca9366fe9b52307997e913bad905c610856816114be565b5f73ffffffffffffffffffffffffffffffffffffffff168273ffffffffffffffffffffffffffffffffffffffff16036108bb576040517fd92e233d00000000000000000000000000000000000000000000000000000000815260040160405180910390fd5b60055f9054906101000a900473ffffffffffffffffffffffffffffffffffffffff1673ffffffffffffffffffffffffffffffffffffffff168273ffffffffffffffffffffffffffffffffffffffff1603610941576040517f1eb00b0600000000000000000000000000000000000000000000000000000000815260040160405180910390fd5b8160055f6101000a81548173ffffffffffffffffffffffffffffffffffffffff021916908373ffffffffffffffffffffffffffffffffffffffff1602179055508173ffffffffffffffffffffffffffffffffffffffff167f9317e3e59b11620f482b4bb292374da6e5cb9e7ef23cf3f121cacca9a5428f7860405160405180910390a25050565b60055f9054906101000a900473ffffffffffffffffffffffffffffffffffffffff1681565b60085481565b7fe9eb2d474dbf4ad0af01dbc745ec0e55d70ca9366fe9b52307997e913bad905c610a1d816114be565b620f4240821115610a6557816040517f3728b83d000000000000000000000000000000000000000000000000000000008152600401610a5c9190612159565b60405180910390fd5b5f6008549050826008819055507f79244c8eddd5ce3ce30d4b8f75e87df3e8c0c969c83f4d31f1f1bfd9d6a5bbd88184604051610aa3929190612568565b60405180910390a1505050565b610ab86114d2565b610ac0611516565b600d5f9054906101000a900460ff16610b05576040517fa6b490cd00000000000000000000000000000000000000000000000000000000815260040160405180910390fd5b5f8103610b4957806040517f3728b83d000000000000000000000000000000000000000000000000000000008152600401610b409190612159565b60405180910390fd5b5f6103e860065483610b5b91906125bc565b610b65919061262a565b90505f620f424060075483610b7a91906125bc565b610b84919061262a565b90505f8183610b93919061265a565b90505f620f424060085484610ba891906125bc565b610bb2919061262a565b905060035f9054906101000a900473ffffffffffffffffffffffffffffffffffffffff1673ffffffffffffffffffffffffffffffffffffffff166348a490fb33876040518363ffffffff1660e01b8152600401610c1092919061269c565b5f604051808303815f87803b158015610c27575f80fd5b505af1158015610c39573d5f803e3d5ffd5b505050505f821115610d64578160055f9054906101000a900473ffffffffffffffffffffffffffffffffffffffff1673ffffffffffffffffffffffffffffffffffffffff166370a08231306040518263ffffffff1660e01b8152600401610ca091906126c3565b602060405180830381865afa158015610cbb573d5f803e3d5ffd5b505050506040513d601f19601f82011682018060405250810190610cdf91906126f0565b1015610d17576040517f65203d1800000000000000000000000000000000000000000000000000000000815260040160405180910390fd5b610d63338360055f9054906101000a900473ffffffffffffffffffffffffffffffffffffffff1673ffffffffffffffffffffffffffffffffffffffff166115579092919063ffffffff16565b5b5f811115610e445760045f9054906101000a900473ffffffffffffffffffffffffffffffffffffffff1673ffffffffffffffffffffffffffffffffffffffff16638bdf67f2826040518263ffffffff1660e01b8152600401610dc69190612159565b5f604051808303815f87803b158015610ddd575f80fd5b505af1925050508015610dee575060015b15610e2b577f74ff97027ea986e5dfc1f76839aa0d006c8a1d13e27cecfe74415260a88b605b81604051610e229190612159565b60405180910390a15b80600c5f828254610e3c919061271b565b925050819055505b8460095f828254610e55919061271b565b9250508190555083600a5f828254610e6d919061271b565b9250508190555082600b5f828254610e85919061271b565b925050819055503373ffffffffffffffffffffffffffffffffffffffff167fd533c252d5058db6b69c09227df283defe7130f4e5410acc185ed9516227426a868486604051610ed69392919061274e565b60405180910390a250505050610eea6115d6565b50565b5f805f8381526020019081526020015f20600101549050919050565b610f1282610eed565b610f1b816114be565b610f2583836115e0565b50505050565b610f336116c9565b73ffffffffffffffffffffffffffffffffffffffff168173ffffffffffffffffffffffffffffffffffffffff1614610f97576040517f6697b23200000000000000000000000000000000000000000000000000000000815260040160405180910390fd5b610fa182826116d0565b505050565b60065481565b7f65d7a28e3265b37a6474929f336521b332c1681b933f6cb9f3376673440d862a610fd6816114be565b610fde6117b9565b50565b600a5481565b610fef61181a565b610ff882611900565b611002828261192e565b5050565b5f61100f611a4c565b7f360894a13ba1a3210667c828492db98dca3e2076cc3735a920a3ca505d382bbc5f1b905090565b600c5481565b5f60015f9054906101000a900460ff16905090565b60035f9054906101000a900473ffffffffffffffffffffffffffffffffffffffff1681565b7fe9eb2d474dbf4ad0af01dbc745ec0e55d70ca9366fe9b52307997e913bad905c6110a1816114be565b620f424082106110e857816040517f3728b83d0000000000000000000000000000000000000000000000000000000081526004016110df9190612159565b60405180910390fd5b5f6007549050826007819055507ffa4067f2d0249edb7594284cabb394f2ec0e4f6168dbd1e3a63f861b67f1188f8184604051611126929190612568565b60405180910390a1505050565b7f65d7a28e3265b37a6474929f336521b332c1681b933f6cb9f3376673440d862a61115d816114be565b611165611ad3565b50565b7f2b3b34d8f2cbfb9866f3463c0bc43f6d821c949e95f5ca06701a7756b45ebc8e81565b60075481565b5f805f8481526020019081526020015f205f015f8373ffffffffffffffffffffffffffffffffffffffff1673ffffffffffffffffffffffffffffffffffffffff1681526020019081526020015f205f9054906101000a900460ff16905092915050565b7fe9eb2d474dbf4ad0af01dbc745ec0e55d70ca9366fe9b52307997e913bad905c61121f816114be565b81600d5f6101000a81548160ff0219169083151502179055507feab0d9428381d359574de45e478b84410e5df2d47189ef99fe052d4b0b570aa482604051611267919061202f565b60405180910390a15050565b5f801b81565b60045f9054906101000a900473ffffffffffffffffffffffffffffffffffffffff1681565b6040518060400160405280600581526020017f352e302e3000000000000000000000000000000000000000000000000000000081525081565b7f71cf91ec47860248170f85b42d74f92cb733e7fa0012c4ada3d85e11b64cb19481565b60095481565b61130a82610eed565b611313816114be565b61131d83836116d0565b50505050565b7f71cf91ec47860248170f85b42d74f92cb733e7fa0012c4ada3d85e11b64cb19461134d816114be565b5f8203611386576040517fa2ec3a5500000000000000000000000000000000000000000000000000000000815260040160405180910390fd5b5f6006549050826006819055507ffdc7afada07c13f476d01041c5b7881beb960152c06d6d1df57fca179f221d6981846040516113c4929190612568565b60405180910390a1505050565b7f65d7a28e3265b37a6474929f336521b332c1681b933f6cb9f3376673440d862a81565b600b5481565b600d5f9054906101000a900460ff1681565b7f189ab7a9244df0848122154315af71fe140f3db0fe014031783b0946b8c9d2e381565b7fe9eb2d474dbf4ad0af01dbc745ec0e55d70ca9366fe9b52307997e913bad905c81565b5f7f01ffc9a7000000000000000000000000000000000000000000000000000000007bffffffffffffffffffffffffffffffffffffffffffffffffffffffff1916827bffffffffffffffffffffffffffffffffffffffffffffffffffffffff1916149050919050565b6114cf816114ca6116c9565b611b34565b50565b600280540361150d576040517f3ee5aeb500000000000000000000000000000000000000000000000000000000815260040160405180910390fd5b60028081905550565b61151e61103d565b15611555576040517fd93c066500000000000000000000000000000000000000000000000000000000815260040160405180910390fd5b565b6115d1838473ffffffffffffffffffffffffffffffffffffffff1663a9059cbb858560405160240161158a92919061269c565b604051602081830303815290604052915060e01b6020820180517bffffffffffffffffffffffffffffffffffffffffffffffffffffffff8381831617835250505050611b85565b505050565b6001600281905550565b5f6115eb8383611192565b6116bf5760015f808581526020019081526020015f205f015f8473ffffffffffffffffffffffffffffffffffffffff1673ffffffffffffffffffffffffffffffffffffffff1681526020019081526020015f205f6101000a81548160ff02191690831515021790555061165c6116c9565b73ffffffffffffffffffffffffffffffffffffffff168273ffffffffffffffffffffffffffffffffffffffff16847f2f8788117e7eff1d82e926ec794901d17c78024a50270940304540a733656f0d60405160405180910390a4600190506116c3565b5f90505b92915050565b5f33905090565b5f6116db8383611192565b156117af575f805f8581526020019081526020015f205f015f8473ffffffffffffffffffffffffffffffffffffffff1673ffffffffffffffffffffffffffffffffffffffff1681526020019081526020015f205f6101000a81548160ff02191690831515021790555061174c6116c9565b73ffffffffffffffffffffffffffffffffffffffff168273ffffffffffffffffffffffffffffffffffffffff16847ff6391f5c32d9c69d2a47ea670b442974b53935d1edc7fd64eb21e047a839171b60405160405180910390a4600190506117b3565b5f90505b92915050565b6117c1611c20565b5f60015f6101000a81548160ff0219169083151502179055507f5db9ee0a495bf2e6ff9c91a7834c1ba4fdd244a5e8aa4e537bd38aeae4b073aa6118036116c9565b60405161181091906126c3565b60405180910390a1565b7f000000000000000000000000000000000000000000000000000000000000000073ffffffffffffffffffffffffffffffffffffffff163073ffffffffffffffffffffffffffffffffffffffff1614806118c757507f000000000000000000000000000000000000000000000000000000000000000073ffffffffffffffffffffffffffffffffffffffff166118ae611c60565b73ffffffffffffffffffffffffffffffffffffffff1614155b156118fe576040517fe07c8dba00000000000000000000000000000000000000000000000000000000815260040160405180910390fd5b565b7f189ab7a9244df0848122154315af71fe140f3db0fe014031783b0946b8c9d2e361192a816114be565b5050565b8173ffffffffffffffffffffffffffffffffffffffff166352d1902d6040518163ffffffff1660e01b8152600401602060405180830381865afa92505050801561199657506040513d601f19601f820116820180604052508101906119939190612797565b60015b6119d757816040517f4c9c8ce30000000000000000000000000000000000000000000000000000000081526004016119ce91906126c3565b60405180910390fd5b7f360894a13ba1a3210667c828492db98dca3e2076cc3735a920a3ca505d382bbc5f1b8114611a3d57806040517faa1d49a4000000000000000000000000000000000000000000000000000000008152600401611a349190612234565b60405180910390fd5b611a478383611cb3565b505050565b7f000000000000000000000000000000000000000000000000000000000000000073ffffffffffffffffffffffffffffffffffffffff163073ffffffffffffffffffffffffffffffffffffffff1614611ad1576040517fe07c8dba00000000000000000000000000000000000000000000000000000000815260040160405180910390fd5b565b611adb611516565b6001805f6101000a81548160ff0219169083151502179055507f62e78cea01bee320cd4e420270b5ea74000d11b0c9f74754ebdbfc544b05a258611b1d6116c9565b604051611b2a91906126c3565b60405180910390a1565b611b3e8282611192565b611b815780826040517fe2517d3f000000000000000000000000000000000000000000000000000000008152600401611b789291906127c2565b60405180910390fd5b5050565b5f8060205f8451602086015f885af180611ba4576040513d5f823e3d81fd5b3d92505f519150505f8214611bbd576001811415611bd8565b5f8473ffffffffffffffffffffffffffffffffffffffff163b145b15611c1a57836040517f5274afe7000000000000000000000000000000000000000000000000000000008152600401611c1191906126c3565b60405180910390fd5b50505050565b611c2861103d565b611c5e576040517f8dfc202b00000000000000000000000000000000000000000000000000000000815260040160405180910390fd5b565b5f611c8c7f360894a13ba1a3210667c828492db98dca3e2076cc3735a920a3ca505d382bbc5f1b611d25565b5f015f9054906101000a900473ffffffffffffffffffffffffffffffffffffffff16905090565b611cbc82611d2e565b8173ffffffffffffffffffffffffffffffffffffffff167fbc7cd75a20ee27fd9adebab32041f755214dbc6bffa90cc0225b39da2e5c2d3b60405160405180910390a25f81511115611d1857611d128282611df7565b50611d21565b611d20611e77565b5b5050565b5f819050919050565b5f8173ffffffffffffffffffffffffffffffffffffffff163b03611d8957806040517f4c9c8ce3000000000000000000000000000000000000000000000000000000008152600401611d8091906126c3565b60405180910390fd5b80611db57f360894a13ba1a3210667c828492db98dca3e2076cc3735a920a3ca505d382bbc5f1b611d25565b5f015f6101000a81548173ffffffffffffffffffffffffffffffffffffffff021916908373ffffffffffffffffffffffffffffffffffffffff16021790555050565b60605f808473ffffffffffffffffffffffffffffffffffffffff1684604051611e20919061282d565b5f60405180830381855af49150503d805f8114611e58576040519150601f19603f3d011682016040523d82523d5f602084013e611e5d565b606091505b5091509150611e6d858383611eb3565b9250505092915050565b5f341115611eb1576040517fb398979f00000000000000000000000000000000000000000000000000000000815260040160405180910390fd5b565b606082611ec857611ec382611f40565b611f38565b5f8251148015611eee57505f8473ffffffffffffffffffffffffffffffffffffffff163b145b15611f3057836040517f9996b315000000000000000000000000000000000000000000000000000000008152600401611f2791906126c3565b60405180910390fd5b819050611f39565b5b9392505050565b5f81511115611f525780518082602001fd5b6040517fd6bda27500000000000000000000000000000000000000000000000000000000815260040160405180910390fd5b5f604051905090565b5f80fd5b5f80fd5b5f7fffffffff0000000000000000000000000000000000000000000000000000000082169050919050565b611fc981611f95565b8114611fd3575f80fd5b50565b5f81359050611fe481611fc0565b92915050565b5f60208284031215611fff57611ffe611f8d565b5b5f61200c84828501611fd6565b91505092915050565b5f8115159050919050565b61202981612015565b82525050565b5f6020820190506120425f830184612020565b92915050565b5f73ffffffffffffffffffffffffffffffffffffffff82169050919050565b5f61207182612048565b9050919050565b61208181612067565b811461208b575f80fd5b50565b5f8135905061209c81612078565b92915050565b5f602082840312156120b7576120b6611f8d565b5b5f6120c48482850161208e565b91505092915050565b5f819050919050565b5f6120f06120eb6120e684612048565b6120cd565b612048565b9050919050565b5f612101826120d6565b9050919050565b5f612112826120f7565b9050919050565b61212281612108565b82525050565b5f60208201905061213b5f830184612119565b92915050565b5f819050919050565b61215381612141565b82525050565b5f60208201905061216c5f83018461214a565b92915050565b61217b81612141565b8114612185575f80fd5b50565b5f8135905061219681612172565b92915050565b5f602082840312156121b1576121b0611f8d565b5b5f6121be84828501612188565b91505092915050565b5f819050919050565b6121d9816121c7565b81146121e3575f80fd5b50565b5f813590506121f4816121d0565b92915050565b5f6020828403121561220f5761220e611f8d565b5b5f61221c848285016121e6565b91505092915050565b61222e816121c7565b82525050565b5f6020820190506122475f830184612225565b92915050565b5f806040838503121561226357612262611f8d565b5b5f612270858286016121e6565b92505060206122818582860161208e565b9150509250929050565b5f80fd5b5f80fd5b5f601f19601f8301169050919050565b7f4e487b71000000000000000000000000000000000000000000000000000000005f52604160045260245ffd5b6122d982612293565b810181811067ffffffffffffffff821117156122f8576122f76122a3565b5b80604052505050565b5f61230a611f84565b905061231682826122d0565b919050565b5f67ffffffffffffffff821115612335576123346122a3565b5b61233e82612293565b9050602081019050919050565b828183375f83830152505050565b5f61236b6123668461231b565b612301565b9050828152602081018484840111156123875761238661228f565b5b61239284828561234b565b509392505050565b5f82601f8301126123ae576123ad61228b565b5b81356123be848260208601612359565b91505092915050565b5f80604083850312156123dd576123dc611f8d565b5b5f6123ea8582860161208e565b925050602083013567ffffffffffffffff81111561240b5761240a611f91565b5b6124178582860161239a565b9150509250929050565b5f61242b826120f7565b9050919050565b61243b81612421565b82525050565b5f6020820190506124545f830184612432565b92915050565b61246381612015565b811461246d575f80fd5b50565b5f8135905061247e8161245a565b92915050565b5f6020828403121561249957612498611f8d565b5b5f6124a684828501612470565b91505092915050565b5f6124b9826120f7565b9050919050565b6124c9816124af565b82525050565b5f6020820190506124e25f8301846124c0565b92915050565b5f81519050919050565b5f82825260208201905092915050565b8281835e5f83830152505050565b5f61251a826124e8565b61252481856124f2565b9350612534818560208601612502565b61253d81612293565b840191505092915050565b5f6020820190508181035f8301526125608184612510565b905092915050565b5f60408201905061257b5f83018561214a565b612588602083018461214a565b9392505050565b7f4e487b71000000000000000000000000000000000000000000000000000000005f52601160045260245ffd5b5f6125c682612141565b91506125d183612141565b92508282026125df81612141565b915082820484148315176125f6576125f561258f565b5b5092915050565b7f4e487b71000000000000000000000000000000000000000000000000000000005f52601260045260245ffd5b5f61263482612141565b915061263f83612141565b92508261264f5761264e6125fd565b5b828204905092915050565b5f61266482612141565b915061266f83612141565b92508282039050818111156126875761268661258f565b5b92915050565b61269681612067565b82525050565b5f6040820190506126af5f83018561268d565b6126bc602083018461214a565b9392505050565b5f6020820190506126d65f83018461268d565b92915050565b5f815190506126ea81612172565b92915050565b5f6020828403121561270557612704611f8d565b5b5f612712848285016126dc565b91505092915050565b5f61272582612141565b915061273083612141565b92508282019050808211156127485761274761258f565b5b92915050565b5f6060820190506127615f83018661214a565b61276e602083018561214a565b61277b604083018461214a565b949350505050565b5f81519050612791816121d0565b92915050565b5f602082840312156127ac576127ab611f8d565b5b5f6127b984828501612783565b91505092915050565b5f6040820190506127d55f83018561268d565b6127e26020830184612225565b9392505050565b5f81519050919050565b5f81905092915050565b5f612807826127e9565b61281181856127f3565b9350612821818560208601612502565b80840191505092915050565b5f61283882846127fd565b91508190509291505056fea2646970667358221220bf6efbf4bef29911819834879c2b4638476533fc44dde01527335fd452efdcb464736f6c634300081a0033","linkReferences":{}},"methodIdentifiers":{"DEFAULT_ADMIN_ROLE()":"a217fddf","EXCHANGE_MANAGER_ROLE()":"fd48a1e6","PAUSER_ROLE()":"e63ab1e9","RATE_SETTER_ROLE()":"b9160c30","REWARD_DEPOSITOR_ROLE()":"8d77ca57","UPGRADER_ROLE()":"f72c0d8b","UPGRADE_INTERFACE_VERSION()":"ad3cb1cc","carbonCreditToken()":"66dea358","exchangeCreditsForUSDC(uint256)":"233c5cff","exchangeEnabled()":"f5343752","exchangeRate()":"3ba0b9a9","getRoleAdmin(bytes32)":"248a9ca3","grantRole(bytes32,address)":"2f2ff15d","hasRole(bytes32,address)":"91d14854","pause()":"8456cb59","paused()":"5c975abb","protocolFeePercentage()":"8e50e509","proxiableUUID()":"52d1902d","renounceRole(bytes32,address)":"36568abe","revokeRole(bytes32,address)":"d547741f","rewardDistributor()":"acc2166a","rewardDistributorPercentage()":"1d31d298","setExchangeEnabled(bool)":"94524096","setExchangeRate(uint256)":"db068e0e","setProtocolFee(uint256)":"787dce3d","setRewardDistributorPercentage(uint256)":"1d6e53bf","setUSDCToken(address)":"0f5a9d01","supportsInterface(bytes4)":"01ffc9a7","totalCreditsExchanged()":"bf4ace4e","totalProtocolFees()":"f526e39a","totalRewardsFunded()":"591c6f25","totalUsdcCollected()":"445ec389","unpause()":"3f4ba83a","upgradeToAndCall(address,bytes)":"4f1ef286","usdcToken()":"11eac855"},"id":27}